:100000000C94460018950000189500001895000003
:10001000189500001895000018950000189500002C
:10002000189500001895000018950000189500001C
:10003000189500001895000018950000189500000C
:1000400018950000189500000C941E6B1895000080
:100050000C9410790C943E791895000018950000C6
:1000600018950000189500001895000018950000DC
:1000700018950000189500001895000018950000CC
:100080001895000018950000189500008FEF8DBF9F
:10009000C1E0EBE14E2E80E48EBFD0E4FEE35F2EA4
:1000A000A89584B7082E877F84BF88E1992780931D
:1000B000600090936000EEEFFFE3A0E0B1E08827DE
:1000C0008D933197E9F787E68093C40080E08093B1
:1000D000C50088E18093C100662474B7777F74BF40
:1000E0008FE197E080936000909360000108080022
:1000F00000000000000000000000065F0600000095
:10010000000703000703000000247E247E24000073
:1001100000242B6A120000000063130864630000CF
:100120000036495620500000000007030000000080
:1001300000003E41000000000000413E00000000C1
:1001400000083E1C3E0800000008083E08080000A9
:100150000000E06000000000000808080808000037
:100160000000606000000000002010080402000091
:10017000003E5149453E00000000427F4000000023
:1001800000625149494600000022494949360000B1
:10019000001814127F100000002F49494931000057
:1001A000003C4A4949300000000171090503000084
:1001B000003649494936000000064949291E000019
:1001C00000006C6C000000000000EC6C00000000FF
:1001D00000081422410000000024242424240000EC
:1001E0000000412214080000000201590906000025
:1001F000003E415D551E0000007E1111117E000081
:10020000007F494949360000003E4141412200003B
:10021000007F4141413E0000007F494949410000C3
:10022000007F090909010000003E4149497A0000A8
:10023000007F0808087F00000000417F41000000A7
:1002400000304040403F0000007F08142241000081
:10025000007F404040400000007F0204027F000019
:10026000007F0204087F0000003E4141413E000043
:10027000007F090909060000003E4151215E00008F
:10028000007F09091966000000264949493200002B
:100290000001017F01010000003F4040403F00009D
:1002A000001F2040201F0000003F403C403F000056
:1002B00000631408146300000007087008070000BA
:1002C000007149454300000000007F4141000000EB
:1002D0000002040810200000000041417F000000DF
:1002E0000004020102040000808080808080808001
:1002F0000000030700000000002054545478000060
:10030000007F44444438000000384444442800003E
:1003100000384444447F000000385454540800001E
:1003200000087E09090000000018A4A4A47C0000B5
:10033000007F0404780000000000007D4000000001
:10034000004080847D000000007F102844000000F1
:100350000000007F40000000007C041804780000CA
:10036000007C040478000000003844444438000055
:1003700000FC4444443800000038444444FC00007D
:10038000004478440408000000085454542000003D
:1003900000043E4424000000003C40207C0000009B
:1003A000001C2040201C0000003C6030603C00002D
:1003B000006C10106C000000009CA0603C0000006D
:1003C000006454544C00000000083E41410000000D
:1003D0000000007700000000000041413E080000DE
:1003E0000002010201000000003C2623263C000020
:1003F000001EA1E121120000003D40207D00000010
:100400000038545455090000002055555578000017
:1004100000205554557800000020555554780000B0
:100420000020575557780000001CA2E2221400005B
:10043000003855555508000000385554550800003F
:1004400000385555540800000000017C41000000B0
:1004500000000279420000000000017C4000000022
:10046000007029242970000000782F252F780000C3
:10047000007C5454554500000034547C545800000E
:10048000007E097F494900000038454539000000D9
:100490000038454439000000003945443800000068
:1004A000003C41217D000000003D41207C00000017
:1004B000009CA1603D000000003D42423D00000064
:1004C000003C41403D00000000182466240000006C
:1004D00000483E494962000000292A7C2A29000080
:1004E000007F0916781000000040887E0902000095
:1004F00000205455557800000000007D41000000A8
:100500000038444539000000003C40217D000000D7
:10051000007A090A71000000007A112279000000B7
:1005200000085555555E0000004E51514E00000028
:100530000030484D40200000003C0404040400004A
:1005400004040404041C00000017084C6A50000056
:10055000001708342A7800000000307D30000000C9
:10056000000814000814000000140800140800001B
:100570004411441144110000AA55AA55AA5500007F
:10058000BBEEBBEEBBEE0000000000FF0000000071
:10059000080808FF000000000A0A0AFF0000000027
:1005A00008FF00FF0000000008F808F80000000045
:1005B0000A0A0AFE000000000AFB00FF000000001B
:1005C00000FF00FF000000000AFA02FE0000000029
:1005D0000A0B080F00000000080F080F00000000C1
:1005E0000A0A0A0F00000000080808F800000000CE
:1005F0000000000F080800000808080F08080000A5
:10060000080808F808080000000000FF08080000BB
:100610000808080808080000080808FF0808000083
:10062000000000FF0A0A000000FF00FF08080000A9
:10063000000F080B0A0A000000FE02FA0A0A000076
:100640000A0B080B0A0A00000AFA02FA0A0A00005A
:1006500000FF00FB0A0A00000A0A0A0A0A0A000050
:100660000AFB00FB0A0A00000A0A0A0B0A0A000039
:10067000080F080F080800000A0A0AFA0A0A000010
:1006800008F808F808080000000F080F0808000024
:100690000000000F0A0A0000000000FE0A0A000025
:1006A00000F808F80808000008FF00FF080800002C
:1006B0000A0A0AFB0A0A00000808080F00000000E6
:1006C000000000F808080000FFFFFFFFFFFF000028
:1006D000F0F0F0F0F0F00000FFFFFF00000000007D
:1006E000000000FFFFFF00000F0F0F0F0F0F0000B3
:1006F000001824241824000000FE4A4A3400000098
:10070000007F01010300000000027E027E02000063
:100710000063554963000000001824241C040000F5
:1007200000FC20201C0000000008047804000000E9
:100730000008557755080000003E49493E0000007A
:10074000004C7202724C000000225559300000002B
:1007500000182418241800000018247E2418000013
:10076000001C2A2A2A000000003C02023C00000073
:10077000002A2A2A2A0000000000242E240000005B
:1007800000514A4A4400000000444A4A5100000017
:10079000000000FC020400000020403F00000000B8
:1007A0000008082A08080000002412241200000093
:1007B00000060909060000000000181800000000EB
:1007C00000000800000000000030403E020200006F
:1007D00000010E010E00000000090D0A00000000DB
:1007E000003C3C3C3C000000E0E0F0E0A9EEB1E061
:1007F00091E00E94777AE1E0F0E0A0E8B1E091E0DA
:100800000E94777AE2E0F0E0A1E8B1E091E00E9496
:10081000777AE3E0F0E0A2E8B1E091E00E94777A35
:10082000E4E0F0E0A3E8B1E091E00E94777AE5E04F
:10083000F0E0A4E8B1E091E00E94777AE6E0F0E031
:10084000A5E8B1E091E00E94777AE7E0F0E0A6E861
:10085000B1E091E00E94777AE8E0F0E0A7E8B1E04B
:1008600091E00E94777AE9E0F0E0A8E8B1E091E059
:100870000E94777AEAE0F0E0A9E8B1E091E00E9416
:10088000777AEBE0F0E0A8E5B2E092E00E94777AB8
:10089000EDE0F0E0ABE3B2E092E00E94777AEFE0C7
:1008A000F0E0A7E3B2E092E00E94777AE1E1F0E0C5
:1008B000A9E3B2E092E00E94777AE3E1F0E0AAE5F2
:1008C000B2E092E00E94777AE6E1F0E0AAE4B2E0DA
:1008D00091E00E94777AE7E1F0E0ABE4B2E091E0EA
:1008E0000E94777AE8E1F0E0AEE4B2E091E00E94A5
:1008F000777AE9E1F0E0AFE3B2E092E00E94777A44
:10090000EDE1F0E0A3ECB2E091E00E94777AEEE155
:10091000F0E0ADE3B2E092E00E94777AE0E2F0E04E
:10092000AFEBB2E091E00E94777AE1E2F0E0AFE471
:10093000B2E091E00E94777AE2E2F0E0A0ECB2E06F
:1009400091E00E94777AE4E2F0E0AAE8B2E091E078
:100950000E94777AE5E2F0E0A7E9B2E091E00E9438
:10096000777AE6E2F0E0A8E9B2E091E00E94777AD7
:10097000E7E2F0E0AAEAB2E092E00E94777AE9E2E8
:10098000F0E0ACEAB2E092E00E94777AEBE2F0E0CD
:10099000AEEAB2E092E00E94777AEDE2F0E0A0EBFE
:1009A000B2E092E00E94777AEFE2F0E0A2EBB2E0F0
:1009B00091E00E94777AE0E3F0E0A4EDB2E091E00C
:1009C0000E94777AE1E3F0E0ADEDB2E091E00E94C1
:1009D000777AE5E3F0E0A1ECB2E092E00E94777A6A
:1009E000E7E3F0E0A6EBB2E091E00E94777AE8E37B
:1009F000F0E0AEE1B3E091E00E94777AAAE4B4E0DF
:100A0000E8E6F5EF0E940A790E94A578AFE4B4E029
:100A1000EEE6F5EF0E940A790E94A578A4E5B4E01D
:100A2000E4E7F5EF0E940A790E94A578A9E5B4E011
:100A3000EAE7F5EF0E940A790E94A578AEE5B4E0F6
:100A4000E0E8F5EF0E940A790E94A578A3E6B4E0F9
:100A5000E6E8F5EF0E940A790E94A578A8E6B4E0DE
:100A6000ECE8F5EF0E940A790E94A578ADE6B4E0C3
:100A7000E2E9F5EF0E940A790E94A578A2E7B4E0C6
:100A8000E8E9F5EF0E940A790E94A578A7E7B4E0AB
:100A9000EEE9F5EF0E940A790E94A578ACE7B4E090
:100AA000E4EAF5EF0E940A790E94A578A1E8B4E093
:100AB000EAEAF5EF0E940A790E94A578A6E8B4E078
:100AC000E0EBF5EF0E940A790E94A578ABE8B4E06C
:100AD000E6EBF5EF0E940A790E94A578A0E9B4E060
:100AE000ECEBF5EF0E940A790E94A578A5E9B4E045
:100AF000E2ECF5EF0E940A790E94A578AAE9B4E039
:100B0000E8ECF5EF0E940A790E94A578AFE9B4E01D
:100B1000EEECF5EF0E940A790E94A578A4EAB4E011
:100B2000E8ECF5EF0E940A790E94A578A9EAB4E002
:100B3000E4EDF5EF0E940A790E94A578AEEAB4E0F0
:100B4000E8ECF5EF0E940A790E94A578A3EBB4E0E7
:100B5000EAEDF5EF0E940A790E94A578A8EBB4E0CF
:100B6000E0EEF5EF0E940A790E94A578ADEBB4E0C3
:100B7000E6EEF5EF0E940A790E94A578A2ECB4E0B7
:100B8000ECEEF5EF0E940A790E94A578A7ECB4E09C
:100B9000E2EFF5EF0E940A790E94A578ACECB4E090
:100BA000E8EFF5EF0E940A790E94A578A1EDB4E084
:100BB000EEEFF5EF0E940A790E94A578A6EDB4E069
:100BC000E4E0F6EF0E940A790E94A578ABEDB4E06C
:100BD000EAE0F6EF0E940A790E94A578A0EEB4E060
:100BE000E0E1F6EF0E940A790E94A578A5EEB4E054
:100BF000E6E1F6EF0E940A790E94A578AAEEB4E039
:100C0000ECE1F6EF0E940A790E94A578AFEEB4E01D
:100C1000E2E2F6EF0E940A790E94A578A4EFB4E020
:100C2000E8E2F6EF0E940A790E94A578A9EFB4E005
:100C3000EEE2F6EF0E940A790E94A578AEEFB4E0EA
:100C4000E4E3F6EF0E940A790E94A578A3E0B5E0FC
:100C5000EAE3F6EF0E940A790E94A578A8E0B5E0E1
:100C6000E0E4F6EF0E940A790E94A578ADE0B5E0D5
:100C7000E6E4F6EF0E940A790E94A578A2E1B5E0C9
:100C8000ECE4F6EF0E940A790E94A578A7E1B5E0AE
:100C9000E2E5F6EF0E940A790E94A578ACE1B5E0A2
:100CA000E8E5F6EF0E940A790E94A578A1E2B5E096
:100CB000EEE5F6EF0E940A790E94A578A6E2B5E07B
:100CC000E8ECF5EF0E940A790E94A578ABE2B5E066
:100CD000E4E6F6EF0E940A790E94A578A0E3B5E069
:100CE000EAE6F6EF0E940A790E94A578A5E3B5E04E
:100CF000E0E7F6EF0E940A790E94A578AAE3B5E042
:100D0000E6E7F6EF0E940A790E94A578AFE3B5E026
:100D1000ECE7F6EF0E940A790E94A578A4E4B5E01A
:100D2000E2E8F6EF0E940A790E94A578A9E4B5E00E
:100D3000E8E8F6EF0E940A790E94A578AEE4B5E0F3
:100D4000EEE8F6EF0E940A790E94A578A3E5B5E0E7
:100D5000E4E9F6EF0E940A790E94A578A8E5B5E0DB
:100D6000EAE9F6EF0E940A790E94A578ADE5B5E0C0
:100D7000E0EAF6EF0E940A790E94A578A2E6B5E0C3
:100D8000E6EAF6EF0E940A790E94A5780091E9014F
:100D9000083C18F011F00C94CF060C94D20680E0B9
:100DA0008093E90180E08093600280E090E0A8E019
:100DB000B2E08D939C9384E08093E80181E080937E
:100DC000E701AEE9B1E088278C93AFEAB1E088276C
:100DD0008C93A0ECB1E088278C93ACE8B1E0ECEA0E
:100DE000F6EF0E940A790E94A57881E080938A013B
:100DF00082E08093EA0182E08093EB0182E08093BD
:100E0000EC0182E08093ED0182E08093EE0182E0CC
:100E10008093EF0182E08093F00180E080930D02E7
:100E200080E090E0A1EFB1E08D939C9380E080930F
:100E3000430280E080939D0170910C027F7E70934D
:100E40000C0280E080938B0280E08093650281E059
:100E500090E0A0E7B2E08D939C9382E090E0A2E75F
:100E6000B2E08D939C9305E010E0A2E7B2E04D91D3
:100E70005C910E947878A4E7B2E00D931C930AE09D
:100E800010E0A2E7B2E04D915C910E947878A6E76D
:100E9000B2E00D931C9304E110E0A2E7B2E04D91A3
:100EA0005C910E947878A8E7B2E00D931C9309E169
:100EB00010E0A2E7B2E04D915C910E947878AAE739
:100EC000B2E00D931C930EE110E0A2E7B2E04D9169
:100ED0005C910E947878ACE7B2E00D931C9380E0BF
:100EE00090E0ACE6B2E08D939C9380E090E0AEE6BB
:100EF000B2E08D939C9370910C02777F70930C02FB
:100F000070910C027B7F70930C0270910C027D7FBC
:100F100070930C027091BA027F777093BA0280E0EE
:100F20008093A40280E08093B30280E08093B402B7
:100F300070910C027E7F70930C0280E08093B5026A
:100F40007091BA0270647093BA0281E08093DA0201
:100F50007091BA027F7D7093BA027091BA027F7E5F
:100F60007093BA0280E08093C40280E08093C5024F
:100F700080E08093C60280E08093C70280E090E02A
:100F8000ACE8B2E08D939C937091BA02777F709336
:100F9000BA0280E08093D50280E08093A40200E052
:100FA00010E020E030E0A0E5B2E00D931D932D931A
:100FB0003C9380E08093D80280E08093D9027091C6
:100FC0000C027F7B70930C0280E08093DB0280E058
:100FD0008093DC0280E090E0AEEDB2E08D939C93D4
:100FE00000E010E020E030E0A0EEB2E00D931D93B1
:100FF0002D933C937091BA027B7F7093BA0280EF7D
:1010000090E0AAE1B1E08D939C9380E080931D0372
:1010100000E010E020E030E0AFE1B3E00D931D937D
:101020002D933C9380E08093620281E08093E40200
:101030000091E402083118F011F00C94350880E0BA
:1010400090E0A4EEB2E0AD90BB24A3EEB2E0AA0C17
:10105000BB1CAA0DBB1D8D939C93A4EEB2E08C919A
:101060008F5F8C9310F40C94180800914A0205309D
:1010700018F011F00C943E080C94410880E0809325
:101080004A0200918A02083718F011F00C944A08BD
:101090000C944D0884E080938A02009197020130FD
:1010A00018F011F00C9456080C94590881E08093C4
:1010B00097020091D402023018F011F00C946208EB
:1010C0000C94650880E08093D4020091D402023031
:1010D00011F00C946E0881E08093B8020091DD025B
:1010E000013018F011F00C9477080C947A0880E025
:1010F0008093DD028091DD028093B8020091B602F8
:10110000043010F40C94870884E08093B602809138
:10111000B6028093B70200911E03013018F011F05F
:101120000C9494080C94970880E080931E03AAEA1C
:10113000B2E08D919C91A6EAB2E08D939D938827B1
:101140008D938C9300911E03003011F00C94B8081D
:1011500088EE93E0A3E9B2E08D939C93A3E2B3E021
:10116000E0EBF6EF0E940A790E94A5780C94C6087D
:101170008AEA95E0A3E9B2E08D939C93A3E2B3E001
:10118000E4EBF6EF0E940A790E94A57888EE93E0DE
:10119000A5E9B2E08D939C9381E080939902009140
:1011A00099020A3318F011F00C94F808E9E9F2E01A
:1011B0000191112745E050E00E947878E5E4F4E0E1
:1011C000E00FF11FA9E9B2E00D91112745E050E0D1
:1011D0000E947878A3E2B3E0A00FB11F0E94487A82
:1011E000A9E9B2E08C918F5F8C9310F40C94CF0836
:1011F0000E945D090E942E53E1E0F0E00E94C67655
:10120000789481E090E0A3E6B1E08D939C93A3E60F
:10121000B1E00D911C91003050E0150711F00C94D5
:1012200015090E94550A0C944509013050E0150734
:1012300011F00C941F090E94C1530C94450902300F
:1012400050E0150711F00C9429090E94441F0C94DA
:101250004509033050E0150711F00C9433090E9442
:10126000CF2E0C944509043050E0150711F00C9472
:101270003D090E94D13E0C944509063050E0150707
:1012800011F00C9445090E943D540E94941B40911A
:10129000B8020091DD02041711F40C945B098091EF
:1012A000B8028093DD02E1E3F0E0ADEDB2E091E061
:1012B0007BE70E94667A0C94070970E072B97BEFB5
:1012C00071B970E075B97FEB74B98FEF87B974ECC1
:1012D0007BB97AE37AB970E074BD75E075BD70E0F2
:1012E00076BD70E077BD70E078BD73E870938000E4
:1012F0007AE07093810070E07093850070E07093E5
:10130000840070E07093870070E07093860070E056
:101310007093890070E07093880070E070938B0088
:1013200070E070938A0070E07093B60070E0709384
:10133000B00070E07093B10070E07093B20070E0A4
:101340007093B30070E07093B40072E07093690022
:1013500071E07DBB70E07093680071E070936E0087
:1013600070E070936F0070E07093700070E870BF71
:1013700070E070937B0080E0809300015C9A80E0D5
:101380008093010171B1786F71B90E944277ECEEE0
:10139000F0E00E940A79ACE6B5E0ED93FD938BB7DF
:1013A0008C937BEF71B97091C10070687093C1002C
:1013B00074E070937E0072EC70937C0077E8709319
:1013C0007A0070E070937B0000E010E020E030E0F5
:1013D000A5E2B1E00D931D932D933C9308950895DC
:1013E00080917A0086FDFCCF70917A0070647093D2
:1013F0007A0080917A0086FDFCCF80917800ABE284
:10140000B1E08D9388278C9380917900ADE2B1E0B3
:101410008D9388278C9398E0ADE2B1E00E94AB7881
:10142000ADE2B1E00D911C9122273327ABE2B1E090
:101430004D915C91662777270E942577A5E2B1E060
:101440000D931D932D933D930895AAE9B5E00E9455
:101450006A79A5ECB5E00E946A798AE090E00E9482
:101460003377089508950E945076A5E6B1E08D93F4
:1014700088278C93A5E6B1E08C91803011F40C9410
:10148000490AE5E6F1E0A9E4B1E00E9449760E944C
:10149000487AA7E6B1E00D911C910F5F1F4FA7E6B8
:1014A000B1E00D931C9308950895A8E0B2E00D916A
:1014B0001C91003050E0150711F40C94650A80E08F
:1014C00090E0A8E0B2E08D939C930091E701013099
:1014D00011F40C946E0A81E08093E7010091E80119
:1014E000043011F40C94770A84E08093E801AFE3B0
:1014F000B2E00D911C9102531040A1E4B2E00D93B3
:101500001C93E8E2F3E0AAE9B2E00E94487A0E9464
:10151000365180E0809363028AE090E00E94337746
:101520008091C70580936402A3E6B2E08C918F5F3F
:101530008C93009163020A3010F40C94A10A0C946D
:10154000AA0A00916402003018F011F00C94AA0A63
:101550000C948C0A8AE090E00E943377A9E4B1E011
:1015600088278C9380E090E0A7E6B1E08D939C9370
:101570000E94330AA7E6B1E00D911C91093150E0B9
:1015800015071CF011F00C94C70A0C94CE0AA5E3C1
:10159000B2E08C918F5F8C930C94E70A81E00E94FB
:1015A00072788AE0A881B9818D9388278C93E8812D
:1015B000F981A5E6B1E00E94A27A0FB681E0481A4F
:1015C00080E0580A22960FBE11F00C94B80AA9E4E4
:1015D000B1E00E949A7A082F0F3011F00C94930B0F
:1015E00088E0E9E4F1E004E00A93ADE6B1E00E94AE
:1015F0004D7A80E080933502ADE6B1E00E942E7A0C
:10160000A9E6B1E00D931D932D933D93A9E6B1E0BA
:101610000D911D912D913C91A8E5B2E04D915C9109
:10162000662777270E948278A9E6B1E00D931D9383
:101630002D933D93A9E6B1E00D911D912D913C9123
:10164000AAE5B2E04D915C91662777270E94D1769A
:10165000A9E6B1E04D935D936D937D93A9E6B1E06A
:101660000D911D912D913C914AE050E060E070E0B9
:101670000E94D176A9E6B1E04D935D936D937D9381
:10168000ACE0B2E08C9186FB16F00C94830BABE3DC
:10169000B2E04D915C9166277727A9E6B1E00D9104
:1016A0001D912D913C910E947D790CF402C00C9407
:1016B000640BABE3B2E08D919C91A9E6B1E08D9310
:1016C0009D9388278D938C93A1E4B2E04D915C911A
:1016D00066277727A9E6B1E00D911D912D913C91E8
:1016E0000E947D791CF011F00C94780B0C94830B04
:1016F000AFE3B2E08D919C91A9E6B1E08D939D930B
:1017000088278D938C93E9E6F1E0ADE6B1E00E9485
:101710009379EDE6F1E0AAE7B1E01127222701E095
:1017200033270E94C6780E94250AEDE2F3E0AAE979
:10173000B2E00E94487A0E94365180E080936302B2
:101740008AE090E00E9433778091C705809364021D
:10175000A3E6B2E08C918F5F8C93009163020A3014
:1017600010F40C94B50B0C94BE0B00916402003085
:1017700018F011F00C94BE0B0C94A00B8AE090E0D2
:101780000E943377A9E4B1E088278C9380E090E051
:10179000A7E6B1E08D939C930E94330AA7E6B1E0DF
:1017A0000D911C91093150E015071CF011F00C94BB
:1017B000DB0B0C94E20BA6E3B2E08C918F5F8C9371
:1017C0000C94FB0B81E00E9472788AE0A881B981B9
:1017D0008D9388278C93E881F981A5E6B1E00E947A
:1017E000A27A0FB681E0481A80E0580A22960FBE0E
:1017F00011F00C94CC0BA9E4B1E00E949A7A082F66
:101800000F3011F00C943C0C88E0E9E4F1E004E0C6
:101810000A93ADE6B1E00E944D7AADE6B1E00E94D8
:101820002E7A44EF51E060E070E00E947D790CF484
:1018300002C00C943C0C80E080933602ADE6B1E02F
:101840000E942E7AA9E6B1E00D931D932D933D934E
:10185000809169018093C602E9E6F1E0ADE6B1E06E
:101860000E949379EDE6F1E0A4E7B1E01127222789
:1018700002E031E00E94C6780E94250AAAE1B1E0A8
:101880000D911C91003050E0150718F011F00C94E8
:101890008F0D80EF90E0AAE1B1E08D939C930E94C0
:1018A000250AE1E3F4E0AAE9B2E00E94487A0E9446
:1018B0003651A9E4B1E088278C9380E090E0A7E658
:1018C000B1E08D939C930E94330AA7E6B1E00D919D
:1018D0001C91093150E015071CF011F00C94720CAA
:1018E0000C947A0C80E090E0AAE1B1E08D939C9397
:1018F0000C94930C81E00E9472788AE0A881B981EF
:101900008D9388278C93E881F981A5E6B1E00E9448
:10191000A27A0FB681E0481A80E0580A22960FBEDC
:1019200011F00C94630CA9E4B1E00E949A7A082F9C
:101930000F3011F00C94C70C88E0E9E4F1E004E00A
:101940000A93ADE6B1E00E944D7AADE6B1E00E94A7
:101950002E7A40E157E260E070E00E947D790CF45D
:1019600002C00C94BF0CADE6B1E00E942E7AA5E156
:10197000B3E00D931D932D933D930C94C50C80E023
:1019800090E0AAE1B1E08D939C930C94CD0C80E0A3
:1019900090E0AAE1B1E08D939C93ECE2F4E0AAE937
:1019A000B2E00E94487A0E943651A9E4B1E088274B
:1019B0008C9380E090E0A7E6B1E08D939C930E9429
:1019C000330AA7E6B1E00D911C91093150E01507EB
:1019D0001CF011F00C94EE0C0C94F60C80E090E0EE
:1019E000AAE1B1E08D939C930C940F0D81E00E94CD
:1019F00072788AE0A881B9818D9388278C93E881D9
:101A0000F981A5E6B1E00E94A27A0FB681E0481AFA
:101A100080E0580A22960FBE11F00C94DF0CA9E466
:101A2000B1E00E949A7A082F0F3011F00C94430D08
:101A300088E0E9E4F1E004E00A93ADE6B1E00E9459
:101A40004D7AADE6B1E00E942E7A40EA56E861E0B8
:101A500070E00E947D790CF402C00C943B0DADE661
:101A6000B1E00E942E7AA9E1B3E00D931D932D936E
:101A70003D930C94410D80E090E0AAE1B1E08D939C
:101A80009C930C94490D80E090E0AAE1B1E08D9325
:101A90009C9300919802023011F00C94630DA9E11F
:101AA000B3E00D911D912D913C9148E150E060E033
:101AB00070E00E948278A9E1B3E00D931D932D930D
:101AC0003D930C947B0D00919802013011F00C9421
:101AD0007B0DA9E1B3E00D911D912D913C9140E169
:101AE00057E260E070E00E948278A9E1B3E00D93D4
:101AF0001D932D933D93A5E1B3E00D911D912D9183
:101B00003C91A9E1B3E04D915D916D917C910E9472
:101B10007379A5E1B3E00D931D932D933D9382E07E
:101B200080936F0581E0809370058827809371050D
:101B3000E8EBF6EF0E940A790E94BF760091D4028A
:101B4000013011F00C94150E82E080936F0585E052
:101B500080937005882780937105EAECF6EF0E9468
:101B60000A790E94BF7685E080936F0585E08093B7
:101B70007005882780937105EAEDF6EF0E940A79D7
:101B80000E94BF7611990C94040E0091DC02013082
:101B900011F00C94F30D0091B802003011F00C9488
:101BA000E20D85E080936F0585E0809370058827BE
:101BB00080937105EAEEF6EF0E940A790E94BF76E3
:101BC0000C94F10D85E080936F0581E080937005A2
:101BD000882780937105EAEFF6EF0E940A790E9448
:101BE000BF760C94020E85E080936F0585E08093AC
:101BF0007005882780937105ECE0F7EF0E940A7961
:101C00000E94BF760C94130E85E080936F0585E0EB
:101C100080937005882780937105ECE1F7EF0E94AF
:101C20000A790E94BF760C94600F0091D4020230B2
:101C300011F00C94840E82E080936F0581E0809314
:101C40007005882780937105E8EBF6EF0E940A790A
:101C50000E94BF7682E080936F0585E080937005D7
:101C6000882780937105ECE2F7EF0E940A790E94C1
:101C7000BF7685E080936F0581E0809370058827AB
:101C800080937105E8EBF6EF0E940A790E94BF7617
:101C900011990C94730E0091DC02003011F00C9439
:101CA000620E85E080936F0585E08093700588273C
:101CB00080937105ECE0F7EF0E940A790E94BF76ED
:101CC0000C94710E85E080936F0581E08093700520
:101CD000882780937105EAEFF6EF0E940A790E9447
:101CE000BF760C94820E85E080936F0585E080932B
:101CF0007005882780937105ECE1F7EF0E940A795F
:101D00000E94BF760C94600FE6EAF2E0A8ECB2E025
:101D10000E94967900911E03003011F00C94A20EDF
:101D2000E8ECF2E0A3E0BEE30E94487AE3E0FEE3E1
:101D3000A8ECB2E01127222703E032E00E94C67827
:101D40000C94B20EE8ECF2E0A3E0BEE30E94487A05
:101D5000E3E0FEE3A8ECB2E01127222702E031E045
:101D60000E94C678A8ECB2E00E949A7A082F01304F
:101D700011F00C94DA0E81E080936F0581E080937E
:101D80007005882780937105ECE3F7EF0E940A79CC
:101D90000E94BF76A8ECB2E00E94B976E8E4F7EFC3
:101DA0000E940A790E94BF76A3E2B3E00E94B9764E
:101DB0000C94600F023011F00C94FD0E81E08093C2
:101DC0006F0581E080937005882780937105EAE4B0
:101DD000F7EF0E940A790E94BF76A8ECB2E00E9459
:101DE000B976E8E4F7EF0E940A790E94BF76A3E291
:101DF000B3E00E94B9760C94600F033011F00C949C
:101E0000200F81E080936F0581E080937005882723
:101E100080937105E6E5F7EF0E940A790E94BF768C
:101E2000A8ECB2E00E94B976E8E4F7EF0E940A79E4
:101E30000E94BF76A3E2B3E00E94B9760C94600FD3
:101E4000043011F00C94430F81E080936F0581E022
:101E500080937005882780937105E0E6F7EF0E9474
:101E60000A790E94BF76A8ECB2E00E94B976E8E455
:101E7000F7EF0E940A790E94BF76A3E2B3E00E94C6
:101E8000B9760C94600F81E080936F0581E08093B8
:101E90007005882780937105EAE6F7EF0E940A79BA
:101EA0000E94BF76A8ECB2E00E94B976E8E4F7EFB2
:101EB0000E940A790E94BF76A3E2B3E00E94B9763D
:101EC000ECE8F2E0AEECB2E00E94907900911E03E3
:101ED000003011F00C947E0FEEECF2E0A3E0BEE3D4
:101EE0000E94487AE3E0FEE3AEECB2E0112722273D
:101EF00003E032E00E94C6780C948E0FEEECF2E024
:101F0000A3E0BEE30E94487AE3E0FEE3AEECB2E079
:101F10001127222702E031E00E94C6780091D40206
:101F2000003011F00C94231282E080936F0581E061
:101F300080937005882780937105E2E7F7EF0E9490
:101F40000A790E94BF76AEECB2E00E949A7A082F1E
:101F5000013011F00C94CB0F82E080936F0581E08B
:101F600080937005882780937105E4E8F7EF0E945D
:101F70000A790E94BF76AEECB2E00E94B976E8E43E
:101F8000F7EF0E940A790E94BF76A3E2B3E00E94B5
:101F9000B9760C945110023011F00C94EE0F82E0DF
:101FA00080936F0581E08093700588278093710589
:101FB000E0E9F7EF0E940A790E94BF76AEECB2E04A
:101FC0000E94B976E8E4F7EF0E940A790E94BF7692
:101FD000A3E2B3E00E94B9760C945110033011F0E3
:101FE0000C94111082E080936F0581E0809370055E
:101FF000882780937105ECE9F7EF0E940A790E9427
:10200000BF76AEECB2E00E94B976E8E4F7EF0E944A
:102010000A790E94BF76A3E2B3E00E94B9760C94DD
:102020005110043011F00C94341082E080936F054D
:1020300081E080937005882780937105E6EAF7EFC9
:102040000E940A790E94BF76AEECB2E00E94B97697
:10205000E8E4F7EF0E940A790E94BF76A3E2B3E0BA
:102060000E94B9760C94511082E080936F0581E054
:1020700080937005882780937105E0EBF7EF0E944D
:102080000A790E94BF76AEECB2E00E94B976E8E42D
:10209000F7EF0E940A790E94BF76A3E2B3E00E94A4
:1020A000B97684E080936F0581E08093700588277E
:1020B00080937105E8EBF6EF0E940A790E94BF76E3
:1020C00086E080936F0581E0809370058827809378
:1020D0007105E8EBF6EF0E940A790E94BF76ACE04A
:1020E000B2E08C9186FB16F00C945211AAEBB2E090
:1020F0008C9186FB16F40C94FD10AAEBB2E08C9147
:1021000085FB16F00C94C11084E080936F0581E08C
:1021100080937005882780937105E8EBF7EF0E94A4
:102120000A790E94BF7685E080936F0581E08093F5
:102130007005882780937105E8EBF6EF0E940A7915
:102140000E94BF7686E080936F0581E080937005E2
:10215000882780937105E8ECF7EF0E940A790E94C6
:10216000BF76E6E0F1E0A3E0BEE30E9490790E9432
:10217000B776E6EDF7EF0E940A790E94BF760C94DD
:10218000FB1084E080936F0581E0809370058827C1
:1021900080937105E8EDF7EF0E940A790E94BF76FF
:1021A00085E080936F0581E0809370058827809398
:1021B0007105E8EEF7EF0E940A790E94BF76E4EB22
:1021C000F2E0A3E0BEE30E94A0790E94B776E0EFC0
:1021D000F7EF0E940A790E94BF76E3EBF2E0A3E0FA
:1021E000BEE30E94A0790E94B776E4EFF7EF0E9469
:1021F0000A790E94BF760C945011AAEBB2E08C9140
:1022000084FB16F00C94411184E080936F0585E007
:1022100080937005882780937105E6EFF7EF0E94A1
:102220000A790E94BF7685E080936F0581E08093F4
:102230007005882780937105E8EBF6EF0E940A7914
:102240000E94BF7686E080936F0581E080937005E1
:10225000882780937105E4E0F8EF0E940A790E94D4
:10226000BF76EEE0F1E0A3E0BEE30E9490790E9429
:10227000B776E6EDF7EF0E940A790E94BF760C94DC
:10228000501184E080936F0585E080937005882766
:1022900080937105E2E1F8EF0E940A790E94BF760F
:1022A0000C9496110091B802013011F00C94781141
:1022B00084E080936F0581E0809370058827809388
:1022C0007105E2E2F8EF0E940A790E94BF7685E08C
:1022D00080936F0581E08093700588278093710556
:1022E000E8EBF6EF0E940A790E94BF760C949611F3
:1022F00084E080936F0585E0809370058827809344
:102300007105ECE0F7EF0E940A790E94BF7685E044
:1023100080936F0581E08093700588278093710515
:10232000E8EBF6EF0E940A790E94BF764091B20274
:102330000091B402041781E008F480E08F930091CB
:10234000B202003081E009F480E09F918923882364
:1023500011F40C94231270910C02716070930C02B2
:1023600081E08093ED010E94A27781E080936F0568
:1023700081E080937005882780937105E2E3F8EF90
:102380000E940A790E94BF7682E080936F0581E007
:1023900080937005882780937105E4E4F8EF0E942C
:1023A0000A790E94BF7684E080936F0581E0809374
:1023B0007005882780937105E6E5F8EF0E940A7999
:1023C0000E94BF7686E080936F0581E08093700560
:1023D000882780937105E6E6F8EF0E940A790E944B
:1023E000BF7687E080936F0581E080937005882732
:1023F00080937105E6E7F8EF0E940A790E94BF76A4
:102400000091EF01013011F00C94211282E08093D1
:10241000EF0182E08093F00182E08093EA0181E0A5
:102420008093ED0180E08093B40280E08093B3025A
:1024300070910C027E7F70930C020E94A2770C9424
:1024400023120C94001288E080936F0581E0809342
:102450007005882780937105E8EBF6EF0E940A79F2
:102460000E94BF760091B602003011F00C94101358
:1024700000913602053018F011F00C9441120C94C2
:10248000551286E08093360288E080936F0585E0E0
:1024900080937005882780937105E8E8F8EF0E9423
:1024A0000A790E94BF760C940E13A4E7B1E00E9453
:1024B0009A7A082F003011F00C94791288E08093FA
:1024C0006F0581E080937005882780937105E8E9A6
:1024D000F8EF0E940A790E94BF76A4E7B1E00E945B
:1024E000B976EEE9F8EF0E940A790E94BF760C9463
:1024F0000E13013011F00C94981288E080936F0550
:1025000081E080937005882780937105E8E9F8EFF2
:102510000E940A790E94BF76A4E7B1E00E94B976D2
:10252000EEE9F8EF0E940A790E94BF760C940E1330
:10253000023011F00C94B71288E080936F0585E0AB
:1025400080937005882780937105E4EAF8EF0E9474
:102550000A790E94BF76A4E7B1E00E94B976EEE95D
:10256000F8EF0E940A790E94BF760C940E13033094
:1025700011F00C94D61288E080936F0581E080936F
:102580007005882780937105E4EAF8EF0E940A79C4
:102590000E94BF76A4E7B1E00E94B976EEE9F8EFB9
:1025A0000E940A790E94BF760C940E13043011F039
:1025B0000C94F51288E080936F0585E08093700598
:1025C000882780937105ECEAF6EF0E940A790E9451
:1025D000BF76A4E7B1E00E94B976EEE9F8EF0E9479
:1025E0000A790E94BF760C940E1388E080936F05E1
:1025F00085E080937005882780937105E8E4F7EF04
:102600000E940A790E94BF76A4E7B1E00E94B976E1
:10261000EEE9F8EF0E940A790E94BF760C948818C0
:102620000091B602013011F00C94C81300913502EC
:10263000053018F011F00C941F130C94331388E03C
:1026400080936F0581E080937005882780937105E2
:10265000EAEAF8EF0E940A790E94BF7686E080934A
:1026600035020C94C61311990C94471388E080939B
:102670006F0585E080937005882780937105ECEBEA
:10268000F8EF0E940A790E94BF760C94C613AAE75D
:10269000B1E00E949A7A082F013011F00C946B136C
:1026A00088E080936F0585E080937005882780938C
:1026B0007105E8E9F8EF0E940A790E94BF76AAE75F
:1026C000B1E00E94B976ECECF8EF0E940A790E9422
:1026D000BF760C94C613023011F00C948A1388E074
:1026E00080936F0581E08093700588278093710542
:1026F000E8E9F8EF0E940A790E94BF76AAE7B1E004
:102700000E94B976ECECF8EF0E940A790E94BF763D
:102710000C94C613033011F00C94A91388E0809335
:102720006F0585E080937005882780937105E4EA42
:10273000F8EF0E940A790E94BF76AAE7B1E00E94F2
:10274000B976ECECF8EF0E940A790E94BF760C94FF
:10275000C613043011F00C94C61388E080936F0503
:1027600081E080937005882780937105E4EAF8EF93
:102770000E940A790E94BF76AAE7B1E00E94B9766A
:10278000ECECF8EF0E940A790E94BF760C9488184E
:102790000091B602023011F00C94421640E050E075
:1027A00060E070E0A5E1B3E00D911D912D913C91A9
:1027B000041715072607370781E008F480E08F9398
:1027C00049E050E060E070E0A5E1B3E00D911D91BB
:1027D0002D913C91041715072607370781E010F06B
:1027E00009F080E09F918923882311F40C9411143F
:1027F00088E080936F0585E180937005882780933A
:102800007105E5E1F3E0A3E0BEE30E9496790E9442
:10281000B776E2EDF8EF0E940A790E94BF760C9439
:10282000401649E050E060E070E0A5E1B3E00D91B2
:102830001D912D913C91041715072607370781E05C
:1028400008F480E08F9343E650E060E070E0A5E19B
:10285000B3E00D911D912D913C91041715072607AA
:10286000370781E010F009F080E09F9189238823E9
:1028700011F40C94541488E080936F0581E18093E7
:102880007005882780937105E5E1F3E0A3E0BEE3DE
:102890000E9496790E94B776E2EDF8EF0E940A79DD
:1028A0000E94BF760C94401644E650E060E070E071
:1028B000A5E1B3E00D911D912D913C9104171507F1
:1028C0002607370781E008F480E08F9347EE53E056
:1028D00060E070E0A5E1B3E00D911D912D913C9178
:1028E000041715072607370781E010F009F080E08C
:1028F0009F918923882311F40C94971488E0809386
:102900006F058DE080937005882780937105E5E160
:10291000F3E0A3E0BEE30E9496790E94B776E2ED71
:10292000F8EF0E940A790E94BF760C94401648EE98
:1029300053E060E070E0A5E1B3E00D911D912D91B1
:102940003C91041715072607370781E008F480E05B
:102950008F934FE057E260E070E0A5E1B3E00D91A6
:102960001D912D913C91041715072607370781E02B
:1029700010F009F080E09F918923882311F40C94D2
:10298000DA1488E080936F0589E0809370058827CA
:1029900080937105E5E1F3E0A3E0BEE30E94967940
:1029A0000E94B776E2EDF8EF0E940A790E94BF76A6
:1029B0000C94401640E157E260E070E0A5E1B3E01E
:1029C0000D911D912D913C9104171507260737078E
:1029D00081E008F480E08F934FE956E861E070E011
:1029E000A5E1B3E00D911D912D913C9104171507C0
:1029F0002607370781E010F009F080E09F918923D6
:102A0000882311F40C941D1588E080936F0585E0F0
:102A100080937005882780937105E5E1F3E0A3E0DA
:102A2000BEE30E9496790E94B776E2EDF8EF0E942D
:102A30000A790E94BF760C94401640EA56E861E09D
:102A400070E0A5E1B3E00D911D912D913C9104172B
:102A500015072607370781E008F480E08F934FE3DE
:102A600052E46FE070E0A5E1B3E00D911D912D916E
:102A70003C91041715072607370781E010F009F08D
:102A800080E09F918923882311F40C94601588E0DD
:102A900080936F0581E0809370058827809371058E
:102AA000E5E1F3E0A3E0BEE30E9496790E94B776E9
:102AB000E2EDF8EF0E940A790E94BF760C9440166E
:102AC00040E452E46FE070E0A5E1B3E00D911D91A8
:102AD0002D913C91041715072607370781E008F46C
:102AE00080E08F934FE756E968E970E0A5E1B3E035
:102AF0000D911D912D913C9104171507260737075D
:102B000081E010F009F080E09F918923882311F47F
:102B10000C94A31588E080936F0581E08093700585
:102B2000882780937105E5E1F3E0A3E0BEE30E940E
:102B300096790E94B776EEEDF8EF0E940A790E942E
:102B4000BF760C94401640E856E968E970E0A5E1CC
:102B5000B3E00D911D912D913C91041715072607A7
:102B6000370781E008F480E08F934FEF50EE65EF78
:102B700075E0A5E1B3E00D911D912D913C910417F5
:102B800015072607370781E010F009F080E09F91D4
:102B90008923882311F40C94E61588E080936F054F
:102BA00081E080937005882780937105E5E1F3E06B
:102BB000A3E0BEE30E9496790E94B776EEEDF8EFAF
:102BC0000E940A790E94BF760C94401640E051EEB4
:102BD00065EF75E0A5E1B3E00D911D912D913C915C
:102BE000041715072607370781E008F480E08F9364
:102BF0004FEF59EC6AE97BE3A5E1B3E00D911D913C
:102C00002D913C91041715072607370781E010F036
:102C100009F080E09F918923882311F40C942916F0
:102C200088E080936F0581E080937005882780930A
:102C30007105E5E1F3E0A3E0BEE30E9496790E940E
:102C4000B776EEEDF8EF0E940A790E94BF760C94F9
:102C5000401688E080936F0581E080937005882797
:102C600080937105E5E1F3E0A3E0BEE30E9496796D
:102C70000E94B776EEEDF8EF0E940A790E94BF76C7
:102C80000C9488180091B602033011F00C94791856
:102C900040E050E060E070E0A0EEB2E00D911D91E8
:102CA0002D913C91041715072607370781E008F49A
:102CB00080E08F9349E050E060E070E0A0EEB2E089
:102CC0000D911D912D913C9104171507260737078B
:102CD00081E010F009F080E09F918923882311F4AE
:102CE0000C948B1688E080936F0581E280937005C9
:102CF000882780937105E0EEF2E0A3E0BEE30E9436
:102D000096790E94B776E8EEF8EF0E940A790E9461
:102D1000BF760C94771849E050E060E070E0A0EED8
:102D2000B2E00D911D912D913C91041715072607D6
:102D3000370781E008F480E08F9343E650E060E0DD
:102D400070E0A0EEB2E00D911D912D913C91041721
:102D500015072607370781E010F009F080E09F9102
:102D60008923882311F40C94CE1688E080936F0594
:102D70008DE180937005882780937105E0EEF2E085
:102D8000A3E0BEE30E9496790E94B776E8EEF8EFE2
:102D90000E940A790E94BF760C94771844E650E0AE
:102DA00060E070E0A0EEB2E00D911D912D913C919C
:102DB000041715072607370781E008F480E08F9392
:102DC00047EE53E060E070E0A0EEB2E00D911D919F
:102DD0002D913C91041715072607370781E010F065
:102DE00009F080E09F918923882311F40C94111736
:102DF00088E080936F0589E1809370058827809330
:102E00007105E0EEF2E0A3E0BEE30E9496790E9435
:102E1000B776E8EEF8EF0E940A790E94BF760C942C
:102E2000771848EE53E060E070E0A0EEB2E00D915C
:102E30001D912D913C91041715072607370781E056
:102E400008F480E08F934FE057E260E070E0A0EE7E
:102E5000B2E00D911D912D913C91041715072607A5
:102E6000370781E010F009F080E09F9189238823E3
:102E700011F40C94541788E080936F0585E18093DA
:102E80007005882780937105E0EEF2E0A3E0BEE3D1
:102E90000E9496790E94B776E8EEF8EF0E940A79D0
:102EA0000E94BF760C94771840E157E260E070E032
:102EB000A0EEB2E00D911D912D913C9104171507E4
:102EC0002607370781E008F480E08F934FE956E842
:102ED00061E070E0A0EEB2E00D911D912D913C916A
:102EE000041715072607370781E010F009F080E086
:102EF0009F918923882311F40C94971788E080937D
:102F00006F0581E180937005882780937105E0EE5D
:102F1000F2E0A3E0BEE30E9496790E94B776E8EE65
:102F2000F8EF0E940A790E94BF760C94771840EA65
:102F300056E861E070E0A0EEB2E00D911D912D9198
:102F40003C91041715072607370781E008F480E055
:102F50008F934FE352E46FE070E0A0EEB2E00D918A
:102F60001D912D913C91041715072607370781E025
:102F700010F009F080E09F918923882311F40C94CC
:102F8000DA1788E080936F058DE0809370058827BD
:102F900080937105E0EEF2E0A3E0BEE30E94967933
:102FA0000E94B776E8EEF8EF0E940A790E94BF7699
:102FB0000C94771840E452E46FE070E0A0EEB2E0C9
:102FC0000D911D912D913C91041715072607370788
:102FD00081E008F480E08F934FE756E968E970E0FC
:102FE000A0EEB2E00D911D912D913C9104171507B3
:102FF0002607370781E010F009F080E09F918923D0
:10300000882311F40C941D1888E080936F0589E0E3
:1030100080937005882780937105E0EEF2E0A3E0CD
:10302000BEE30E9496790E94B776E8EEF8EF0E9420
:103030000A790E94BF760C94771840E856E968E94F
:1030400070E0A0EEB2E00D911D912D913C9104171E
:1030500015072607370781E008F480E08F934FEFCC
:1030600050EE65EF75E0A0EEB2E00D911D912D914F
:103070003C91041715072607370781E010F009F087
:1030800080E09F918923882311F40C94601888E0D4
:1030900080936F0585E08093700588278093710584
:1030A000E0EEF2E0A3E0BEE30E9496790E94B776DC
:1030B000E8EEF8EF0E940A790E94BF760C94771828
:1030C00088E080936F0581E0809370058827809366
:1030D0007105E0EEF2E0A3E0BEE30E9496790E9463
:1030E000B776E8EEF8EF0E940A790E94BF760C945A
:1030F000881888E080936F0581E0809370058827A9
:1031000080937105E0EFF8EF0E940A790E94BF7684
:10311000ACE0B2E08C9181FB16F40C949E18009107
:10312000EF01013011F00C949C1882E08093EF01C4
:1031300084E690E00E9433770C94A31870910C02FF
:103140007D7F70930C020091EB01013011F00C9423
:10315000C5188AE090E0ACE1B1E08D939C9382E0E9
:103160008093EB0182E08093EE010091B60204307F
:1031700010F40C94C01880E08093B6020C94C5182B
:10318000A6EBB2E08C918F5F8C930091EE01013041
:1031900011F00C94E8188AE090E0ACE1B1E08D9376
:1031A0009C9382E08093EB0182E08093EE0100919A
:1031B000B602003018F011F00C94E31884E080930C
:1031C000B6020C94E818A6EBB2E08C9181508C9377
:1031D000ACE1B1E00D911C91003050E0150781E0A9
:1031E00010F009F080E08F934091B7020091B60291
:1031F000041781E009F480E09F918923882311F46A
:103200000C940E198091B6028093B702E7E3F0E0C8
:10321000A7EBB2E091E07BE70E94667A0091EC01B7
:10322000013011F00C94B1190091E701023081E0F6
:1032300009F080E08F930091E701033081E009F00D
:1032400080E09F91892B8F930091E701043081E00A
:1032500009F080E09F91892B8F930091E701053061
:1032600081E009F080E09F91892B8F930091E70125
:10327000063081E009F080E09F91892B882311F4CA
:103280000C94451981E08093E7010091E701083033
:1032900081E009F080E08F930091E701093081E03F
:1032A00009F080E09F91892B8F930091E7010A300C
:1032B00081E009F080E09F91892B8F930091E701D5
:1032C0000B3081E009F080E09F91892B8F93009172
:1032D000E7010C3081E009F080E09F91892B882381
:1032E00011F40C94761987E08093E7010091E701CF
:1032F0000E3081E009F080E08F930091E7010F30FC
:1033000081E009F080E09F91892B882311F40C94CF
:103310008C198DE08093E7010091E701023181E093
:1033200009F080E08F930091E701013181E009F01D
:1033300080E09F91892B882311F40C94A21980E1DD
:103340008093E70182E08093EC0182E090E0A3E6C5
:10335000B1E08D939C9384E690E00E9433770E94C5
:10336000A2770091EA01013011F00C94CE1982E0AD
:103370008093EA0182E08093F00182E08093EF0184
:1033800082E08093EB0182E08093EE0182E0809303
:10339000EC0182E08093ED010E94E2190091EF01BF
:1033A000013011F00C94DA1981E08093610282E01F
:1033B0008093EF0182E08093F00182E08093EA0144
:1033C000089508958091D4028093C8050091D40295
:1033D00041E0040FA9ECB5E00C9381E08093D802A2
:1033E00080E080938B0200919D01033611F00C94D4
:1033F000FC1980E080939D010E94A27781E0809378
:103400006F0581E080937005882780937105E2E065
:10341000F9EF0E940A790E94BF7686E080936F05DB
:1034200081E080937005882780937105E4E1F9EFCE
:103430000E940A790E94BF7687E080936F0581E041
:1034400080937005882780937105E4E2F9EF0E946C
:103450000A790E94BF7688E080936F0581E08093AF
:103460007005882780937105E4E3F9EF0E940A79DB
:103470000E94BF764091C8050091C905041711F458
:103480000C94B21A8091C8058093C9050091C905B2
:10349000003011F00C946C1A84E080936F0581E089
:1034A00080937005882780937105E8EBF6EF0E9402
:1034B0000A790E94BF7684E080936F0581E0809353
:1034C0007005882780937105E4E4F9EF0E940A797A
:1034D0000E94BF760C94B21A013011F00C94901A2D
:1034E00084E080936F0581E0809370058827809346
:1034F0007105E8EBF6EF0E940A790E94BF7684E03E
:1035000080936F0585E0809370058827809371050F
:10351000E6E5F9EF0E940A790E94BF760C94B21A90
:10352000023011F00C94B21A84E080936F0581E0B0
:1035300080937005882780937105E8EBF6EF0E9471
:103540000A790E94BF7684E080936F0585E08093BE
:103550007005882780937105E6E6F9EF0E940A79E5
:103560000E94BF760091EB01013011F00C94DD1A3E
:1035700082E08093EB0182E08093EE0182E0809311
:10358000EC0182E08093ED0182E08093EA0182E029
:103590008093F00182E08093EF010091C805023032
:1035A00011F00C94D81A80E08093C8050C94DD1AB1
:1035B000A8ECB5E08C918F5F8C930091EE01013007
:1035C00011F00C94081B82E08093EB0182E0809361
:1035D000EE0182E08093EC0182E08093ED0182E0D5
:1035E0008093EA0182E08093F00182E08093EF0112
:1035F0000091C805003011F00C94031B82E0809309
:10360000C8050C94081BA8ECB5E08C9181508C93F4
:103610000091F001013011F00C94621B82E0809364
:10362000EB0182E08093EE0182E08093EC0182E086
:103630008093ED0182E08093EA0182E08093F001C3
:1036400082E08093EF014091C8050091D4020417F5
:1036500011F40C94591B0091D402003011F00C9419
:10366000341B81E08093DA028091C8058093D402F4
:103670000091D402023011F40C943F1B1098009179
:10368000D402023011F00C94481B81E08093ED01CC
:103690000091D402013011F00C94511B81E0809311
:1036A000EF01E0E3F0E0A4EDB2E091E07BE70E94FF
:1036B000667A84E690E00E94337780E08093D802B7
:1036C0000C94911B0091EC01013081E009F080E045
:1036D0008F930091EA01013081E009F080E09F9131
:1036E000892B882311F40C948F1B82E08093EB01CB
:1036F00082E08093EE0182E08093EC0182E080938F
:10370000ED0182E08093EA0182E08093F00182E0A3
:103710008093EF0180E08093D8020C94911B0C946D
:103720003A1A0E94A27708950091A402013010F481
:103730000C949D1B82E680939D010091B902043692
:1037400010F40C94A61B81E680939D010091C502A4
:103750000E3110F40C94AF1B80E680939D01009114
:10376000C7020E3F10F40C94B81B8FE580939D01A7
:1037700000919D01033681E009F080E08F93009174
:103780009D010C3D81E009F080E09F91892B8F9392
:1037900000919D01023681E009F080E09F91892B24
:1037A000882311F40C94D61B0E94E34D00919D01D7
:1037B0000F3581E009F080E08F9300919D01003684
:1037C00081E009F080E09F91892B8F9300919D010A
:1037D000013681E009F080E09F91892B882311F464
:1037E0000C94F41B0E94E34D00E010E020E030E078
:1037F000A9E6B1E00D931D932D933C93ECE3F3E028
:10380000AAE9B2E00E94487A0E94365180E0809393
:1038100063028AE090E00E9433778091C70580932D
:103820006402A3E6B2E08C918F5F8C9300916302F7
:103830000A3010F40C941E1C0C94271C0091640296
:10384000003018F011F00C94271C0C94091C8AE02D
:1038500090E00E943377A9E4B1E088278C9380E060
:1038600090E0A7E6B1E08D939C930E94330AA7E60F
:10387000B1E00D911C91023350E015071CF011F0DE
:103880000C94441C0C944C1C84E690E00E9433770A
:103890000E94250A0C94431F81E00E9472788AE0FE
:1038A000A881B9818D9388278C93E881F981A5E659
:1038B000B1E00E94A27A0FB681E0481A80E0580A6F
:1038C00022960FBE11F00C94351CA9E4B1E00E94C1
:1038D0009A7A082F0F3011F00C94301E88E0E9E43A
:1038E000F1E004E00A93ADE6B1E00E944D7AADE666
:1038F000B1E00E942E7AA9E6B1E00D931D932D93BD
:103900003D9300919802033011F40C94AB1C40E1FC
:1039100050E060E070E0A9E6B1E00D911D912D91BD
:103920003C910E947D790CF002C00C94A91CA9E680
:10393000B1E00D911D912D913C9140E150E060E08E
:1039400070E00E947879A9E6B1E00D931D932D9364
:103950003D930C94171E40E050E860E070E0A9E64B
:10396000B1E00D911D912D913C910E947D790CF05B
:1039700002C00C94CF1CA9E6B1E00D911D912D91D0
:103980003C9140E050E860E070E00E947879A9E660
:10399000B1E00D931D932D933D930C94171E40E0C1
:1039A00050E460E070E00E947D790CF002C00C945D
:1039B000ED1CA9E6B1E00D911D912D913C9140E0E7
:1039C00050E460E070E00E947879A9E6B1E00D93E0
:1039D0001D932D933D930C94171E40E050E260E040
:1039E00070E00E947D790CF002C00C940B1DA9E6DA
:1039F000B1E00D911D912D913C9140E050E260E0CD
:103A000070E00E947879A9E6B1E00D931D932D93A3
:103A10003D930C94171E40E050E160E070E00E947E
:103A20007D790CF002C00C94291DA9E6B1E00D913E
:103A30001D912D913C9140E050E160E070E00E94CA
:103A40007879A9E6B1E00D931D932D933D930C94E5
:103A5000171E40E058E060E070E00E947D790CF0B5
:103A600002C00C94471DA9E6B1E00D911D912D9166
:103A70003C9140E058E060E070E00E947879A9E66F
:103A8000B1E00D931D932D933D930C94171E40E0D0
:103A900054E060E070E00E947D790CF002C00C946C
:103AA000651DA9E6B1E00D911D912D913C9140E07D
:103AB00054E060E070E00E947879A9E6B1E00D93EF
:103AC0001D932D933D930C94171E40E052E060E04F
:103AD00070E00E947D790CF002C00C94831DA9E671
:103AE000B1E00D911D912D913C9140E052E060E0DC
:103AF00070E00E947879A9E6B1E00D931D932D93B3
:103B00003D930C94171E40E051E060E070E00E948D
:103B10007D790CF002C00C94A11DA9E6B1E00D91D5
:103B20001D912D913C9140E051E060E070E00E94D9
:103B30007879A9E6B1E00D931D932D933D930C94F4
:103B4000171E40E850E060E070E00E947D790CF0C4
:103B500002C00C94BF1DA9E6B1E00D911D912D91FD
:103B60003C9140E850E060E070E00E947879A9E67E
:103B7000B1E00D931D932D933D930C94171E40E4DB
:103B800050E060E070E00E947D790CF002C00C947F
:103B9000DD1DA9E6B1E00D911D912D913C9140E410
:103BA00050E060E070E00E947879A9E6B1E00D9302
:103BB0001D932D933D930C94171E40E250E060E05E
:103BC00070E00E947D790CF002C00C94FB1DA9E608
:103BD000B1E00D911D912D913C9140E250E060E0EB
:103BE00070E00E947879A9E6B1E00D931D932D93C2
:103BF0003D930C94171E40E150E060E070E00E949D
:103C00007D790CF002C00C94171EA9E6B1E00D916D
:103C10001D912D913C9140E150E060E070E00E94E8
:103C20007879A9E6B1E00D931D932D933D9348E07B
:103C300050E060E070E0A9E6B1E00D911D912D919A
:103C40003C910E947D790CF402C00C94301E0E94BD
:103C5000250A70910C027F7E70930C020C94431F16
:103C60000E94250A00E010E020E030E0A9E6B1E083
:103C70000D931D932D933C93E1E4F3E0AAE9B2E0A8
:103C80000E94487A0E943651A9E4B1E088278C93BB
:103C900080E090E0A7E6B1E08D939C930E94330A08
:103CA000A7E6B1E00D911C91023350E015071CF01E
:103CB00011F00C945D1E0C94651E84E690E00E9449
:103CC00033770E94250A0C94431F81E00E9472788A
:103CD0008AE0A881B9818D9388278C93E881F98146
:103CE000A5E6B1E00E94A27A0FB681E0481A80E012
:103CF000580A22960FBE11F00C944E1EA9E4B1E0B2
:103D00000E949A7A082F0F3011F00C94401F82E025
:103D1000E9E4F1E00AE00A93A1EDB1E00E944D7AF6
:103D20000E944652E6EEF1E0A1EDB1E00E94157A64
:103D30008BE10E9472788CE0E9E4F1E002E00A9302
:103D4000A981BA810E944D7AE881F981A1EDB1E0A3
:103D50000E94A27A0FB68BE1481A80E0580A229698
:103D60000FBE11F00C94401F88E0E9E4F1E004E09C
:103D70000A93ADE6B1E00E944D7AADE6B1E00E9453
:103D80002E7AA9E6B1E00D931D932D933D9380917A
:103D9000690180939D0100919802023011F00C940A
:103DA000161F00919D01013081E008F480E08F939F
:103DB00000919D010D3281E010F009F080E09F91AB
:103DC00089238F9300919D01003281E009F480E006
:103DD0009F9189238F9300919D01013281E009F425
:103DE00080E09F9189238F9300919D01033081E0B2
:103DF00009F480E09F9189238F9300919D010A30FF
:103E000081E009F480E09F9189238F9300919D01C7
:103E10000A3181E009F480E09F918923882311F41D
:103E20000C94141F0E94E34D0C94351F00919D01CA
:103E3000023081E008F480E08F9300919D010D3302
:103E400081E010F009F080E09F9189238F93009129
:103E50009D010C3281E009F480E09F918923882341
:103E600011F40C94351F0E94E34D00919D01003028
:103E700011F00C94401F70910C027F7E70930C0225
:103E80000E94250A0895089584E690E00E94337701
:103E9000AFE2B1E088278C9382E080936F0581E0E8
:103EA00080937005882780937105E6E7F9EF0E94FB
:103EB0000A790E94BF7683E080936F0581E080934A
:103EC0007005882780937105E8E8F9EF0E940A7968
:103ED0000E94BF760091E701003011F00C94811F21
:103EE00084E080936F0581E080937005882780933C
:103EF0007105EAE9F9EF0E940A790E94BF760C94F5
:103F0000BB21013011F00C94961F84E080936F0563
:103F100081E080937005882780937105ECEAF9EFC2
:103F20000E940A790E94BF760C94BB21023011F0E6
:103F30000C94AB1F84E080936F0581E08093700543
:103F4000882780937105EEEBF9EF0E940A790E94B1
:103F5000BF760C94BB21033011F00C94C01F84E099
:103F600080936F0581E080937005882780937105A9
:103F7000E0EDF9EF0E940A790E94BF760C94BB2114
:103F8000053011F00C94D51F84E080936F0581E01B
:103F900080937005882780937105E2EEF9EF0E9407
:103FA0000A790E94BF760C94BB21063011F00C9464
:103FB000EA1F84E080936F0581E080937005882775
:103FC00080937105E4EFF9EF0E940A790E94BF76B1
:103FD0000C94BB21073011F00C94FF1F84E08093F8
:103FE0006F0581E080937005882780937105E6E076
:103FF000FAEF0E940A790E94BF760C94BB21083028
:1040000011F00C94142084E080936F0581E080937C
:104010007005882780937105E8E1FAEF0E940A791C
:104020000E94BF760C94BB21093011F00C9429201A
:1040300084E080936F0581E08093700588278093EA
:104040007105EAE2FAEF0E940A790E94BF760C94A9
:10405000BB210A3011F00C943E2084E080936F0560
:1040600081E080937005882780937105ECE3FAEF77
:104070000E940A790E94BF760C94BB210B3011F08C
:104080000C94532084E080936F0581E08093700549
:10409000882780937105EEE4FAEF0E940A790E9466
:1040A000BF760C94BB210C3011F00C94682084E096
:1040B00080936F0581E08093700588278093710558
:1040C000E0E6FAEF0E940A790E94BF760C94BB21C9
:1040D0000D3011F00C947D2084E080936F0581E019
:1040E00080937005882780937105E2E7FAEF0E94BC
:1040F0000A790E94BF760C94BB210E3011F00C940B
:10410000922084E080936F0581E08093700588277A
:1041100080937105E4E8FAEF0E940A790E94BF7665
:104120000C94BB210F3011F00C94A72084E08093F5
:104130006F0581E080937005882780937105E6E91B
:10414000FAEF0E940A790E94BF760C94BB210031DD
:1041500011F00C94BC2084E080936F0581E0809383
:104160007005882780937105E8EAFAEF0E940A79C2
:104170000E94BF760C94BB21013111F00C94D12028
:1041800084E080936F0581E0809370058827809399
:104190007105EAEBFAEF0E940A790E94BF760C944F
:1041A000BB21023111F00C94E62084E080936F056E
:1041B00081E080937005882780937105ECECFAEF1D
:1041C0000E940A790E94BF760C94BB21033111F042
:1041D0000C94FB2084E080936F0581E08093700550
:1041E000882780937105EEEDFAEF0E940A790E940C
:1041F000BF760C94BB21043111F00C94102184E0A3
:1042000080936F0581E08093700588278093710506
:10421000E0EFFAEF0E940A790E94BF760C94BB216E
:10422000053111F00C94252184E080936F0581E025
:1042300080937005882780937105E2E0FBEF0E9470
:104240000A790E94BF760C94BB21063111F00C94C0
:104250003A2184E080936F0581E080937005882780
:1042600080937105E4E1FBEF0E940A790E94BF761A
:104270000C94BB21083111F00C944F2184E0809301
:104280006F0581E080937005882780937105E6E2D1
:10429000FBEF0E940A790E94BF760C94BB21093182
:1042A00011F00C94642184E080936F0581E0809389
:1042B0007005882780937105E8E3FBEF0E940A7977
:1042C0000E94BF760C94BB210A3111F00C94792125
:1042D00084E080936F0581E0809370058827809348
:1042E0007105EAE4FBEF0E940A790E94BF760C9404
:1042F000BB21013611F00C948E2184E080936F0570
:1043000081E080937005882780937105ECE5FBEFD1
:104310000E940A790E94BF760C94BB21023611F0EC
:104320000C94A32184E080936F0581E08093700555
:10433000882780937105EEE6FBEF0E940A790E94C0
:10434000BF760C94BB21033611F00C94B82184E0A5
:1043500080936F0581E080937005882780937105B5
:10436000E0E8FBEF0E940A790E94BF760C94BB2123
:1043700081E08093E70185E080936F0581E0809381
:104380007005882780937105E2E9FBEF0E940A79A6
:104390000E94BF7687E080936F0581E0809370056F
:1043A000882780937105E4EAFBEF0E940A790E9456
:1043B000BF7688E080936F0581E080937005882741
:1043C00080937105E6EBFBEF0E940A790E94BF76AD
:1043D0004F9B0C94F02182E68093E7010C943723E5
:1043E0000091EB01013011F00C949A2282E080934D
:1043F000EB01A8E0B2E00D911C91073554E01507E0
:1044000011F00C940E220091E701033011F00C948E
:104410000E2281E68093E7010C9437230091E70197
:10442000033011F00C94192282E68093E7010C947A
:1044300037230091E701043111F00C94242282E12A
:104440008093E7010C9437230091E701003111F0CC
:104450000C942F228AE08093E7010C94372300917B
:10446000E701063111F00C943A2285E18093E701CF
:104470000C9437230091E7010A3111F00C94452286
:1044800089E18093E7010C943723A8E0B2E00D9115
:104490001C910F3057E2150711F00C947222009115
:1044A000E701033611F00C945A2280E08093E70173
:1044B0000C9437230091E701023611F00C94652229
:1044C00081E08093E7010C9437230091E7010930E4
:1044D00011F00C94702285E08093E7010C9437234F
:1044E0000C9493220091E701033611F00C947D2285
:1044F00081E08093E7010C9437230091E7010336B4
:1045000011F00C94882280E08093E7010C9437230B
:104510000091E701083011F00C94932285E080931C
:10452000E7010C943723A7EEB1E08C918F5F8C9359
:104530000C9437230091EE01013011F00C943723D5
:1045400082E08093EE01A8E0B2E00D911C91073566
:1045500054E0150711F00C94C3220091E7010136D5
:1045600011F00C94B82283E08093E7010C94372378
:104570000091E701023611F00C94C32281E680938A
:10458000E7010C9437230091E701023611F00C94F7
:10459000CE2283E08093E7010C9437230091E7015A
:1045A000023111F00C94D92284E18093E7010C943C
:1045B00037230091E7010A3011F00C94E42280E1E6
:1045C0008093E7010C9437230091E701053111F046
:1045D0000C94EF2286E18093E7010C94372300913D
:1045E000E701093111F00C94FA228AE18093E70186
:1045F0000C943723A8E0B2E00D911C910F3057E2E4
:10460000150711F00C941C230091E701003011F004
:104610000C940F2383E68093E7010C9437230091D9
:10462000E701053011F00C941A2389E08093E7012B
:104630000C9437230C9432230091E701013011F0E0
:104640000C94272383E68093E7010C943723009191
:10465000E701053011F00C94322388E08093E701E4
:104660000C943723A7EEB1E08C9181508C9300918C
:10467000F001013011F00C943A2D82E08093F001AA
:104680000091E701013011F00C944B2385E08093F9
:10469000E7010C9437230091E701023011F00C94EC
:1046A00056238AE08093E7010C9437230091E701B9
:1046B000033011F00C94612382E18093E7010C94A4
:1046C00037230091E701033111F00C946C2385E14D
:1046D0008093E7010C9437230091E701083111F032
:1046E0000C94772389E18093E7010C9437230091A0
:1046F000E701093111F00C944E2780EF90E0A8E11A
:10470000B1E08D939C930E94A27781E080936F0526
:1047100085E080937005882780937105E8ECFBEFB6
:104720000E940A790E94BF7682E080936F0581E043
:1047300080937005882780937105E8EDFBEF0E9458
:104740000A790E94BF7683E080936F0581E08093B1
:104750007005882780937105EAEEFBEF0E940A79C5
:104760000E94BF7687E080936F0581E0809370059B
:10477000882780937105ECEFFBEF0E940A790E9475
:10478000BF7688E080936F0585E080937005882769
:1047900080937105ECE0FCEF0E940A790E94BF76DD
:1047A00085E080936F0581E0809370058827809372
:1047B0007105E8EBF6EF0E940A790E94BF7640E0AF
:1047C00050E060E070E0A0EEB2E00D911D912D91FF
:1047D0003C91041715072607370781E008F480E0AD
:1047E0008F9349E050E060E070E0A0EEB2E00D9100
:1047F0001D912D913C91041715072607370781E07D
:1048000010F009F080E09F918923882311F40C9423
:104810001C2485E080936F058DE3809370058827C5
:1048200080937105E0EEF2E0A3E0BEE30E9496798A
:104830000E94B7760C94152649E050E060E070E0E5
:10484000A0EEB2E00D911D912D913C91041715073A
:104850002607370781E008F480E08F9343E650E0B5
:1048600060E070E0A0EEB2E00D911D912D913C91C1
:10487000041715072607370781E010F009F080E0DC
:104880009F918923882311F40C94592485E0809307
:104890006F0589E380937005882780937105E0EEAA
:1048A000F2E0A3E0BEE30E9496790E94B7760C94F2
:1048B000152644E650E060E070E0A0EEB2E00D9115
:1048C0001D912D913C91041715072607370781E0AC
:1048D00008F480E08F9347EE53E060E070E0A0EED4
:1048E000B2E00D911D912D913C91041715072607FB
:1048F000370781E010F009F080E09F918923882339
:1049000011F40C94962485E080936F0585E38093E1
:104910007005882780937105E0EEF2E0A3E0BEE326
:104920000E9496790E94B7760C94152648EE53E0C3
:1049300060E070E0A0EEB2E00D911D912D913C91F0
:10494000041715072607370781E008F480E08F93E6
:104950004FE057E260E070E0A0EEB2E00D911D91F3
:104960002D913C91041715072607370781E010F0B9
:1049700009F080E09F918923882311F40C94D324BB
:1049800085E080936F0581E380937005882780938D
:104990007105E0EEF2E0A3E0BEE30E9496790E948A
:1049A000B7760C94152640E157E260E070E0A0EE87
:1049B000B2E00D911D912D913C910417150726072A
:1049C000370781E008F480E08F934FE956E861E013
:1049D00070E0A0EEB2E00D911D912D913C91041775
:1049E00015072607370781E010F009F080E09F9156
:1049F0008923882311F40C94102585E080936F059A
:104A00008DE280937005882780937105E0EEF2E0D7
:104A1000A3E0BEE30E9496790E94B7760C94152617
:104A200040EA56E861E070E0A0EEB2E00D911D9121
:104A30002D913C91041715072607370781E008F4EC
:104A400080E08F934FE352E46FE070E0A0EEB2E0BD
:104A50000D911D912D913C910417150726073707DD
:104A600081E010F009F080E09F918923882311F400
:104A70000C944D2585E080936F0589E28093700545
:104A8000882780937105E0EEF2E0A3E0BEE30E9488
:104A900096790E94B7760C94152640E452E46FE0B4
:104AA00070E0A0EEB2E00D911D912D913C910417A4
:104AB00015072607370781E008F480E08F934FE75A
:104AC00056E968E970E0A0EEB2E00D911D912D91DC
:104AD0003C91041715072607370781E010F009F00D
:104AE00080E09F918923882311F40C948A2585E026
:104AF00080936F0585E28093700588278093710508
:104B0000E0EEF2E0A3E0BEE30E9496790E94B77661
:104B10000C94152640E856E968E970E0A0EEB2E092
:104B20000D911D912D913C9104171507260737070C
:104B300081E008F480E08F934FEF50EE65EF75E071
:104B4000A0EEB2E00D911D912D913C910417150737
:104B50002607370781E010F009F080E09F91892354
:104B6000882311F40C94C72585E080936F0581E2BA
:104B700080937005882780937105E0EEF2E0A3E052
:104B8000BEE30E9496790E94B7760C94152640E009
:104B900051EE65EF75E0A0EEB2E00D911D912D9103
:104BA0003C91041715072607370781E008F480E0D9
:104BB0008F934FEF59EC6AE97BE3A0EEB2E00D91E1
:104BC0001D912D913C91041715072607370781E0A9
:104BD00010F009F080E09F918923882311F40C9450
:104BE000042685E080936F058DE18093700588270A
:104BF00080937105E0EEF2E0A3E0BEE30E949679B7
:104C00000E94B7760C94152685E080936F0589E1A4
:104C100080937005882780937105E0EEF2E0A3E0B1
:104C2000BEE30E9496790E94B776A8E1B1E00D91AB
:104C30001C91003050E0150781E010F009F080E091
:104C40008F930091F001013081E009F080E09F91A5
:104C5000892B8F930091EF01013081E009F080E012
:104C60009F91892B8F930091EC01013081E009F035
:104C700080E09F91892B882311F40C9448270E948F
:104C8000A27782E08093EA0182E08093EB0182E0E8
:104C90008093EE0182E08093EC010091EF010130FE
:104CA00011F00C94192781E080936F0581E08093C7
:104CB0007005882780937105ECE1FCEF0E940A796A
:104CC0000E94BF7682E080936F0585E08093700537
:104CD000882780937105ECE2FCEF0E940A790E941C
:104CE000BF7684E080936F0581E08093700588270C
:104CF00080937105ECE3FCEF0E940A790E94BF7675
:104D000085E080936F0585E0809370058827809308
:104D10007105ECE4FCEF0E940A790E94BF7687E0FF
:104D200080936F0585E080937005882780937105D7
:104D3000ECE5FCEF0E940A790E94BF7688E0809340
:104D40006F0585E080937005882780937105ECE6F8
:104D5000FCEF0E940A790E94BF76E1E0F0E00E9439
:104D6000C6760091F001013011F00C94002782E02A
:104D70008093F00182E08093EA0182E08093EB016E
:104D800082E08093EE0182E08093EC018AE090E083
:104D9000A0E1B1E08D939C9300E010E020E030E0D2
:104DA000A0EEB2E00D931D932D933C9380E090E034
:104DB000AEEDB2E08D939C9381E08093E40200918C
:104DC000E402083118F011F00C94FC2680E090E029
:104DD000A4EEB2E0AD90BB24A3EEB2E0AA0CBB1CE3
:104DE000AA0DBB1D8D939C93A4EEB2E08C918F5FB6
:104DF0008C9310F40C94DF260C9419270C9417272D
:104E00000091EC01013011F00C94172782E080939F
:104E1000F00182E08093EA0182E08093EB0182E07E
:104E20008093EE0182E08093EC010C9419270C949E
:104E3000532682E08093EF01A8E1B1E00D911C912F
:104E4000003050E0150781E010F009F080E08F930A
:104E50000091F001013081E009F080E09F91892B01
:104E6000882311F40C94412782E08093EC0182E0C6
:104E70008093F00180E090E0A3E6B1E08D939C93F5
:104E8000089582E08093F0010C9437230C944E2710
:104E9000E1E0F0E00E94C6760C94D0230091E70197
:104EA0000A3111F00C94502A80EF90E0A8E1B1E0B3
:104EB0008D939C930E94A27781E080936F0585E09B
:104EC00080937005882780937105ECE7FCEF0E94C2
:104ED0000A790E94BF7682E080936F0585E0809317
:104EE0007005882780937105ECE8FCEF0E940A7931
:104EF0000E94BF7683E080936F0585E08093700504
:104F0000882780937105ECE9FCEF0E940A790E94E2
:104F1000BF7688E080936F0581E0809370058827D5
:104F200080937105ECE4FCEF0E940A790E94BF7641
:104F300087E080936F0585E08093700588278093D4
:104F40007105ECEAFCEF0E940A790E94BF7685E0C9
:104F500080936F0581E080937005882780937105A9
:104F6000E8EBF6EF0E940A790E94BF7640E050E03D
:104F700060E070E0A5E1B3E00D911D912D913C91B1
:104F8000041715072607370781E008F480E08F93A0
:104F900049E050E060E070E0A5E1B3E00D911D91C3
:104FA0002D913C91041715072607370781E010F073
:104FB00009F080E09F918923882311F40C94F32752
:104FC00085E080936F058DE380937005882780933B
:104FD0007105E5E1F3E0A3E0BEE30E9496790E944B
:104FE000B7760C94EC2949E050E060E070E0A5E170
:104FF000B3E00D911D912D913C91041715072607E3
:10500000370781E008F480E08F9343E650E060E0EA
:1050100070E0A5E1B3E00D911D912D913C91041735
:1050200015072607370781E010F009F080E09F910F
:105030008923882311F40C94302885E080936F0530
:1050400089E380937005882780937105E5E1F3E09B
:10505000A3E0BEE30E9496790E94B7760C94EC29F7
:1050600044E650E060E070E0A5E1B3E00D911D91F1
:105070002D913C91041715072607370781E008F4A6
:1050800080E08F9347EE53E060E070E0A5E1B3E08D
:105090000D911D912D913C91041715072607370797
:1050A00081E010F009F080E09F918923882311F4BA
:1050B0000C946D2885E080936F0585E380937005DF
:1050C000882780937105E5E1F3E0A3E0BEE30E9449
:1050D00096790E94B7760C94EC2948EE53E060E094
:1050E00070E0A5E1B3E00D911D912D913C91041765
:1050F00015072607370781E008F480E08F934FE01B
:1051000057E260E070E0A5E1B3E00D911D912D91B3
:105110003C91041715072607370781E010F009F0C6
:1051200080E09F918923882311F40C94AA2885E0BC
:1051300080936F0581E380937005882780937105C4
:10514000E5E1F3E0A3E0BEE30E9496790E94B77622
:105150000C94EC2940E157E260E070E0A5E1B3E097
:105160000D911D912D913C910417150726073707C6
:1051700081E008F480E08F934FE956E861E070E049
:10518000A5E1B3E00D911D912D913C9104171507F8
:105190002607370781E010F009F080E09F9189230E
:1051A000882311F40C94E72885E080936F058DE245
:1051B00080937005882780937105E5E1F3E0A3E013
:1051C000BEE30E9496790E94B7760C94EC2940EADF
:1051D00056E861E070E0A5E1B3E00D911D912D91DD
:1051E0003C91041715072607370781E008F480E093
:1051F0008F934FE352E46FE070E0A5E1B3E00D91CF
:105200001D912D913C91041715072607370781E062
:1052100010F009F080E09F918923882311F40C9409
:10522000242985E080936F0589E2809370058827A3
:1052300080937105E5E1F3E0A3E0BEE30E94967977
:105240000E94B7760C94EC2940E452E46FE070E0E1
:10525000A5E1B3E00D911D912D913C910417150727
:105260002607370781E008F480E08F934FE756E97F
:1052700068E970E0A5E1B3E00D911D912D913C919D
:10528000041715072607370781E010F009F080E0C2
:105290009F918923882311F40C94612985E08093E0
:1052A0006F0585E280937005882780937105E5E19D
:1052B000F3E0A3E0BEE30E9496790E94B7760C94D7
:1052C000EC2940E856E968E970E0A5E1B3E00D910A
:1052D0001D912D913C91041715072607370781E092
:1052E00008F480E08F934FEF50EE65EF75E0A5E195
:1052F000B3E00D911D912D913C91041715072607E0
:10530000370781E010F009F080E09F91892388231E
:1053100011F40C949E2985E080936F0581E28093BF
:105320007005882780937105E5E1F3E0A3E0BEE313
:105330000E9496790E94B7760C94EC2940E051EED9
:1053400065EF75E0A5E1B3E00D911D912D913C91C4
:10535000041715072607370781E008F480E08F93CC
:105360004FEF59EC6AE97BE3A5E1B3E00D911D91A4
:105370002D913C91041715072607370781E010F09F
:1053800009F080E09F918923882311F40C94DB2994
:1053900085E080936F058DE1809370058827809369
:1053A0007105E5E1F3E0A3E0BEE30E9496790E9477
:1053B000B7760C94EC2985E080936F0589E18093A2
:1053C0007005882780937105E5E1F3E0A3E0BEE373
:1053D0000E9496790E94B776A8E1B1E00D911C91E8
:1053E000003050E0150781E010F009F080E08F9365
:1053F0000091F001013081E009F080E09F91892B5C
:105400008F930091EC01013081E009F080E09F91E1
:10541000892B882311F40C944A2A0E94A27782E0F7
:105420008093EA0182E08093EB0182E08093EE01B9
:1054300082E08093EC0182E08093EF01A8E1B1E08B
:105440000D911C91003050E0150781E010F009F03B
:1054500080E08F930091F001013081E009F080E05D
:105460009F91892B882311F40C94432A82E0809326
:10547000EC0182E08093F00180E090E0A3E6B1E0EF
:105480008D939C93089582E08093F0010C943723D0
:105490000C94502AE1E0F0E00E94C6760C94A72715
:1054A000A3EFB1E088278C93AEE9B1E088278C9315
:1054B000AFEAB1E088278C93A0ECB1E088278C9309
:1054C0000091E701003011F00C94902AA3EFB1E0B5
:1054D000ECEBFCEF0E940A790E94A578AEE9B1E0FE
:1054E000EAECFCEF0E940A790E94A578AFEAB1E0ED
:1054F000EAEDFCEF0E940A790E94A578A0ECB1E0E9
:10550000E8EEFCEF0E940A790E94A578ACE8B1E0D1
:10551000EAE3F6EF0E940A790E94A5780C94302DF8
:10552000053011F00C94AC2AA3EFB1E0E6EFFCEFEC
:105530000E940A790E94A578AFEAB1E0E8E0FDEFA9
:105540000E940A790E94A578E7E3F2E0ACE8B1E0B6
:105550000E9490790C94302D063011F00C94C82ADA
:10556000A3EFB1E0E6E1FDEF0E940A790E94A57881
:10557000AFEAB1E0E8E0FDEF0E940A790E94A57869
:10558000E9E3F2E0ACE8B1E00E9490790C94302DB0
:10559000073011F00C94E42AAEE9B1E0E8E2FDEF47
:1055A0000E940A790E94A578AFEAB1E0E8E3FDEF36
:1055B0000E940A790E94A578EBE3F2E0ACE8B1E042
:1055C0000E9490790C94302D083011F00C94002B2F
:1055D000AEE9B1E0E4E4FDEF0E940A790E94A5780B
:1055E000AFEAB1E0E8E3FDEF0E940A790E94A578F6
:1055F000EFE3F2E0ACE8B1E00E9490790C94302D3A
:10560000093011F00C941F2BA3EFB1E0E4E5FDEF9E
:105610000E940A790E94A578AFEAB1E0E2E6FDEFC8
:105620000E940A790E94A578EEE4F2E0ACE8B1E0CD
:105630000E94A07985E68093E7010C94302D0A3012
:1056400011F00C944B2BAEE9B1E0E0E7FDEF0E94C6
:105650000A790E94A57800911E03003011F00C9485
:105660003B2BAFEAB1E0E0E8FDEF0E940A790E942F
:10567000A5780C94432BAFEAB1E0E0E9FDEF0E947E
:105680000A790E94A578EAEAF2E0ACE8B1E00E946B
:1056900090790C94302D0B3011F00C94772BAEE9EF
:1056A000B1E0E0EAFDEF0E940A790E94A57800913E
:1056B0001E03003011F00C94672BAFEAB1E0E0E874
:1056C000FDEF0E940A790E94A5780C946F2BAFEA37
:1056D000B1E0E0E9FDEF0E940A790E94A578ECEACA
:1056E000F2E0ACE8B1E00E9490790C94302D0C30DF
:1056F00011F00C94A32BAEE9B1E0E0EBFDEF0E94BA
:105700000A790E94A57800911E03003011F00C94D4
:10571000932BAFEAB1E0E0E8FDEF0E940A790E9426
:10572000A5780C949B2BAFEAB1E0E0E9FDEF0E9475
:105730000A790E94A578EEEAF2E0ACE8B1E00E94B6
:1057400090790C94302D0D3011F00C94CF2BAEE9E4
:10575000B1E0E0ECFDEF0E940A790E94A57800918B
:105760001E03003011F00C94BF2BAFEAB1E0E0E86B
:10577000FDEF0E940A790E94A5780C94C72BAFEA2E
:10578000B1E0E0E9FDEF0E940A790E94A578E0EB24
:10579000F2E0ACE8B1E00E9490790C94302D0E302C
:1057A00011F00C94F32BA3EFB1E0E0EDFDEF0E94BC
:1057B0000A790E94A578AEE9B1E0E0EEFDEF0E9423
:1057C0000A790E94A578AFEAB1E0E0EFFDEF0E9410
:1057D0000A790E94A578E2EBF2E0ACE8B1E00E9421
:1057E000A0790C94302D0F3011F00C940F2CAEE9F1
:1057F000B1E0E0E0FEEF0E940A790E94A578AFEAEE
:10580000B1E0E0E1FEEF0E940A790E94A578EFEB9B
:10581000F2E0ACE8B1E00E94A0790C94302D0031A8
:1058200011F00C942B2CAEE9B1E0E0E2FEEF0E9407
:105830000A790E94A578AFEAB1E0E0E1FEEF0E94AC
:105840000A790E94A578E0ECF2E0ACE8B1E00E94B1
:10585000A0790C94302D013111F00C944A2CA3EF57
:10586000B1E0E0E3FEEF0E940A790E94A578AFEA7A
:10587000B1E0E0E4FEEF0E940A790E94A578EFE42F
:10588000F2E0ACE8B1E00E94A07989E68093E701FC
:105890000C94302D023111F00C94762CA3EFB1E072
:1058A000E0E3FEEF0E940A790E94A57800911E03B2
:1058B000003011F00C94662CAEE9B1E0E0E5FEEFAB
:1058C0000E940A790E94A5780C946E2CAEE9B1E092
:1058D000E0E6FEEF0E940A790E94A578E1ECF2E092
:1058E000ACE8B1E00E9490790C94302D043111F0B5
:1058F0000C949A2CA3EFB1E0E0E7FEEF0E940A7946
:105900000E94A578AEE9B1E0E2E8FEEF0E940A79D4
:105910000E94A578AFEAB1E0E4E9FEEF0E940A79BF
:105920000E94A578E3ECF2E0ACE8B1E00E94A07937
:105930000C94302D053111F00C94B62CA3EFB1E08E
:10594000E6EAFEEF0E940A790E94A578AEE9B1E08E
:10595000E8EBFEEF0E940A790E94A578E7E9F2E001
:10596000ACE8B1E00E94A0790C94302D063111F022
:105970000C94DA2CA3EFB1E0EAECFEEF0E940A7976
:105980000E94A578AEE9B1E0ECEDFEEF0E940A7945
:105990000E94A578AFEAB1E0EEEEFEEF0E940A7930
:1059A0000E94A578EAE8F2E0ACE8B1E00E94A079B4
:1059B0000C94302D013611F00C94FE2CA3EFB1E0C5
:1059C000E0E0FFEF0E940A790E94A578AEE9B1E01D
:1059D000E2E1FFEF0E940A790E94A578AFEAB1E008
:1059E000E2E2FFEF0E940A790E94A578EEE1F3E07F
:1059F000ACE8B1E00E94A0790C94302D023611F091
:105A00000C940E2D84E090E0A3E6B1E08D939C937E
:105A10000E94A2770C944F2E0C94302D033611F077
:105A20000C94302DA3EFB1E0E2E3FFEF0E940A797E
:105A30000E94A578AEE9B1E0EEE3FFEF0E940A799B
:105A40000E94A578AFEAB1E0ECE4FFEF0E940A798A
:105A50000E94A578E8E0F2E0ACE8B1E00E9490791D
:105A60000E94502E83E090E0A3E6B1E08D939C93DA
:105A70000E94A2770091EC01013011F00C944A2EA3
:105A800082E08093EA0182E08093EC010091E901D9
:105A9000043111F00C94462E0091E701053181E0AC
:105AA00009F080E08F930091E701063181E009F071
:105AB00080E09F91892B882311F40C946A2D83E157
:105AC0008093E70182E090E0A3E6B1E08D939C93A0
:105AD0000C9437230091E701013181E009F080E067
:105AE0008F930091E701023181E009F080E09F91FE
:105AF000892B8F930091E701033181E009F080E069
:105B00009F91892B8F930091E701043181E009F087
:105B100080E09F91892B882311F40C949A2D83E0C7
:105B20008093E70182E090E0A3E6B1E08D939C933F
:105B30000C9437230091E7010A3081E009F080E0FE
:105B40008F930091E7010B3081E009F080E09F9195
:105B5000892B8F930091E7010C3081E009F080E000
:105B60009F91892B8F930091E7010D3081E009F01F
:105B700080E09F91892B8F930091E7010E3081E0A7
:105B800009F080E09F91892B8F930091E7010F30FE
:105B900081E009F080E09F91892B8F930091E701CC
:105BA000003181E009F080E09F91892B882311F476
:105BB0000C94E52D82E08093E70182E090E0A3E67B
:105BC000B1E08D939C930C9437230091E70105304D
:105BD00081E009F080E08F930091E701063081E0D9
:105BE00009F080E09F91892B8F930091E7010730A6
:105BF00081E009F080E09F91892B8F930091E7016C
:105C0000083081E009F080E09F91892B8F9300910B
:105C1000E701093081E009F080E09F91892B88231A
:105C200011F40C941E2E81E08093E70182E090E055
:105C3000A3E6B1E08D939C930C9437230091E70188
:105C4000093181E009F080E08F930091E7010A318A
:105C500081E009F080E09F91892B882311F40C9456
:105C60003C2E88E18093E70182E090E0A3E6B1E07A
:105C70008D939C930C94372380E090E0A3E6B1E0F1
:105C80008D939C930E94A2770C944A2E81E080937E
:105C9000D902089584E690E00E943377089508952C
:105CA000ACE8B1E00E94E679A1EFB1E00D931C935E
:105CB000ACE8B1E00E949A7A082F043011F00C94FD
:105CC000692EE1EFF1E0ACE8B1E00E9499790C9423
:105CD000A92E033011F00C947F2EACE8B1E0E8E57A
:105CE000FFEF0E940A790E94A578E1EFF1E0ACE8AD
:105CF000B1E00E9449760E9499790C94A92E023055
:105D000011F00C94952EACE8B1E0EAE5FFEF0E94AB
:105D10000A790E94A578E1EFF1E0ACE8B1E00E94D9
:105D200049760E9499790C94A92E013011F00C94B7
:105D3000A92EACE8B1E0EEE5FFEF0E940A790E94DF
:105D4000A578E1EFF1E0ACE8B1E00E9449760E946D
:105D5000997981E0ECE8F1E001E00A93A1E9B1E092
:105D60000E944D7A82E0ECE8F1E001E00A93A3E9B9
:105D7000B1E00E944D7A83E0ECE8F1E001E00A93A3
:105D8000A5E9B1E00E944D7A84E0ECE8F1E001E0A1
:105D90000A93A7E9B1E00E944D7A0895089581E041
:105DA00080936F0581E0809370058827809371054B
:105DB000A3EFB1E00E94B97682E080936F0581E0A5
:105DC00080937005882780937105AEE9B1E00E9449
:105DD000B97683E080936F0581E080937005882712
:105DE00080937105AFEAB1E00E94B97684E08093B8
:105DF0006F0581E080937005882780937105A0EC82
:105E0000B1E00E94B9760091E701003081E009F02D
:105E100080E08F930091E701053181E009F080E097
:105E20009F91892B8F930091E701013681E009F062
:105E300080E09F91892B882311F40C94BE2F84E07D
:105E40008093E8010091E701003011F00C94522F8B
:105E5000A1EFB1E00D911C91013050E0150711F058
:105E60000C94432F85E080936F0581E0809370054B
:105E7000882780937105E2E6FFEF0E940A790E946D
:105E8000BF760C94522F85E080936F0581E080935C
:105E90007005882780937105ECE6FFEF0E940A7970
:105EA0000E94BF760091E701053111F00C94822F1A
:105EB000A1EFB1E00D911C91013050E0150711F0F8
:105EC0000C94732F85E080936F0581E080937005BB
:105ED000882780937105E6E7FFEF0E940A790E9408
:105EE000BF760C94822F85E080936F0581E08093CC
:105EF0007005882780937105E6E8FFEF0E940A7914
:105F00000E94BF760091E701013611F00C94BC2F7E
:105F1000A1EFB1E00D911C91003050E0150711F098
:105F20000C94A32F85E080936F0585E08093700526
:105F3000882780937105E6E9FFEF0E940A790E94A5
:105F4000BF760C94BC2FA1EFB1E00D911C910130F4
:105F500050E0150711F00C94BC2F85E080936F057D
:105F600085E080937005882780937105E6EAFFEF4E
:105F70000E940A790E94BF760C94593185E0809383
:105F80006F0581E080937005882780937105EAEDA5
:105F9000F6EF0E940A790E94BF760091E7010A306D
:105FA00081E009F080E08F930091E7010B3081E000
:105FB00009F080E09F91892B8F930091E7010C30CD
:105FC00081E009F080E09F91892B8F930091E70198
:105FD0000D3081E009F080E09F91892B8F93009133
:105FE000E701023181E009F080E09F91892B88234D
:105FF00011F40C947F3000911E03003011F00C94CA
:10600000403085E080936F0581E08093700588279C
:1060100080937105E4EAF8EF0E940A790E94BF7646
:10602000A1E9B1E00E94B976E8E4F7EF0E940A79AD
:106030000E94BF76A3E9B1E00E94B976E8E4F7EFE9
:106040000E940A790E94BF76A5E9B1E00E94B97664
:10605000E8E4F7EF0E940A790E94BF76A7E9B1E071
:106060000E94B976E8E4F7EF0E940A790E94BF76B1
:10607000E6EBFFEF0E940A790E94BF760C947D3018
:1060800085E080936F0581E0809370058827809379
:106090007105E4EAF8EF0E940A790E94BF76A1E94F
:1060A000B1E00E94B976E8E4F7EF0E940A790E9415
:1060B000BF76A3E9B1E00E94B976E8E4F7EF0E9469
:1060C0000A790E94BF76A5E9B1E00E94B976E8E4BA
:1060D000F7EF0E940A790E94BF76A7E9B1E00E941B
:1060E000B976E8E4F7EF0E940A790E94BF76ECEBFC
:1060F000FFEF0E940A790E94BF760C94FC30009159
:10610000E7010F3081E009F080E08F930091E70113
:10611000003181E009F080E09F91892B882311F400
:106120000C94C53085E080936F0581E08093700505
:10613000882780937105E4EAF8EF0E940A790E94AB
:10614000BF76A1E9B1E00E94B976E8E4F7EF0E94DA
:106150000A790E94BF76A3E9B1E00E94B976E8E42B
:10616000F7EF0E940A790E94BF76A5E9B1E00E948C
:10617000B976E8E4F7EF0E940A790E94BF76A7E9B2
:10618000B1E00E94B9760C94FC3085E080936F05F5
:1061900081E080937005882780937105E4EAF8EF29
:1061A0000E940A790E94BF76A1E9B1E00E94B97607
:1061B000E8E4F7EF0E940A790E94BF76A3E9B1E014
:1061C0000E94B976E8E4F7EF0E940A790E94BF7650
:1061D000A5E9B1E00E94B976E8E4F7EF0E940A79F8
:1061E0000E94BF76A7E9B1E00E94B976E4EAF8EF31
:1061F0000E940A790E94BF760091E801013010F0F8
:106200000C94053184E08093E8010091E8010430AA
:1062100011F00C941C3186E080936F0581E080932F
:106220007005882780937105E2ECFFEF0E940A79E0
:106230000E94BF760C945931033011F00C94313127
:1062400086E080936F0581E08093700588278093B6
:106250007105EEECFFEF0E940A790E94BF760C9464
:106260005931023011F00C94463186E080936F056D
:1062700081E080937005882780937105EAEDFFEF38
:106280000E940A790E94BF760C945931013011F0B6
:106290000C94593186E080936F0581E080937005FE
:1062A000882780937105E6EEFFEF0E940A790E942D
:1062B000BF7687E080936F0581E080937005882723
:1062C00080937105E2EFFFEF0E940A790E94BF768A
:1062D00088E080936F0581E0809370058827809324
:1062E0007105E0E0F0E00E9404790E94BF76009121
:1062F000E701003011F00C948B3181E090E0A9E9C6
:10630000B1E08D939C9380E090E0ABE9B1E08D9398
:106310009C930C947B340091E701053081E008F4F4
:1063200080E08F930091E701063081E010F009F0E2
:1063300080E09F918923882311F40C94BC3185E07F
:1063400080936F058AE48093700588278093710598
:10635000EEE0F0E00E9404790E94BF7680EB94E0CA
:10636000A9E9B1E08D939C938AE090E0ABE9B1E0BC
:106370008D939C930C947B34073011F00C94D031A6
:10638000AFE3B2E08D919C91A9E9B1E08D939C932C
:1063900080E090E0ABE9B1E08D939C930C947B346A
:1063A000083011F00C94E83102E010E0A8E5B2E00A
:1063B0004D915C910E947878A9E9B1E00D931C930E
:1063C00080E090E0ABE9B1E08D939C930C947B343A
:1063D0000091E7010A3081E008F480E08F9300919A
:1063E000E7010B3081E010F009F080E09F918923F4
:1063F000882311F40C943C3200911E03013011F0FB
:106400000C941F3288E894E0A9E9B1E08D939C9345
:1064100085E080936F0589E48093700588278093D9
:106420007105EEE0F0E00E9404790E94BF7684E1FD
:1064300090E0ABE9B1E08D939C930C943A3280E20A
:1064400093E0A9E9B1E08D939C9385E080936F057B
:1064500089E380937005882780937105EEE0F0E072
:106460000E9404790E94BF768AE090E0ABE9B1E037
:106470008D939C930C947B340C3011F00C948032EF
:1064800000911E03013011F00C94633285E080937B
:106490006F0589E480937005882780937105EEE08D
:1064A000F0E00E9404790E94BF7686E490E0A9E9BA
:1064B000B1E08D939C9381E090E0ABE9B1E08D93E6
:1064C0009C930C947E3285E080936F0589E38093E2
:1064D0007005882780937105EEE0F0E00E94047952
:1064E0000E94BF7682E390E0A9E9B1E08D939C938E
:1064F00081E090E0ABE9B1E08D939C930C947B3408
:106500000D3011F00C94C43200911E03013011F0D3
:106510000C94A73285E080936F0589E48093700521
:10652000882780937105EEE0F0E00E9404790E94D4
:10653000BF7688E191E0A9E9B1E08D939C9384E175
:1065400090E0ABE9B1E08D939C930C94C23285E06E
:1065500080936F0589E38093700588278093710588
:10656000EEE0F0E00E9404790E94BF7688EC90E0B3
:10657000A9E9B1E08D939C9384E190E0ABE9B1E0AF
:106580008D939C930C947B340E3011F00C94D63286
:1065900085E090E0A9E9B1E08D939C9380E090E0E4
:1065A000ABE9B1E08D939C930C947B340F3011F0E8
:1065B0000C94E83288E790E0A9E9B1E08D939C93D0
:1065C00085E090E0ABE9B1E08D939C930C947B3433
:1065D000003111F00C94FA3288E790E0A9E9B1E0BB
:1065E0008D939C9381E090E0ABE9B1E08D939C9317
:1065F0000C947B34013111F00C941E3385E08093B0
:106600006F0589E380937005882780937105EEE01C
:10661000F0E00E9404790E94BF7688EC90E0A9E93E
:10662000B1E08D939C9380E090E0ABE9B1E08D9375
:106630009C9389E68093E7010C947B34023111F03E
:106640000C94623300911E03013011F00C94453319
:1066500085E080936F0589E4809370058827809397
:106660007105EEE0F0E00E9404790E94BF768CEBA9
:1066700092E0A9E9B1E08D939C9380E090E0ABE9D2
:10668000B1E08D939C930C94603385E080936F050B
:1066900089E380937005882780937105EEE0F0E030
:1066A0000E9404790E94BF7684EF91E0A9E9B1E0ED
:1066B0008D939C9380E090E0ABE9B1E08D939C9347
:1066C0000C947B34043111F00C9474338CE390E01F
:1066D000A9E9B1E08D939C9382E090E0ABE9B1E051
:1066E0008D939C930C947B34053111F00C9486337C
:1066F00081E090E0A9E9B1E08D939C9380E090E087
:10670000ABE9B1E08D939C930C947B34063111F08E
:106710000C9498338EE190E0A9E9B1E08D939C93BD
:1067200085E090E0ABE9B1E08D939C930C947B34D1
:10673000013611F00C94AA3381E090E0A9E9B1E0B0
:106740008D939C9380E090E0ABE9B1E08D939C93B6
:106750000C947B34033611F00C94BC338FE097E239
:10676000A9E9B1E08D939C9380E090E0ABE9B1E0C2
:106770008D939C930C947B34043611F00C94F63377
:1067800085E080936F058AE4809370058827809365
:106790007105EEE0F0E00E9404790E94BF76A1EF5F
:1067A000B1E00D911C91083B5BE015070CF402C0B1
:1067B0000C94E83380E59AE0A9E9B1E08D939C93CD
:1067C0008AE397E0ABE9B1E08D939C930C94F433AA
:1067D00080EA94E1A9E9B1E08D939C938EE99CE075
:1067E000ABE9B1E08D939C930C947B34053611F0AA
:1067F0000C94173485E080936F058AE480937005CC
:10680000882780937105EEE0F0E00E9404790E94F1
:10681000BF7688EC90E0A9E9B1E08D939C9383E08A
:1068200090E0ABE9B1E08D939C930C947B340636F9
:1068300011F00C94383485E080936F0589E38093E0
:106840007005882780937105EEE0F0E00E940479DE
:106850000E94BF768FE097E2A9E9B1E08D939C9307
:1068600081E090E0ABE9B1E08D939C930C947B3494
:10687000073611F00C944A348CEA9DE0A9E9B1E0A6
:106880008D939C9380E991E0ABE9B1E08D939C936B
:106890000C947B34083611F00C945C3481E490E065
:1068A000A9E9B1E08D939C938DE290E0ABE9B1E072
:1068B0008D939C930C947B34093611F00C947B34AB
:1068C00085E080936F058AE4809370058827809324
:1068D0007105EEE0F0E00E9404790E94BF7688EC3A
:1068E00090E0A9E9B1E08D939C9380E090E0ABE962
:1068F000B1E08D939C930091EB01013011F00C9469
:10690000E33482E08093EB01A9E9B1E04D915C9121
:10691000A1EFB1E00D911C910417150711F00C9433
:106920009B34ABE9B1E08D919C91A1EFB1E08D93E7
:106930009C930C94DB340091E801013011F00C942D
:10694000AD34A1EFB1E00D911C9108511C4FA1EFA6
:10695000B1E00D931C930C94DB34023011F00C94D5
:10696000BD34A1EFB1E00D911C910C591F4FA1EF67
:10697000B1E00D931C930C94DB34033011F00C94B4
:10698000CD34A1EFB1E00D911C91065F1F4FA1EF37
:10699000B1E00D931C930C94DB34043011F00C9493
:1069A000DB34A1EFB1E00D911C910F5F1F4FA1EF00
:1069B000B1E00D931C93E1EFF1E0ACE8B1E00E948F
:1069C00099790E94502E0091EE01013011F00C9443
:1069D0004B3582E08093EE01ABE9B1E04D915C91E3
:1069E000A1EFB1E00D911C910417150711F00C9463
:1069F0000335A9E9B1E08D919C91A1EFB1E08D93B0
:106A00009C930C9443350091E801013011F00C94F3
:106A10001535A1EFB1E00D911C91085E1340A1EF77
:106A2000B1E00D931C930C944335023011F00C949B
:106A30002535A1EFB1E00D911C9104561040A1EF56
:106A4000B1E00D931C930C944335033011F00C947A
:106A50003535A1EFB1E00D911C910A501040A1EF26
:106A6000B1E00D931C930C944335043011F00C9459
:106A70004335A1EFB1E00D911C9101501040A1EF01
:106A8000B1E00D931C93E1EFF1E0ACE8B1E00E94BE
:106A900099790E94502EABE9B1E04D915C91A1EF44
:106AA000B1E00D911C91041715070CF402C00C9471
:106AB0006935ABE9B1E08D919C91A1EFB1E08D9387
:106AC0009C93E1EFF1E0ACE8B1E00E9499790E947B
:106AD000502EA9E9B1E04D915C91A1EFB1E00D918B
:106AE0001C91041715071CF011F00C9479350C94C7
:106AF0008935A9E9B1E08D919C91A1EFB1E08D9329
:106B00009C93E1EFF1E0ACE8B1E00E9499790E943A
:106B1000502E0091EF01013011F00C94A23582E06B
:106B20008093EF010091E801013011F00C949D3544
:106B300084E08093E8010C94A235A8EEB1E08C913A
:106B400081508C930091F001013011F00C94663E5D
:106B50000E94A27782E08093F00180E090E0A4E4BC
:106B6000B2E08D939C93ACE8B1E00E94E679A4E496
:106B7000B2E00D931C930091E701003011F00C94EA
:106B8000EF3680914402809343020091430201302A
:106B900011F00C94ED3680E090E0A4E4B2E08D9327
:106BA0009C9381E080936F0581E080937005882736
:106BB00080937105E0E1F0E00E9404790E94BF76C5
:106BC00082E080936F0581E0809370058827809331
:106BD0007105ECE1F0E00E9404790E94BF7683E049
:106BE00080936F0581E080937005882780937105FD
:106BF000ECE2F0E00E9404790E94BF7684E080938A
:106C00006F0581E080937005882780937105EEE31E
:106C1000F0E00E9404790E94BF7687E080936F05C0
:106C200081E080937005882780937105E2EFFFEF84
:106C30000E940A790E94BF7688E080936F0581E008
:106C400080937005882780937105E0E0F0E00E9452
:106C500004790E94BF76A4E4B2E00D911C9100304B
:106C600050E0150711F00C94463685E080936F05CF
:106C700081E080937005882780937105ECE6FFEF33
:106C80000E940A790E94BF760C94553685E0809365
:106C90006F0581E080937005882780937105E2E697
:106CA000FFEF0E940A790E94BF760091EE01013049
:106CB00081E009F080E08F930091EB01013081E0E9
:106CC00009F080E09F91892B882311F40C9486367B
:106CD00082E08093EE0182E08093EB01A4E4B2E0D5
:106CE0000D911C91003050E0150711F00C94803686
:106CF00081E090E0A4E4B2E08D939C930C948636FE
:106D000080E090E0A4E4B2E08D939C930091F001C8
:106D1000013011F00C94913682E08093F0010C94D4
:106D2000973684E690E00E9433770C942B36A4E4E7
:106D3000B2E00D911C91013050E0150711F00C9458
:106D4000ED360E94A277E0E0F0E0ABE4B2E091E043
:106D50007BE70E94667A84E690E00E94337780E0C9
:106D60008093D402E0E3F0E0A4EDB2E091E07BE7B1
:106D70000E94667A83E080936F0585E080937005BA
:106D8000882780937105EEE4F0E00E9404790E9468
:106D9000BF7685E080936F0585E080937005882736
:106DA00080937105EEE5F0E00E9404790E94BF76C1
:106DB00087E080936F0585E0809370058827809336
:106DC0007105ECE0FCEF0E940A790E94BF7684E630
:106DD00090E00E9433770C94E7360C94B23D053076
:106DE00011F00C941137A4E4B2E08D919C91A7E3CB
:106DF000B2E08D939C93EFE0F0E0A7E3B2E092E085
:106E00007BE70E94667AE6E4F3E0AAE9B2E00E943A
:106E1000487AE7E3F2E0AFE9B2E00E94177A0C9417
:106E2000B23D063011F00C943337A4E4B2E08D91FA
:106E30009C91A9E3B2E08D939C93E1E1F0E0A9E39A
:106E4000B2E092E07BE70E94667AEBE4F3E0AAE925
:106E5000B2E00E94487AE9E3F2E0AFE9B2E00E94D2
:106E6000177A0C94B23D073011F00C94C737A4E4A4
:106E7000B2E08D919C91ABE3B2E08D939C93ABE338
:106E8000B2E08D919C91ADE3B2E08D939C93EDE0E7
:106E9000F0E0ABE3B2E092E07BE70E94667AEEE1DD
:106EA000F0E0ADE3B2E092E07BE70E94667AA4E412
:106EB000B2E00D911C912227332744E650E060E0B8
:106EC00070E00E948278A6E4B2E00D931D932D93AA
:106ED0003D93A6E4B2E00D911D912D913C91AFE35D
:106EE000B2E04D915C91662777270E94D176A6E4A7
:106EF000B2E04D935D936D937D93A6E4B2E08D91E6
:106F00009C91A4E4B2E08D939C930091980203308D
:106F100011F00C949737A4E4B2E00D911C914AE073
:106F200050E00E947878A4E4B2E00D931C93E2E371
:106F3000F3E0AAE9B2E00E94487AE4E4F2E0AFE9C3
:106F4000B2E00E94177A0E9490510091980203309B
:106F500011F00C94C537E6E9F3E0AAE9B2E00E942B
:106F6000487A08EE13E0A4E4B2E04D915C91041B72
:106F7000150BA4E4B2E00D931C93E4E4F2E0AFE956
:106F8000B2E00E94177A0E9490510C94B23D0830F2
:106F900011F00C94083911990C94D138A4E4B2E0A2
:106FA0008D919C91AFE3B2E08D939C93ABE3B2E003
:106FB0008D919C91A4E4B2E08D939C93A4E4B2E003
:106FC0000D911C912227332744E650E060E070E0E9
:106FD0000E948278A6E4B2E00D931D932D933D9319
:106FE000A6E4B2E00D911D912D913C91AFE3B2E08A
:106FF0004D915C91662777270E94D176A6E4B2E096
:107000004D935D936D937D93A6E4B2E08D919C9139
:10701000A4E4B2E08D939C9300919802033011F0A8
:107020000C941E38A4E4B2E00D911C914AE050E0AB
:107030000E947878A4E4B2E00D931C93E2E3F3E0BD
:10704000AAE9B2E00E94487AE4E4F2E0AFE9B2E0F3
:107050000E94177A0E94905100919802033011F01B
:107060000C944C38E6E9F3E0AAE9B2E00E94487AD1
:1070700008EE13E0A4E4B2E04D915C91041B150B03
:10708000A4E4B2E00D931C93E4E4F2E0AFE9B2E0D3
:107090000E94177A0E94905184EF91E00E9433770A
:1070A000E9E1F0E0AFE3B2E092E07BE70E94667ACC
:1070B000AFE3B2E00D911C9122273327AAE5B2E09D
:1070C0004D915C91662777270E948278A6E4B2E012
:1070D0000D931D932D933D93A6E4B2E00D911D9168
:1070E0002D913C91A8E5B2E04D915C916627772700
:1070F0000E94D176A6E4B2E04D935D936D937D93AB
:10710000A6E4B2E08D919C91A4E4B2E08D939C93AF
:10711000E4E4F2E0AFE9B2E00E94177A009198024D
:10712000033081E009F080E08F93A4E4B2E00D9198
:107130001C91043F51E0150781E008F480E09F9125
:107140008923882311F40C94B538AAE9B2E0EEE65D
:10715000F0E00E9404790E94A578E4E4F2E0AFE94F
:10716000B2E00E94177A0E949051E0E5F3E0AAE9AC
:10717000B2E00E94487AA4E4B2E00D911C914AE08A
:1071800050E00E947878A4E4B2E00D931C93E4E40C
:10719000F2E0AFE9B2E00E94177A0E9490510C949D
:1071A00006390E94A27782E080936F0581E0809388
:1071B0007005882780937105E4E7F0E00E94047968
:1071C0000E94BF7684E080936F0581E08093700514
:1071D000882780937105E6E8F0E00E9404790E9418
:1071E000BF7686E080936F0581E0809370058827E5
:1071F00080937105E8E9F0E00E9404790E94BF766F
:10720000E3E0F0E00E94C6760C945E3E0C94B23D42
:107210000A3011F00C941E39A4E4B2E08D919C91D7
:10722000AAEAB2E08D939C93E7E2F0E0AAEAB2E02A
:1072300092E07BE70E94667A0C94B23D0B3011F02D
:107240000C943439A4E4B2E08D919C91ACEAB2E0A4
:107250008D939C93E9E2F0E0ACEAB2E092E07BE748
:107260000E94667A0C94B23D0C3011F00C944A39AD
:10727000A4E4B2E08D919C91AEEAB2E08D939C9330
:10728000EBE2F0E0AEEAB2E092E07BE70E94667AE1
:107290000C94B23D0D3011F00C946039A4E4B2E0CE
:1072A0008D919C91A0EBB2E08D939C93EDE2F0E088
:1072B000A0EBB2E092E07BE70E94667A0C94B23DCC
:1072C0000E3011F00C947239809144028093B20216
:1072D000EFE2F0E0A2EBB2E091E07BE70E94667A99
:1072E0000C94B23D0F3011F00C948439809144021B
:1072F0008093BF02E0E2F0E0AFEBB2E091E07BE729
:107300000E94667A0C94B23D003111F00C949639CB
:10731000809144028093C002E2E2F0E0A0ECB2E08F
:1073200091E07BE70E94667A0C94B23D023111F045
:107330000C94AC39A4E4B2E08D919C91A1ECB2E044
:107340008D939C93E5E3F0E0A1ECB2E092E07BE763
:107350000E94667A0C94B23D043111F00C94BE394F
:10736000809144028093C302EDE1F0E0A3ECB2E02F
:1073700091E07BE70E94667A0C94B23D053111F0F2
:107380000C94D0398091440280939702E5E2F0E0BA
:10739000A7E9B2E091E07BE70E94667A0C94B23DE7
:1073A000063111F00C94E2398091440280938A02F4
:1073B000E4E2F0E0AAE8B2E091E07BE70E94667ABE
:1073C0000C94B23D013611F00C94553CA4E4B2E0AB
:1073D0004D915C91AEE1B3E00D91112704171507B3
:1073E00011F40C94473C0E94A27784E080936F05CF
:1073F00085E080937005882780937105EAEAF0E0C4
:107400000E9404790E94BF7681E090E0A7E6B1E097
:107410008D939C93A7E6B1E00D911C91083750E045
:1074200015071CF011F00C94393A86E080936F0533
:107430008091670180937005882780937105EEE045
:10744000F0E00E9404790E94BF7684E690E00E94FA
:107450003377A7E6B1E00D911C91095F1F4FA7E6B6
:10746000B1E00D931C93A7E6B1E00E94FB750C946C
:107470000A3A00911E03003011F00C94533BA3E232
:10748000B3E0E4EBF6EF0E940A790E94A5788AEA5D
:1074900095E0A3E9B2E08D939C93AAEAB2E00D9146
:1074A0001C91222733274AEA55E060E070E00E94F1
:1074B0008278AFE1B3E00D931D932D933D93AFE13F
:1074C000B3E00D911D912D913C9148EE53E060E0A9
:1074D00070E00E94D876AFE1B3E04D935D936D9379
:1074E0007D93AFE1B3E08D919C91AAEAB2E08D93D8
:1074F0009C93E7E2F0E0AAEAB2E092E07BE70E9428
:10750000667AACEAB2E00D911C91222733274AEA51
:1075100055E060E070E00E948278AFE1B3E00D9347
:107520001D932D933D93AFE1B3E00D911D912D91EE
:107530003C9148EE53E060E070E00E94D876AFE105
:10754000B3E04D935D936D937D93AFE1B3E08D9187
:107550009C91ACEAB2E08D939C93E9E2F0E0ACEA56
:10756000B2E092E07BE70E94667AAEEAB2E00D916B
:107570001C91222733274AEA55E060E070E00E9420
:107580008278AFE1B3E00D931D932D933D93AFE16E
:10759000B3E00D911D912D913C9148EE53E060E0D8
:1075A00070E00E94D876AFE1B3E04D935D936D93A8
:1075B0007D93AFE1B3E08D919C91AEEAB2E08D9303
:1075C0009C93EBE2F0E0AEEAB2E092E07BE70E944F
:1075D000667AA0EBB2E00D911C91222733274AEA8C
:1075E00055E060E070E00E948278AFE1B3E00D9377
:1075F0001D932D933D93AFE1B3E00D911D912D911E
:107600003C9148EE53E060E070E00E94D876AFE134
:10761000B3E04D935D936D937D93AFE1B3E08D91B6
:107620009C91A0EBB2E08D939C93EDE2F0E0A0EB97
:10763000B2E092E07BE70E94667AA1ECB2E00D91A5
:107640001C91222733274AEA55E060E070E00E944F
:107650008278AFE1B3E00D931D932D933D93AFE19D
:10766000B3E00D911D912D913C9148EE53E060E007
:1076700070E00E94D876AFE1B3E04D935D936D93D7
:107680007D93AFE1B3E08D919C91A1ECB2E08D933D
:107690009C93E5E3F0E0A1ECB2E092E07BE70E948E
:1076A000667A0C94473CA3E2B3E0E0EBF6EF0E946D
:1076B0000A790E94A57888EE93E0A3E9B2E08D9361
:1076C0009C93AAEAB2E00D911C912227332748EE41
:1076D00053E060E070E00E948278AFE1B3E00D9388
:1076E0001D932D933D93AFE1B3E00D911C914AEAB8
:1076F00055E00E942F76AAEAB2E04D935C93AFE189
:10770000B3E08D919C91AAEAB2E08D939C93E7E25D
:10771000F0E0AAEAB2E092E07BE70E94667AACEA87
:10772000B2E00D911C912227332748EE53E060E030
:1077300070E00E948278AFE1B3E00D931D932D932A
:107740003D93AFE1B3E00D911C914AEA55E00E94F0
:107750002F76ACEAB2E04D935C93AFE1B3E08D914C
:107760009C91ACEAB2E08D939C93E9E2F0E0ACEA44
:10777000B2E092E07BE70E94667AAEEAB2E00D9159
:107780001C912227332748EE53E060E070E00E940E
:107790008278AFE1B3E00D931D932D933D93AFE15C
:1077A000B3E00D911C914AEA55E00E942F76AEEAB3
:1077B000B2E04D935C93AFE1B3E08D919C91AEEA62
:1077C000B2E08D939C93EBE2F0E0AEEAB2E092E09F
:1077D0007BE70E94667AA0EBB2E00D911C91222714
:1077E000332748EE53E060E070E00E948278AFE11A
:1077F000B3E00D931D932D933D93AFE1B3E00D9155
:107800001C914AEA55E00E942F76A0EBB2E04D931E
:107810005C93AFE1B3E08D919C91A0EBB2E08D93CE
:107820009C93EDE2F0E0A0EBB2E092E07BE70E94F7
:10783000667AA1ECB2E00D911C912227332748EE25
:1078400053E060E070E00E948278AFE1B3E00D9316
:107850001D932D933D93AFE1B3E00D911C914AEA46
:1078600055E00E942F76A1ECB2E04D935C93AFE11E
:10787000B3E08D919C91A1ECB2E08D939C93E5E3F4
:10788000F0E0A1ECB2E092E07BE70E94667A8091A2
:10789000440280931E03E8E3F0E0AEE1B3E091E040
:1078A0007BE70E94667A0C94B23D033611F00C948B
:1078B000663CA4E4B2E08D919C91A8E0B2E08D9387
:1078C0009C9383E68093E7010C94B23D043611F05B
:1078D0000C94743CA4E4B2E08D919C91ACE4B2E0D1
:1078E0008D939C930C94B23D053611F00C949F3C03
:1078F0008091440280934E02AEE4B2E08C91A6EDFA
:10790000B2E08D9388278C93E8E1F0E0AEE4B2E03A
:1079100091E07BE70E94667AEAE5F3E0AAE9B2E04B
:107920000E94487AAEE4B2E08C91A4E4B2E08D9378
:1079300088278C938CE08093E7010C94B23D063647
:1079400011F00C94D13CEFE5F3E0AAE9B2E00E941B
:10795000487AA4E4B2E00D911C914AE050E00E9404
:107960002F76A4E4B2E04D935C93A4E4B2E08D9151
:107970009C91A6E5B2E08D939C9300919802033010
:1079800011F00C94CF3CA4E4B2E00D911C914AE0BC
:1079900050E00E947878A4E4B2E00D931C930C941C
:1079A000B23D073611F00C94773DA4E4B2E08D911E
:1079B0009C91A8E5B2E08D939C93EBE0F0E0A8E504
:1079C000B2E092E07BE70E94667AEEE6F3E0AAE995
:1079D000B2E00E94487AA8E5B2E00D911C91043310
:1079E00058E0150710F40C94FF3CAEE8B2E0ECEE62
:1079F000F5EF0E940A790E94A5780C94613DA8E5F4
:107A0000B2E04D915C9104E115E00417150781E0A7
:107A100010F009F080E08F93A8E5B2E00D911C9181
:107A2000043358E0150781E008F080E09F91892336
:107A3000882311F40C94263DAEE8B2E0EAEBF0E0C6
:107A40000E9404790E94A5780C94613DA8E5B2E0FB
:107A50004D915C9108EE13E00417150781E010F0DA
:107A600009F080E08F93A8E5B2E00D911C910431FC
:107A700055E0150781E008F080E09F918923882375
:107A800011F40C944D3DAEE8B2E0E0ECF0E00E9461
:107A900004790E94A5780C94613DA8E5B2E00D91AF
:107AA0001C91083E53E0150710F00C94613DAEE8C0
:107AB000B2E0E6ECF0E00E9404790E94A5780C9414
:107AC000613DEEE8F2E0AFE9B2E00E94487A0E9440
:107AD0009051E4E6F3E0AAE9B2E00E94487AE4E4D7
:107AE000F2E0AFE9B2E00E94177A0C94B23D08369A
:107AF00011F00C949F3DE9E6F3E0AAE9B2E00E94A0
:107B0000487AA4E4B2E00D911C914AE050E00E9452
:107B10007878A4E4B2E00D931C93A4E4B2E08D91D4
:107B20009C91AAE5B2E08D939C93E3E1F0E0AAE595
:107B3000B2E092E07BE70E94667A0C94B23D09368F
:107B400011F00C94B23D8091440280934F02E1E227
:107B5000F0E0AFE4B2E091E07BE70E94667A81E179
:107B60008093E7010091E701003081E009F480E0B3
:107B70008F930091E701073081E009F480E09F9145
:107B800089238F930091E701083081E009F480E0B8
:107B90009F9189238F930091E7010A3081E009F4D6
:107BA00080E09F9189238F930091E7010B3081E062
:107BB00009F480E09F9189238F930091E7010D30B4
:107BC00081E009F480E09F9189238F930091E70180
:107BD0000E3081E009F480E09F9189238F9300911A
:107BE000E701053181E009F480E09F9189238F93BB
:107BF0000091E701073181E009F480E09F9189233A
:107C0000882311F40C945E3E0091E7010F3081E06F
:107C100009F480E08F930091E701003181E009F4DD
:107C200080E09F9189238F930091E701013181E0EA
:107C300009F480E09F9189238F930091E70102313D
:107C400081E009F480E09F9189238F930091E701FF
:107C5000043181E009F480E09F9189238F930091A2
:107C6000E701063181E009F480E09F9189238F9339
:107C70000091E701013681E009F480E09F918923BA
:107C80008F930091E701033681E009F480E09F9132
:107C900089238F930091E701093681E009F480E0A0
:107CA0009F918923882311F40C945E3EE4E4F2E072
:107CB000AFE9B2E00E94177A0E94905182E090E012
:107CC000A3E6B1E08D939C930E94A277A4E0B1E07B
:107CD0000D911C91013050E0150711F00C947C3E81
:107CE00080E090E0A4E0B1E08D939C9382E090E08E
:107CF000A3E6B1E08D939C930091EF01013081E008
:107D000009F080E08F930091EB01013081E009F0F0
:107D100080E09F91892B8F930091EE01013081E0EB
:107D200009F080E09F91892B882311F40C949E3EEA
:107D30008CE390E0AAE0B1E08D939C930091EC017C
:107D4000013011F00C94CF3E82E08093EC01009161
:107D5000E901043111F00C94C93E0091E7010536A8
:107D600011F00C94B63E89E08093E7010091E701A1
:107D7000093611F00C94BF3E81E18093E70182E067
:107D800090E0A3E6B1E08D939C930E94A2770C94BF
:107D9000CF3E81E08093D90208950E94A277089592
:107DA000089582E080936F0581E0809370058827B5
:107DB00080937105ECECF0E00E9404790E94BF769C
:107DC00084E080936F0581E080937005882780931D
:107DD0007105E2E7F7EF0E940A790E94BF7684E01E
:107DE00080936F0581E080937005882780937105EB
:107DF000EAEDF0E00E9404790E94BF76EAE8F1E043
:107E0000A3E0BEE30E94A0790E94B77600918A01A8
:107E1000013011F00C94123F8091800180938B010E
:107E20000C946A3F023011F00C941C3F8091810148
:107E300080938B010C946A3F033011F00C94263F21
:107E40008091820180938B010C946A3F043011F081
:107E50000C94303F8091830180938B010C946A3F96
:107E6000053011F00C943A3F8091840180938B018E
:107E70000C946A3F063011F00C94443F80918501C8
:107E800080938B010C946A3F073011F00C944E3FA5
:107E90008091860180938B010C946A3F083011F029
:107EA0000C94583F8091870180938B010C946A3F1A
:107EB000093011F00C94623F8091880180938B010E
:107EC0000C946A3F0A3011F00C946A3F809189014A
:107ED00080938B0186E080936F0581E0809370052D
:107EE000882780937105E8EBF6EF0E940A790E94DB
:107EF000BF7687E080936F0581E0809370058827C7
:107F000080937105E8EBF6EF0E940A790E94BF7634
:107F100088E080936F0581E08093700588278093C7
:107F20007105E8EBF6EF0E940A790E94BF76009196
:107F30008B010E3580E010F009F081E08F93009105
:107F40008B01043681E008F080E09F91892388232B
:107F500011F40C94AD3F0E94A2770E941240009150
:107F6000F001013081E009F080E08F930091EC0195
:107F7000013081E009F080E09F91892B882311F482
:107F80000C94D33F82E08093EC0182E08093F00177
:107F900081E080938A0182E090E0A3E6B1E08D93D6
:107FA0009C930E94A2770091EB01013011F00C9498
:107FB000EC3F82E08093EB0100918A010A3011F0DE
:107FC0000C94E73F81E080938A010C94EC3FAAE88F
:107FD000B1E08C918F5F8C930091EE01013011F034
:107FE0000C94054082E08093EE0100918A010130FB
:107FF00011F00C9400408AE080938A010C940540B3
:10800000AAE8B1E08C9181508C930091EF0101308E
:1080100011F00C94104082E08093EF010E94B24C6A
:108020000895089500919802023011F00C94814750
:1080300000918B01003011F00C943E4086E080935B
:108040006F0581E080937005882780937105E0EECD
:10805000F0E00E9404790E94BF7687E080936F056C
:1080600081E080937005882780937105EEEEF0E043
:108070000E9404790E94BF760C947F47013011F072
:108080000C94534086E080936F0581E080937005E7
:10809000882780937105EAEFF0E00E9404790E943E
:1080A000BF760C947F47023011F00C94774086E045
:1080B00080936F0581E08093700588278093710518
:1080C000ECE0F1E00E9404790E94BF7687E08093A3
:1080D0006F0581E080937005882780937105ECE13E
:1080E000F1E00E9404790E94BF760C947F47033030
:1080F00011F00C949B4086E080936F0581E08093A3
:108100007005882780937105E8E2F1E00E94047908
:108110000E94BF7687E080936F0585E080937005AD
:10812000882780937105E6E3F1E00E9404790E94BC
:10813000BF760C947F47043011F00C94BF4086E06A
:1081400080936F0585E08093700588278093710583
:10815000E2E4F1E00E9404790E94BF7687E0809318
:108160006F0585E080937005882780937105E6E3AD
:10817000F1E00E9404790E94BF760C947F4706309C
:1081800011F00C94E34086E080936F0581E08093CA
:108190007005882780937105E0E5F1E00E9404797D
:1081A0000E94BF7687E080936F0585E0809370051D
:1081B000882780937105EEE5F1E00E9404790E9422
:1081C000BF760C947F47073011F00C94F84086E09E
:1081D00080936F0581E080937005882780937105F7
:1081E000ECE6F1E00E9404790E94BF760C947F4790
:1081F000083011F00C941C4186E080936F0585E0F7
:1082000080937005882780937105EEE7F1E00E9466
:1082100004790E94BF7687E080936F0585E08093A4
:108220007005882780937105ECE8F1E00E940479DD
:108230000E94BF760C947F47093011F00C944041A6
:1082400086E080936F0581E0809370058827809396
:108250007105E8E9F1E00E9404790E94BF7687E0A9
:1082600080936F0585E08093700588278093710562
:10827000ECE8F1E00E9404790E94BF760C947F47FD
:108280000A3011F00C94644186E080936F0581E020
:1082900080937005882780937105E8EAF1E00E94D9
:1082A00004790E94BF7687E080936F0585E0809314
:1082B0007005882780937105E8EBF1E00E9404794E
:1082C0000E94BF760C947F470B3011F00C948841CC
:1082D00086E080936F0581E0809370058827809306
:1082E0007105E8ECF1E00E9404790E94BF7687E016
:1082F00080936F0581E080937005882780937105D6
:10830000E4EDF1E00E9404790E94BF760C947F476F
:108310000C3011F00C94AC4186E080936F0581E045
:1083200080937005882780937105E0EEF1E00E944C
:1083300004790E94BF7687E080936F0581E0809387
:108340007005882780937105EEEEF1E00E940479B4
:108350000E94BF760C947F470D3011F00C94D041F1
:1083600086E080936F0585E0809370058827809371
:108370007105ECEFF1E00E9404790E94BF7687E07E
:1083800080936F0581E08093700588278093710545
:10839000EEEEF1E00E9404790E94BF760C947F47D4
:1083A0000E3011F00C94F44186E080936F0581E06B
:1083B00080937005882780937105E8E0F2E00E94C1
:1083C00004790E94BF7687E080936F0585E08093F3
:1083D0007005882780937105ECE8F1E00E9404792C
:1083E0000E94BF760C947F470F3011F00C94184216
:1083F00086E080936F0581E08093700588278093E5
:108400007105E0E5F1E00E9404790E94BF7687E003
:1084100080936F0581E080937005882780937105B4
:10842000E6E1F2E00E9404790E94BF760C947F4757
:10843000003111F00C943C4286E080936F0585E09A
:1084400080937005882780937105E6E2F2E00E9430
:1084500004790E94BF7687E080936F0581E0809366
:108460007005882780937105E4E3F2E00E940479A7
:108470000E94BF760C947F47023111F00C946F423A
:1084800086E080936F0581E0809370058827809354
:108490007105E4E4F2E00E9404790E94BF7687E06F
:1084A00080936F0585E08093700588278093710520
:1084B000E4E5F2E00E9404790E94BF7688E08093B0
:1084C0006F0585E080937005882780937105E2E64B
:1084D000F2E00E9404790E94BF760C947F4703313A
:1084E00011F00C94934286E080936F0581E08093B5
:1084F0007005882780937105ECE0F1E00E94047913
:108500000E94BF7687E080936F0581E080937005BD
:10851000882780937105E0E7F2E00E9404790E94C9
:10852000BF760C947F47043111F00C94B74286E07B
:1085300080936F0581E08093700588278093710593
:10854000ECE0F1E00E9404790E94BF7687E080931E
:108550006F0581E080937005882780937105E0E8BE
:10856000F2E00E9404790E94BF760C947F470531A7
:1085700011F00C94DB4286E080936F0585E08093D8
:108580007005882780937105E0E9F2E00E94047984
:108590000E94BF7687E080936F0581E0809370052D
:1085A000882780937105E0EAF2E00E9404790E9436
:1085B000BF760C947F47073111F00C94FF4286E0A0
:1085C00080936F0585E080937005882780937105FF
:1085D000EEEAF2E00E9404790E94BF7687E0809381
:1085E0006F0585E080937005882780937105ECEB1B
:1085F000F2E00E9404790E94BF760C947F47083114
:1086000011F00C94324386E080936F0581E08093F3
:108610007005882780937105ECECF2E00E940479E4
:108620000E94BF7687E080936F0585E08093700598
:10863000882780937105E4E5F2E00E9404790E94A6
:10864000BF7688E080936F0585E08093700588276A
:1086500080937105E2E6F2E00E9404790E94BF7601
:108660000C947F47093111F00C94564386E08093B7
:108670006F0581E080937005882780937105ECED8C
:10868000F2E00E9404790E94BF7687E080936F0534
:1086900081E080937005882780937105ECEEF2E00D
:1086A0000E9404790E94BF760C947F470A3111F032
:1086B0000C947A4386E080936F0581E08093700587
:1086C000882780937105EAEFF2E00E9404790E9406
:1086D000BF7687E080936F0585E0809370058827DB
:1086E00080937105E8E0F3E00E9404790E94BF7670
:1086F0000C947F470B3111F00C949E4386E08093DD
:108700006F0585E080937005882780937105E6E109
:10871000F3E00E9404790E94BF7687E080936F05A2
:1087200085E080937005882780937105E6E2F3E089
:108730000E9404790E94BF760C947F470C3111F09F
:108740000C94C24386E080936F0581E080937005AE
:10875000882780937105E6E3F3E00E9404790E9484
:10876000BF7687E080936F0581E08093700588274E
:1087700080937105E6E1F2E00E9404790E94BF76E1
:108780000C947F470D3111F00C94E64386E0809302
:108790006F0581E080937005882780937105E2E47E
:1087A000F3E00E9404790E94BF7687E080936F0512
:1087B00085E080937005882780937105E2E5F3E0FA
:1087C0000E9404790E94BF760C947F470E3111F00D
:1087D0000C940A4486E080936F0585E080937005D1
:1087E000882780937105E6E2F2E00E9404790E94F6
:1087F000BF7687E080936F0585E0809370058827BA
:1088000080937105E2E6F3E00E9404790E94BF764E
:108810000C947F470F3111F00C942E4486E0809326
:108820006F0581E080937005882780937105E2E7EA
:10883000F3E00E9404790E94BF7687E080936F0581
:1088400085E080937005882780937105E4E8F3E064
:108850000E9404790E94BF760C947F47003211F089
:108860000C94524486E080936F0581E080937005FC
:10887000882780937105E4E9F3E00E9404790E945F
:10888000BF7687E080936F0585E080937005882729
:1088900080937105ECE8F1E00E9404790E94BF76B4
:1088A0000C947F47013211F00C94764486E080935B
:1088B0006F0581E080937005882780937105E4E956
:1088C000F3E00E9404790E94BF7687E080936F05F1
:1088D00085E080937005882780937105ECE8F1E0CE
:1088E0000E9404790E94BF760C947F47023211F0F7
:1088F0000C949A4486E080936F0585E08093700520
:10890000882780937105E6E2F2E00E9404790E94D4
:10891000BF7687E080936F0585E080937005882798
:1089200080937105E2E6F3E00E9404790E94BF762D
:108930000C947F47033211F00C94AF4486E080938F
:108940006F0585E080937005882780937105E4EAC0
:10895000F3E00E9404790E94BF760C947F470632B0
:1089600011F00C94D34486E080936F0581E08093EE
:108970007005882780937105E0EBF3E00E9404798D
:108980000E94BF7687E080936F0581E08093700539
:10899000882780937105EAEDF6EF0E940A790E941C
:1089A000BF760C947F47073211F00C94F74486E0B1
:1089B00080936F0581E0809370058827809371050F
:1089C000E0ECF3E00E9404790E94BF7687E0809398
:1089D0006F0581E080937005882780937105EAED2B
:1089E000F6EF0E940A790E94BF760C947F47083206
:1089F00011F00C941B4586E080936F0585E0809311
:108A00007005882780937105E0EDF3E00E940479FA
:108A10000E94BF7687E080936F0581E080937005A8
:108A2000882780937105ECEDF3E00E9404790E94A1
:108A3000BF760C947F47093211F00C943F4586E0D5
:108A400080936F0585E0809370058827809371057A
:108A5000EAEEF3E00E9404790E94BF7687E08093FB
:108A60006F0585E080937005882780937105E8EF96
:108A7000F3E00E9404790E94BF760C947F470A328B
:108A800011F00C94634586E080936F0585E0809338
:108A90007005882780937105E4E0F4E00E94047972
:108AA0000E94BF7687E080936F0585E08093700514
:108AB000882780937105E4E1F4E00E9404790E9424
:108AC000BF760C947F470B3211F00C94874586E0FB
:108AD00080936F0581E080937005882780937105EE
:108AE000E2E2F4E00E9404790E94BF7687E080937E
:108AF0006F0585E080937005882780937105E8EF06
:108B0000F3E00E9404790E94BF760C947F470C32F8
:108B100011F00C94AB4586E080936F0581E0809363
:108B20007005882780937105E2E3F4E00E940479E0
:108B30000E94BF7687E080936F0581E08093700587
:108B4000882780937105E2E4F4E00E9404790E9492
:108B5000BF760C947F470D3211F00C94CF4586E020
:108B600080936F0585E08093700588278093710559
:108B7000E2E5F4E00E9404790E94BF7687E08093EA
:108B80006F0585E080937005882780937105E0E686
:108B9000F4E00E9404790E94BF760C947F470E3265
:108BA00011F00C94F34586E080936F0585E0809387
:108BB0007005882780937105EAE6F4E00E94047945
:108BC0000E94BF7687E080936F0581E080937005F7
:108BD000882780937105E8E7F4E00E9404790E94F9
:108BE000BF760C947F470F3511F00C94354681E029
:108BF00080936F0581E080937005882780937105CD
:108C0000E4E8F4E00E9404790E94BF7682E0809359
:108C10006F0585E080937005882780937105E4E9EE
:108C2000F4E00E9404790E94BF7683E080936F0590
:108C300085E080937005882780937105E4EAF4E06D
:108C40000E9404790E94BF7684E080936F0581E0E2
:108C500080937005882780937105E4EBF4E00E940F
:108C600004790E94BF760C947F47003611F00C9473
:108C7000864681E080936F0585E0809370058827A4
:108C800080937105E0E3FEEF0E940A790E94BF76AF
:108C900082E080936F0581E0809370058827809340
:108CA0007105E6ECF4E00E9404790E94BF7683E04F
:108CB00080936F0585E08093700588278093710508
:108CC000E4EAF4E00E9404790E94BF7684E0809395
:108CD0006F0585E080937005882780937105E6ED28
:108CE000F4E00E9404790E94BF7685E080936F05CE
:108CF00081E080937005882780937105E4EEF4E0AD
:108D00000E9404790E94BF760C947F47013611F0CF
:108D10000C94C84681E080936F0581E080937005D4
:108D2000882780937105E2EFF4E00E9404790E94A5
:108D3000BF7682E080936F0581E08093700588277D
:108D400080937105E2E0F5E00E9404790E94BF760D
:108D500084E080936F0581E080937005882780937D
:108D60007105E2E1F5E00E9404790E94BF7685E09A
:108D700080936F0581E0809370058827809371054B
:108D8000E4E2F5E00E9404790E94BF760C947F47EC
:108D9000023611F00C940A4781E080936F0581E060
:108DA00080937005882780937105E4E3F5E00E94C5
:108DB00004790E94BF7682E080936F0581E0809302
:108DC0007005882780937105E4E4F5E00E9404793A
:108DD0000E94BF7684E080936F0581E080937005E8
:108DE000882780937105E4E5F5E00E9404790E94EC
:108DF000BF7685E080936F0581E0809370058827BA
:108E000080937105E6E6F5E00E9404790E94BF7642
:108E10000C947F47033611F00C944C4782E080930A
:108E20006F0581E080937005882780937105E8E7DE
:108E3000F5E00E9404790E94BF7683E080936F057D
:108E400081E080937005882780937105E8E8F5E05C
:108E50000E9404790E94BF7685E080936F0581E0CF
:108E600080937005882780937105E4E2F5E00E9405
:108E700004790E94BF7686E080936F0581E080933D
:108E80007005882780937105E8E9F5E00E94047970
:108E90000E94BF760C947F470F3F11F00C947F47E0
:108EA00086E080936F0581E080937005882780932A
:108EB0007105E8EAF5E00E9404790E94BF7686E039
:108EC00080936F0581E080937005882780937105FA
:108ED000E8EBF5E00E9404790E94BF7687E080937A
:108EE0006F0582E380937005882780937105EDE913
:108EF000F1E0A3E0BEE30E94A0790E94B7760C9453
:108F0000B04C00918B01003011F00C94A74786E023
:108F100080936F0581E080937005882780937105A9
:108F2000E6ECF5E00E9404790E94BF7687E080932A
:108F30006F0581E080937005882780937105E4EDCB
:108F4000F5E00E9404790E94BF760C94B04C013089
:108F500011F00C94CB4786E080936F0581E08093FD
:108F60007005882780937105E2EEF5E00E94047990
:108F70000E94BF7687E080936F0581E08093700543
:108F8000882780937105E2EFF5E00E9404790E9442
:108F9000BF760C94B04C023011F00C94EF4786E091
:108FA00080936F0581E08093700588278093710519
:108FB000E0EEF1E00E9404790E94BF7687E08093A2
:108FC0006F0581E080937005882780937105E4E444
:108FD000F2E00E9404790E94BF760C94B04C0330FA
:108FE00011F00C94134886E080936F0585E0809320
:108FF0007005882780937105E2E0F6E00E9404790D
:109000000E94BF7687E080936F0581E080937005B2
:10901000882780937105E0E1F6E00E9404790E94C0
:10902000BF760C94B04C043011F00C94374886E0B5
:1090300080936F0581E08093700588278093710588
:10904000E0E2F6E00E9404790E94BF7687E0809318
:109050006F0581E080937005882780937105E0E3B8
:10906000F6E00E9404790E94BF760C94B04C053063
:1090700011F00C945B4886E080936F0581E080934B
:109080007005882780937105ECEFF1E00E94047968
:109090000E94BF7687E080936F0581E08093700522
:1090A000882780937105EEEEF1E00E9404790E941A
:1090B000BF760C94B04C063011F00C947F4886E0DB
:1090C00080936F0581E080937005882780937105F8
:1090D000E0EEF1E00E9404790E94BF7687E0809381
:1090E0006F0581E080937005882780937105EEEE0F
:1090F000F1E00E9404790E94BF760C94B04C0730D6
:1091000011F00C94A34886E080936F0581E0809372
:109110007005882780937105ECE3F6E00E940479DE
:109120000E94BF7687E080936F0581E08093700591
:10913000882780937105E6E4F6E00E9404790E9496
:10914000BF760C94B04C093011F00C94C74886E0FF
:1091500080936F0581E08093700588278093710567
:10916000E2E5F6E00E9404790E94BF7687E08093F2
:109170006F0581E080937005882780937105EEE587
:10918000F6E00E9404790E94BF760C94B04C0A303D
:1091900011F00C94EB4886E080936F0581E080939A
:1091A0007005882780937105EAE6F6E00E9404794D
:1091B0000E94BF7687E080936F0581E08093700501
:1091C000882780937105E4E4F2E00E9404790E940C
:1091D000BF760C94B04C0C3011F00C940F4986E023
:1091E00080936F0581E080937005882780937105D7
:1091F000E6E7F6E00E9404790E94BF7687E080935C
:109200006F0581E080937005882780937105E2E8FF
:10921000F6E00E9404790E94BF760C94B04C0D30A9
:1092200011F00C94334986E080936F0581E08093C0
:109230007005882780937105E0E9F6E00E940479C3
:109240000E94BF7687E080936F0581E08093700570
:10925000882780937105E2E8F6E00E9404790E9475
:10926000BF760C94B04C093111F00C94574986E04C
:1092700080936F0581E08093700588278093710546
:10928000EEE7F1E00E9404790E94BF7687E08093C8
:109290006F0581E080937005882780937105ECE964
:1092A000F6E00E9404790E94BF760C94B04C0A311B
:1092B00011F00C947B4986E080936F0581E08093E8
:1092C0007005882780937105E6E3F3E00E94047936
:1092D0000E94BF7687E080936F0581E080937005E0
:1092E000882780937105ECEAF6E00E9404790E94D9
:1092F000BF760C94B04C0C3111F00C949F4986E071
:1093000080936F0581E080937005882780937105B5
:10931000E4E9F3E00E9404790E94BF7687E080933D
:109320006F0581E080937005882780937105E8EBD5
:10933000F6E00E9404790E94BF760C94B04C0D3187
:1093400011F00C94B44986E080936F0581E080931E
:109350007005882780937105E8ECF6E00E94047997
:109360000E94BF760C94B04C063211F00C94D84990
:1093700086E080936F0581E0809370058827809355
:109380007105E8EDF6E00E9404790E94BF7687E05F
:1093900080936F0581E08093700588278093710525
:1093A000E8EEF6E00E9404790E94BF760C94B04C7F
:1093B0000E3211F00C94FC4986E080936F0581E039
:1093C00080937005882780937105E8EFF6E00E948E
:1093D00004790E94BF7687E080936F0581E08093D7
:1093E0007005882780937105EAE0F7E00E94047910
:1093F0000E94BF760C94B04C013311F00C94114ACA
:1094000086E080936F0581E08093700588278093C4
:109410007105ECE1F7E00E9404790E94BF760C949C
:10942000B04C023311F00C94354A86E080936F05FE
:1094300081E080937005882780937105ECE2F7E066
:109440000E9404790E94BF7687E080936F0581E0D7
:1094500080937005882780937105ECE3F7E00E9404
:1094600004790E94BF760C94B04C033311F00C9435
:10947000594A86E080936F0581E0809370058827C4
:1094800080937105ECE2F7E00E9404790E94BF76B8
:1094900087E080936F0581E0809370058827809333
:1094A0007105EAE4F7E00E9404790E94BF760C940B
:1094B000B04C043311F00C948C4A86E080936F0515
:1094C00081E080937005882780937105E8E5F7E0D7
:1094D0000E9404790E94BF7687E080936F0581E047
:1094E00080937005882780937105E6E6F7E00E9477
:1094F00004790E94BF7688E080936F0581E08093B5
:109500007005882780937105E4E7F7E00E940479ED
:109510000E94BF760C94B04C063311F00C94B04A04
:1095200086E080936F0581E08093700588278093A3
:109530007105E8EDF6E00E9404790E94BF7687E0AD
:1095400080936F0581E08093700588278093710573
:10955000EEE7F7E00E9404790E94BF760C94B04CCD
:10956000073311F00C94C54A86E080936F0581E0C3
:1095700080937005882780937105EEE8F7E00E94DC
:1095800004790E94BF760C94B04C083311F00C940F
:10959000DA4A86E080936F0581E080937005882722
:1095A00080937105EEE9F7E00E9404790E94BF768E
:1095B0000C94B04C093311F00C94FE4A86E0809371
:1095C0006F0581E080937005882780937105EEEA2E
:1095D000F7E00E9404790E94BF7687E080936F05D0
:1095E00081E080937005882780937105EEEBF7E0AA
:1095F0000E9404790E94BF760C94B04C0A3311F09B
:109600000C94224B86E080936F0581E08093700577
:10961000882780937105EEECF7E00E9404790E94A0
:10962000BF7687E080936F0581E08093700588277F
:1096300080937105E0EEF7E00E9404790E94BF7606
:109640000C94B04C0F3511F00C94644B81E0809376
:109650006F0581E080937005882780937105E4E8A9
:10966000F4E00E9404790E94BF7682E080936F0547
:1096700085E080937005882780937105E4E9F4E024
:109680000E9404790E94BF7683E080936F0585E095
:1096900080937005882780937105E4EAF4E00E94C6
:1096A00004790E94BF7684E080936F0581E0809307
:1096B0007005882780937105E4EBF4E00E9404793B
:1096C0000E94BF760C94B04C003611F00C94B54B50
:1096D00081E080936F0585E08093700588278093F3
:1096E0007105E0E3FEEF0E940A790E94BF7682E0F6
:1096F00080936F0581E080937005882780937105C2
:10970000E6ECF4E00E9404790E94BF7683E0809347
:109710006F0585E080937005882780937105E4EAE2
:10972000F4E00E9404790E94BF7684E080936F0584
:1097300085E080937005882780937105E6EDF4E05D
:109740000E9404790E94BF7685E080936F0581E0D6
:1097500080937005882780937105E4EEF4E00E9401
:1097600004790E94BF760C94B04C013611F00C9431
:10977000F74B81E080936F0581E080937005882727
:1097800080937105E2EFF4E00E9404790E94BF76B5
:1097900082E080936F0581E0809370058827809335
:1097A0007105E2E0F5E00E9404790E94BF7684E052
:1097B00080936F0581E08093700588278093710501
:1097C000E2E1F5E00E9404790E94BF7685E0809393
:1097D0006F0581E080937005882780937105E4E22E
:1097E000F5E00E9404790E94BF760C94B04C0236DA
:1097F00011F00C94394C81E080936F0581E08093E7
:109800007005882780937105E4E3F5E00E940479F0
:109810000E94BF7682E080936F0581E0809370059F
:10982000882780937105E4E4F5E00E9404790E94A2
:10983000BF7684E080936F0581E080937005882770
:1098400080937105E4E5F5E00E9404790E94BF76FB
:1098500085E080936F0581E0809370058827809371
:109860007105E6E6F5E00E9404790E94BF760C944B
:10987000B04C033611F00C947B4C82E080936F0562
:1098800081E080937005882780937105E8E7F5E013
:109890000E9404790E94BF7683E080936F0581E087
:1098A00080937005882780937105E8E8F5E00E94B1
:1098B00004790E94BF7685E080936F0581E08093F4
:1098C0007005882780937105E4E2F5E00E94047931
:1098D0000E94BF7686E080936F0581E080937005DB
:1098E000882780937105E8E9F5E00E9404790E94D9
:1098F000BF760C94B04C0F3F11F00C94904C86E066
:1099000080936F0581E080937005882780937105AF
:10991000E8EAF5E00E9404790E94BF760C94B04C0E
:1099200086E080936F0581E080937005882780939F
:109930007105E8EBF5E00E9404790E94BF7687E0AC
:1099400080936F0582E3809370058827809371056B
:10995000EDE9F1E0A3E0BEE30E94A0790E94B776B2
:10996000089508950E94A27782E080936F0581E0B8
:1099700080937005882780937105E0EFF7E00E94DF
:1099800004790E94BF7683E080936F0581E0809325
:109990007005882780937105E2E0F8E00E94047961
:1099A0000E94BF7684E080936F0581E0809370050C
:1099B000882780937105ECE0F8E00E9404790E940A
:1099C000BF7685E080936F0581E0809370058827DE
:1099D00080937105ECE1F8E00E9404790E94BF7663
:1099E00086E080936F0581E08093700588278093DF
:1099F0007105EEE2F8E00E9404790E94BF7687E0EC
:109A000080936F0581E080937005882780937105AE
:109A1000EEE3F8E00E9404790E94BF760091EC0129
:109A2000013011F00C94294D82E08093EC0182E02A
:109A30008093EB0182E08093ED0182E08093EE0160
:109A400082E08093EF0182E08093F0010E94A27790
:109A5000089582E390E00E9433770091EF01013096
:109A600011F00C940E4DE1E0F0E0A0E6B2E091E0E0
:109A70007BE70E94667AE2E0F0E0A0E6B2E091E0E7
:109A80007BE70E94667AE3E0F0E0A0E6B2E091E0D6
:109A90007BE70E94667AE4E0F0E0A0E6B2E091E0C5
:109AA0007BE70E94667AE5E0F0E0A0E6B2E091E0B4
:109AB0007BE70E94667AE6E0F0E0A0E6B2E091E0A3
:109AC0007BE70E94667AE7E0F0E0A0E6B2E091E092
:109AD0007BE70E94667AE8E0F0E0A0E6B2E091E081
:109AE0007BE70E94667AE9E0F0E0A0E6B2E091E070
:109AF0007BE70E94667AEAE0F0E0A0E6B2E091E05F
:109B00007BE70E94667AE1E0F0E00E94C676E1E041
:109B1000F0E0A0E8B1E091E00E94777AE2E0F0E0C6
:109B2000A1E8B1E091E00E94777AE3E0F0E0A2E8FA
:109B3000B1E091E00E94777AE4E0F0E0A3E8B1E0E0
:109B400091E00E94777AE5E0F0E0A4E8B1E091E0EE
:109B50000E94777AE6E0F0E0A5E8B1E091E00E94AB
:109B6000777AE7E0F0E0A6E8B1E091E00E94777A4A
:109B7000E8E0F0E0A7E8B1E091E00E94777AE9E060
:109B8000F0E0A8E8B1E091E00E94777AEAE0F0E046
:109B9000A9E8B1E091E00E94777A82E08093EC013D
:109BA00082E08093EB0182E08093ED0182E080937C
:109BB000EE0182E08093EF0182E08093F0010E9449
:109BC000A2770895089570910C02706170930C0251
:109BD00070910C02726070930C0200919802023036
:109BE00011F00C940A4E00919D010A3181E009F0B8
:109BF00080E08F9300919D01033081E009F080E0C7
:109C00009F91892B882311F40C94084E0C94B44E28
:109C10000C94124E00919D01013011F00C94124EE3
:109C20000C94B44E4091800100919D01041711F4F1
:109C30000C94B44EE1E0F0E0ADE9B1E091E07BE7F7
:109C40000E94667AE2E0F0E0A0E8B1E091E07BE714
:109C50000E94667AE3E0F0E0A1E8B1E091E07BE702
:109C60000E94667AE4E0F0E0A2E8B1E091E07BE7F0
:109C70000E94667AE5E0F0E0A3E8B1E091E07BE7DE
:109C80000E94667AE6E0F0E0A4E8B1E091E07BE7CC
:109C90000E94667AE7E0F0E0A5E8B1E091E07BE7BA
:109CA0000E94667AE8E0F0E0A6E8B1E091E07BE7A8
:109CB0000E94667AE9E0F0E0A7E8B1E091E07BE796
:109CC0000E94667AEAE0F0E0A8E8B1E091E07BE784
:109CD0000E94667AE1E0F0E00E94C676E1E0F0E002
:109CE000A0E8B1E091E00E94777AE2E0F0E0A1E83C
:109CF000B1E091E00E94777AE3E0F0E0A2E8B1E021
:109D000091E00E94777AE4E0F0E0A3E8B1E091E02E
:109D10000E94777AE5E0F0E0A4E8B1E091E00E94EB
:109D2000777AE6E0F0E0A5E8B1E091E00E94777A8A
:109D3000E7E0F0E0A6E8B1E091E00E94777AE8E0A1
:109D4000F0E0A7E8B1E091E00E94777AE9E0F0E086
:109D5000A8E8B1E091E00E94777AEAE0F0E0A9E8B3
:109D6000B1E091E00E94777A0E94A27780919D01F4
:109D700080938B010E94124000919D010F3511F0DC
:109D80000C94984F86E080936F0585E08093700572
:109D9000882780937105ECE4F8E00E9404790E9422
:109DA000BF7687E080936F0585E0809370058827F4
:109DB00080937105ECE5F8E00E9404790E94BF767B
:109DC0007091BA0278607093BA020091D5020330A4
:109DD00010F00C94194F88E080936F0581E0809318
:109DE0007005882780937105E8EBF6EF0E940A79E9
:109DF0000E94BF7688E080936F0585E080937005B0
:109E0000882780937105ECE6F8E00E9404790E94AF
:109E1000BF76E6E1F1E0A3E0BEE30E9490790E9404
:109E2000B776E6EDF7EF0E940A790E94BF760C94B0
:109E3000754F0E94A27781E080936F0581E0809347
:109E40007005882780937105E8E7F8E00E9404799F
:109E50000E94BF7683E080936F0585E08093700554
:109E6000882780937105E8E8F8E00E9404790E9451
:109E7000BF7684E080936F0585E080937005882726
:109E800080937105E8E9F8E00E9404790E94BF76AA
:109E900086E080936F0581E080937005882780932A
:109EA0007105E4EBF4E00E9404790E94BF7687E03C
:109EB00080936F0585E080937005882780937105F6
:109EC000E8EAF8E00E9404790E94BF7688E0809377
:109ED0006F0581E080937005882780937105E6EB1C
:109EE000F8E00E9404790E94BF7684E690E00E9428
:109EF00033770091EF01013011F00C94E54E709131
:109F0000BA02777F7093BA0280E080939D0182E06D
:109F10008093EF0181E08093DA0280E08093C702B2
:109F200070910C027F7E70930C020E94A2770895BC
:109F300000919D01003611F00C94E14F87E0809371
:109F40006F0585E080937005882780937105ECE4A8
:109F5000F8E00E9404790E94BF7688E080936F0544
:109F600085E080937005882780937105ECE5F8E023
:109F70000E9404790E94BF767091BA027860709353
:109F8000BA0284E690E00E9433770091EF0101303D
:109F900011F00C94C14F7091BA02777F7093BA029E
:109FA00080E080939D0182E08093EF0181E08093C7
:109FB000DA0270910C027F7E70930C020E94A277ED
:109FC000089500919D01013611F00C94365087E000
:109FD00080936F0581E080937005882780937105D9
:109FE000ECE4F8E00E9404790E94BF7688E0809358
:109FF0006F0581E080937005882780937105ECE5FB
:10A00000F8E00E9404790E94BF7684E690E00E9406
:10A0100033770091EF01013081E009F080E08F9308
:10A02000A3E2B1E00C9101FB81E00EF080E09F9192
:10A03000892B882311F40C940550AAE7B1E0E4ECD5
:10A04000F8E00E9404790E94A57880E080939D0149
:10A0500080E080938B0281E08093DA0270910C02A1
:10A060007F7E70930C020E94A277089500919D015B
:10A07000023611F00C949C5087E080936F0581E0CC
:10A0800080937005882780937105EAECF8E00E94C0
:10A0900004790E94BF7688E080936F0581E0809309
:10A0A0007005882780937105ECEDF8E00E94047933
:10A0B0000E94BF767091BA0278607093BA021198CC
:10A0C00084E690E00E9433770091EF01013081E057
:10A0D00009F080E08F930091EF01013081E009F0F9
:10A0E00080E09F91892B882311F40C947E5082E0AC
:10A0F0008093EF010E94A2770C9480500C946050E2
:10A100007091BA02777F7093BA0282E08093EF0178
:10A1100080E080939D0180E08093A40280E08093A2
:10A12000B80281E08093DA0270910C027F7E709316
:10A130000C020E94A277089500919D01033611F050
:10A140000C94ED507091BA0278607093BA0284E674
:10A1500090E00E9433770091EF01013081E009F037
:10A1600080E08F9341E050E060E070E0A5E2B1E074
:10A170000D911D912D913C910E947D7980E014F00C
:10A1800009F081E09F91892B8F930091EA010130C2
:10A1900081E009F080E09F91892B882311F40C94D1
:10A1A000A75081E08093DA02AAE7B1E0E4ECF8E09E
:10A1B0000E9404790E94A57880E080939D0180E050
:10A1C00080938B0281E08093DA0270910C027F7E93
:10A1D00070930C020E94A277089581E08093DA02C6
:10A1E000E2E0F0E00E94C67600916202033010F0D7
:10A1F0000C94285182E080936F0581E08093700574
:10A20000882780937105EEEEF8E00E9404790E94A1
:10A21000BF7684E080936F0581E080937005882786
:10A2200080937105E0E0F9E00E9404790E94BF7616
:10A23000A2E6B2E08C918F5F8C93EAE0F0E00E949E
:10A24000C67681E0809361020E94A2770C9434511B
:10A250000091EF01013011F00C94345182E08093B1
:10A26000EF0180E08093620208950895A1EDB1E0CE
:10A27000EEE0F9E00E9404790E94A578EAE9F2E0B4
:10A28000A1EDB1E00E9449760E94487AA1EDB1E0CB
:10A290000E944976E4E1F9E00E9404790E94A578E1
:10A2A0000E944652EAE1F9E00E9404790E94817618
:10A2B000A1EDB1E00E947B76E6EEF1E0A3E0BEE323
:10A2C0000E94157A0E9479760E94887684E690E052
:10A2D0000E94337780E0809363028AE090E00E94DE
:10A2E00033778091C70580936402A3E6B2E08C9136
:10A2F0008F5F8C93009163020A3010F40C948251AA
:10A300000C948B5100916402003018F011F00C9401
:10A310008B510C946D518AE090E00E943377089540
:10A32000A1EDB1E0ECE1F9E00E9404790E94A5788A
:10A33000EAE9F2E0A1EDB1E00E9449760E94487A94
:10A34000A1EDB1E00E944976E2E2F9E00E940479D1
:10A350000E94A578EFE9F2E0A1EDB1E00E94497614
:10A360000E94487A0E9446520E94A27782E080931F
:10A370006F0581E080937005882780937105EAE27C
:10A38000F9E00E9404790E94BF76AAE9B2E00E9437
:10A39000B97684E080936F0581E08093700588270B
:10A3A00080937105E2E3F9E00E9404790E94BF7690
:10A3B000AFE9B2E00E94B97600919802023011F044
:10A3C0000C94F35188E080936F0581E080937005D1
:10A3D000882780937105EAE3F9E00E9404790E94DE
:10A3E000BF760C940A5200919802033011F00C943D
:10A3F0000A5288E080936F0581E08093700588277A
:10A4000080937105E4E4F9E00E9404790E94BF762C
:10A410000C940A5287E080936F0581E08093700569
:10A42000882780937105EEE4F9E00E9404790E9488
:10A43000BF7682E08093F001E1E0F0E00E94C67612
:10A440000091F001013011F00C942B5282E08093C6
:10A45000F0010C942D520C941C52EAE1F9E00E9498
:10A4600004790E948176A1EDB1E00E947B76E6EE50
:10A47000F1E0A3E0BEE30E94157A0E9479760E9483
:10A48000887684E690E00E943377089581E090E03A
:10A49000A2E7B1E08D939C93A2E7B1E00D911C91EE
:10A4A0000A3050E015071CF011F00C94675280E060
:10A4B000A2E7B1E0AD90BD90ADE0B2E0AA0DBB1D4A
:10A4C0008C93A2E7B1E00E94FB750C944C5281E0A2
:10A4D000E1EDF1E002E00A93A8E1B2E00E944D7ADA
:10A4E00083E0E1EDF1E002E00A93ABE1B2E00E942B
:10A4F0004D7A85E0E1EDF1E002E00A93AEE1B2E0F1
:10A500000E944D7A87E0E1EDF1E002E00A93A1E2DA
:10A51000B2E00E944D7A89E0E1EDF1E002E00A93B9
:10A52000A4E2B2E00E944D7A8BE0E1EDF1E002E0BE
:10A530000A93A7E2B2E00E944D7A8DE0E1EDF1E0EE
:10A5400002E00A93AAE2B2E00E944D7A8FE0E1EDC8
:10A55000F1E002E00A93ADE2B2E00E944D7A81E1BF
:10A56000E1EDF1E002E00A93A0E3B2E00E944D7A4F
:10A57000A8E1B2E00E942E7AAEE0B2E00C93ABE12B
:10A58000B2E00E942E7AAFE0B2E00C93AEE1B2E00E
:10A590000E942E7AA0E1B2E00C93A1E2B2E00E9408
:10A5A0002E7AA1E1B2E00C93A4E2B2E00E942E7AEE
:10A5B000A2E1B2E00C93A7E2B2E00E942E7AA3E1FE
:10A5C000B2E00C93AAE2B2E00E942E7AA4E1B2E0DB
:10A5D0000C93ADE2B2E00E942E7AA5E1B2E00C93BA
:10A5E000A0E3B2E00E942E7AA6E1B2E00C9380E0F4
:10A5F0008093E60181E090E0A3E3B2E08D939C9329
:10A60000A3E3B2E00D911C91093050E015071CF056
:10A6100011F00C9420530091E601A3E3B2E0AD9059
:10A62000BD90ADE0B2E0AA0DBB1D4C91040FA6EEAB
:10A63000B1E00C93A3E3B2E00E94FB750C940053CD
:10A640000FEF4091E601041BA6EEB1E00C93A6EEDD
:10A65000B1E08C918F5F8C93089508950E94A2774A
:10A660008EE30E9469770E946C778EE30E94657783
:10A670000E946C7784EF91E00E9433778FE30E9411
:10A6800069770E946C778FE30E9465770E946C77F0
:10A690000E94A27780E08A9380E08A9380E08A9388
:10A6A000E6E9F9EE0E940A798827809371050E94F5
:10A6B0001A78E5E0F0E00E94C6760E94A27782E078
:10A6C00080936F0581E080937005882780937105E2
:10A6D000E6E7F9EF0E940A790E94BF7683E0809353
:10A6E0006F0581E080937005882780937105E8E805
:10A6F000F9EF0E940A790E94BF7684E080936F058B
:10A7000081E080937005882780937105EAE5F9E080
:10A710000E9404790E94BF7685E080936F0581E0F6
:10A7200080937005882780937105E2E9FBEF0E9412
:10A730000A790E94BF7686E080936F0581E080935E
:10A740007005882780937105E8EBF6EF0E940A797F
:10A750000E94BF7687E080936F0581E0809370054B
:10A76000882780937105ECE6F9E00E9404790E9445
:10A77000BF76E2E0F0E00E94C6760E94A2770895DC
:10A7800008950091E901043111F00C94D95380E04F
:10A7900090E0A3E6B1E08D939C9370910C027062FF
:10A7A00070930C0270910C027F7B70930C020C94DE
:10A7B000EC5381E08093E90186E090E0A3E6B1E00C
:10A7C0008D939C9370910C027F7B70930C0270911F
:10A7D0000C027F7D70930C020E94A27708950E9464
:10A7E000502E0E94CF2E0E94250A84E690E00E94FF
:10A7F0003377A3E6B1E00D911C91023050E01507CC
:10A8000081E009F080E08F930091D902013081E06E
:10A8100009F080E09F91892B882311F40C94125445
:10A820000C9414540C94F15381E090E0A3E6B1E051
:10A830008D939C930E94A277A3EFB1E088278C931D
:10A84000AEE9B1E088278C93AFEAB1E088278C931A
:10A85000A0ECB1E088278C9382E08093F00182E045
:10A860008093EF0182E08093EB0182E08093EE0120
:10A8700082E08093EC010895089580E090E0ABE3DE
:10A88000B2E08D939C930E94A27782E080936F0543
:10A8900081E080937005882780937105EEE7F9E0E9
:10A8A0000E9404790E94BF7683E080936F0581E067
:10A8B00080937005882780937105EEE8F9E00E9487
:10A8C00004790E94BF7685E080936F0581E08093D4
:10A8D0007005882780937105EEE9F9E00E940479FC
:10A8E0000E94BF7687E080936F0581E080937005BA
:10A8F000882780937105EEEAF9E00E9404790E94AE
:10A90000BF760091F001013011F00C948C5482E07C
:10A910008093F0010C94925484E690E00E94337787
:10A920000C94815482E08093EF0182E08093F001E7
:10A9300082E08093EB0182E08093EE0182E08093DD
:10A94000EA0182E08093ED0100914A02003011F4A7
:10A950000C9426550E94A27781E080936F0581E0D8
:10A9600080937005882780937105EEEBF9E00E94D3
:10A9700004790E94BF7682E080936F0581E0809326
:10A980007005882780937105ECECF9E00E9404794A
:10A990000E94BF7683E080936F0581E0809370050D
:10A9A000882780937105ECEDF9E00E9404790E94FC
:10A9B000BF7684E080936F0581E0809370058827DF
:10A9C00080937105ECEEF9E00E9404790E94BF7655
:10A9D00085E080936F0581E08093700588278093E0
:10A9E0007105ECEFF9E00E9404790E94BF7686E0E1
:10A9F00080936F0581E080937005882780937105AF
:10AA0000EEE0FAE00E9404790E94BF7688E080932D
:10AA10006F0581E080937005882780937105EEE1D2
:10AA2000FAE00E9404790E94BF760091F0010130A3
:10AA300011F00C94205582E08093F0010C9426557F
:10AA400084E690E00E9433770C94155582E0809361
:10AA5000EF0182E08093F00182E08093EB0182E0DD
:10AA60008093EE0182E08093EA0182E08093ED0121
:10AA70000E94A27783E080936F0581E08093700548
:10AA8000882780937105EAE2FAE00E9404790E9427
:10AA9000BF7685E080936F0581E0809370058827FD
:10AAA00080937105EAE3FAE00E9404790E94BF7680
:10AAB000E1E0F0E00E94C67600E010E020E030E047
:10AAC000A9E6B1E00D931D932D933C93ECE3F3E0E5
:10AAD000AAE9B2E00E94487A0E943651A9E4B1E0A6
:10AAE00088278C9380E090E0A7E6B1E08D939C935B
:10AAF0000E94330AA7E6B1E00D911C91093150E0A4
:10AB000015071CF011F00C9487550C94015684E63F
:10AB100090E00E943377A9E6B1E00D911D912D914F
:10AB20003C9141E050E060E070E00E947379A9E65A
:10AB3000B1E00D931D932D933D9346E050E060E00E
:10AB400070E0A9E6B1E00D911D912D913C910E941C
:10AB50007D7911F00C94FD550E94A277E1E0F0E0C0
:10AB60000E94C67682E080936F0581E08093700535
:10AB7000882780937105EAE4FAE00E9404790E9434
:10AB8000BF7683E080936F0581E08093700588270E
:10AB900080937105EAE5FAE00E9404790E94BF768D
:10ABA00084E080936F0581E080937005882780930F
:10ABB0007105ECE6FAE00E9404790E94BF7685E018
:10ABC00080936F0581E080937005882780937105DD
:10ABD000ECE7FAE00E9404790E94BF7686E0809359
:10ABE0006F0581E080937005882780937105EAE8FE
:10ABF000FAE00E9404790E94BF760E94250A0C9414
:10AC0000665581E00E9472788AE0A881B9818D93AF
:10AC100088278C93E881F981A5E6B1E00E94A27AA9
:10AC20000FB681E0481A80E0580A22960FBE11F054
:10AC30000C9478550E94A27782E080936F0581E0A2
:10AC400080937005882780937105E8E9FAE00E94F7
:10AC500004790E94BF7683E080936F0585E080933E
:10AC60007005882780937105E8EAFAE00E9404796C
:10AC70000E94BF76E1E0F0E00E94C67685E0809316
:10AC80006F0581E080937005882780937105E8EB5C
:10AC9000FAE00E9404790E94BF7686E080936F05F7
:10ACA00081E080937005882780937105E8ECFAE0D5
:10ACB0000E9404790E94BF76E1E0F0E00E94C6762F
:10ACC000A9E4B1E088278C93AAE9B2E0E6EAF6EFBE
:10ACD0000E940A790E94A5780E94365180E090E097
:10ACE000A7E6B1E08D939C930E94330AA7E6B1E0FA
:10ACF0000D911C91003157E215071CF011F00C94D6
:10AD000083560C9485560C94605681E00E947278AC
:10AD10008AE0A881B9818D9388278C93E881F98195
:10AD2000A5E6B1E00E94A27A0FB681E0481A80E061
:10AD3000580A22960FBE11F00C947456A9E4B1E0A3
:10AD40000E949A7A082F0F3011F00C94F35688E085
:10AD5000E9E4F1E004E00A93ADE6B1E00E944D7A47
:10AD6000ADE6B1E0E8EDFAE00E9404790E94A07A35
:10AD700081E009F480E08F93ADE6B1E0ECE7F6EF17
:10AD80000E940A790E94A07A81E009F480E09F91F4
:10AD90008923882311F40C94D1560C9460560C949A
:10ADA000F156ADE6B1E0ECE7F6EF0E940A790E94B9
:10ADB000A07A11F00C94E15682E0809398020C94F2
:10ADC000F156ADE6B1E0E8EDFAE00E9404790E94A8
:10ADD000A07A11F00C94F15683E0809398020C94C1
:10ADE000F1560C94F5560C9460560E94250A0E9468
:10ADF000A27782E08093EC0182E08093EB0182E015
:10AE00008093ED0182E08093EE0182E08093EF0178
:10AE100082E08093F001E6E2F0E0A8E9B2E091E0A0
:10AE20007BE70E94667A8AE090E00E9433770E9476
:10AE3000A27700919802033011F00C944E5782E0F3
:10AE400080936F0581E0809370058827809371055A
:10AE5000EEEDFAE00E9404790E94BF7684E08093D0
:10AE60006F0581E080937005882780937105E0EF7E
:10AE7000FAE00E9404790E94BF7686E080936F0515
:10AE800085E080937005882780937105E2E0FBE000
:10AE90000E9404790E94BF760C94A15700919802F9
:10AEA000023011F00C94835782E080936F0581E0AB
:10AEB00080937005882780937105EEEDFAE00E947B
:10AEC00004790E94BF7684E080936F0581E08093CF
:10AED0007005882780937105E0EFFAE00E940479FD
:10AEE0000E94BF7686E080936F0581E080937005B5
:10AEF000882780937105E2E1FBE00E9404790E94BB
:10AF0000BF760C94A15784E080936F0582E0809314
:10AF10007005882780937105E4E2FBE00E940479C4
:10AF20000E94BF7686E080936F0582E08093700573
:10AF3000882780937105E6E3FBE00E9404790E9474
:10AF4000BF76E1E0F0E00E94C6760E94A27782E040
:10AF50008093EC0182E08093EB0182E08093ED012D
:10AF600082E08093EE0182E08093EF0182E08093A3
:10AF7000F00181E08093E901E7E2F4E0AAE9B2E0C0
:10AF80000E94487A00919802033011F00C94D25735
:10AF9000AFE9B2E0E8E4FBE00E9404790E94A57802
:10AFA0000C94DA57AFE9B2E0EEE4FBE00E940479DA
:10AFB0000E94A5780E949051E1E0F0E00E94C676E0
:10AFC000E1EEF3E0AAE9B2E00E94487AAFE9B2E02C
:10AFD000EAE3F6EF0E940A790E94A5780E94905158
:10AFE00000919802033011F00C940058AFE9B2E0E0
:10AFF000E2E9F5EF0E940A790E94A5780C940858BE
:10B00000AFE9B2E0EAE3F6EF0E940A790E94A57880
:10B01000E9E0F4E0AAE9B2E00E94487A0E94905187
:10B020000E94A27781E080936F0581E08093700594
:10B03000882780937105E4E5FBE00E9404790E9473
:10B04000BF7682E080936F0581E08093700588274A
:10B0500080937105E6E6FBE00E9404790E94BF76CA
:10B0600083E080936F0581E080937005882780934B
:10B070007105E8E7FBE00E9404790E94BF7687E053
:10B0800080936F0581E08093700588278093710518
:10B09000E2EFFFEF0E940A790E94BF7688E080937A
:10B0A0006F0581E080937005882780937105E0E04B
:10B0B000F0E00E9404790E94BF7685E080936F05DE
:10B0C00081E080937005882780937105E8EBF6EFA7
:10B0D0000E940A790E94BF7600911E03003011F091
:10B0E0000C94835885E080936F0585E0809370050C
:10B0F000882780937105E6E9FFEF0E940A790E9494
:10B10000BF760C94985800911E03013011F00C94F6
:10B11000985885E080936F0585E0809370058827B7
:10B1200080937105E6EAFFEF0E940A790E94BF76DC
:10B1300084E690E00E9433770091EB01013081E0DA
:10B1400009F080E08F930091EE01013081E009F079
:10B1500080E09F91892B882311F40C94C35882E0DE
:10B160008093EB0182E08093EE0100911E03013099
:10B1700011F00C94C05880E080931E030C94C358C7
:10B1800081E080931E030091F001013011F00C94D6
:10B19000E95882E08093F00182E08093EC0182E044
:10B1A0008093EB0182E08093ED0182E08093EE01D9
:10B1B00082E08093EF01E8E3F0E0AEE1B3E091E0FC
:10B1C0007BE70E94667A84E690E00E9433770C94D5
:10B1D000EB580C945D5800911E03003011F00C9454
:10B1E0000159A3E2B3E0E0EBF6EF0E940A790E9476
:10B1F000A57888EE93E0A3E9B2E08D939C930C943C
:10B200000F59A3E2B3E0E4EBF6EF0E940A790E9443
:10B21000A5788AEA95E0A3E9B2E08D939C930E9419
:10B22000A27781E08093E9018091E90180934B024C
:10B23000E7E1F0E0ABE4B2E091E07BE70E94667A00
:10B240000091E901013011F00C94295988E08093B4
:10B25000A50282E08093EF0182E08093F00182E01A
:10B260008093EB0182E08093EE0182E08093EA011B
:10B2700082E08093ED01A9E4B1E088278C93E5E5B5
:10B28000F3E0AAE9B2E00E94487A0E94365180E0D9
:10B2900090E0A7E6B1E08D939C930E94330AA7E665
:10B2A000B1E00D911C91003157E215071CF011F02F
:10B2B0000C945C590C945E590C943B5981E00E94AB
:10B2C00072788AE0A881B9818D9388278C93E88170
:10B2D000F981A5E6B1E00E94A27A0FB681E0481A92
:10B2E00080E0580A22960FBE11F00C944D59A9E443
:10B2F000B1E00E949A7A082F0F3011F00C94A959EE
:10B3000088E0E9E4F1E004E00A93ADE6B1E00E94F0
:10B310004D7AADE6B1E00E942E7AA9E6B1E00D9338
:10B320001D932D933D93A9E6B1E08D919C91AAE0E8
:10B33000B2E08D939C93AAE0B2E00D911C91003095
:10B3400050E0150711F00C94A7590C943B590C943C
:10B35000AB590C943B590E94250A0E94A277A3EF97
:10B36000B1E0EAE8FBE00E9404790E94A578AEE92A
:10B37000B1E0E6E3F1E00E9404790E94A578AAE03A
:10B38000B2E00D911C910E395CE015070CF402C07F
:10B390000C94DF59ACE8B1E0EAE9FBE00E940479E3
:10B3A0000E94A578AFEAB1E0E0EAFBE00E940479F0
:10B3B0000E94A57881E0809327030C94EF59ACE8B4
:10B3C000B1E0EEEAFBE00E9404790E94A578AFEAC2
:10B3D000B1E0E4EBFBE00E9404790E94A57884E6EA
:10B3E0008093E7010E94EF5387E08093A5020091CC
:10B3F000D902013011F00C94025A80E08093D902F6
:10B400000C94A7570E94A277A3EFB1E0EAE8FBE013
:10B410000E9404790E94A578AFEAB1E0E2ECFBE07B
:10B420000E9404790E94A578ACE8B1E0E2EDFBE06F
:10B430000E9404790E94A57885E68093E7010E9426
:10B44000EF530091D902013011F00C942C5A80E096
:10B450008093D9020C94A757A3EFB1E0E6EDFBE08F
:10B460000E9404790E94A578AFEAB1E0E4EEFBE027
:10B470000E9404790E94A578ACE8B1E0E2EFFBE01D
:10B480000E9404790E94A57886E68093E7010E94D5
:10B49000EF530091D902013011F00C94545A80E01E
:10B4A0008093D9020C94025AA3EFB1E0EAE8FBE0E2
:10B4B0000E9404790E94A578AFEAB1E0E6EFFBE0D4
:10B4C0000E9404790E94A578ACE8B1E0E6E0FCE0D7
:10B4D0000E9404790E94A57887E68093E7010E9484
:10B4E000EF530091D902013011F00C947C5A80E0A6
:10B4F0008093D9020C942C5AA3EFB1E0EAE8FBE068
:10B500000E9404790E94A578AFEAB1E0ECE0FCE08B
:10B510000E9404790E94A578AEE9B1E0ECE1FCE07C
:10B520000E9404790E94A578ACE8B1E0EAE2FCE070
:10B530000E9404790E94A57888E68093E7010E9422
:10B54000EF530091D902013011F00C94AC5A80E015
:10B550008093D9020C94545A0E94A277A3EFB1E0D1
:10B56000EEE2FCE00E9404790E94A578AFEAB1E027
:10B57000EEE3FCE00E9404790E94A578ACE8B1E01B
:10B58000E6E0FCE00E9404790E94A57888E08093C0
:10B59000E7010E94EF530091D902013011F00C94A1
:10B5A000D65A80E08093D9020C947C5A0E94A277EC
:10B5B000A3EFB1E0EEE4FCE00E9404790E94A578DC
:10B5C000AFEAB1E0EEE3FCE00E9404790E94A578C6
:10B5D000ACE8B1E0EEE5FCE00E9404790E94A578B9
:10B5E00087E08093E7010E94EF530091D902013078
:10B5F00011F00C94005B80E08093D9020C94AC5A5B
:10B600000E94A27784E080936F0581E080937005AB
:10B61000882780937105E4E6FCE00E9404790E948B
:10B62000BF768AE090E00E94337700919802023062
:10B6300011F00C942B5BE7E3F3E0AAE9B2E00E947F
:10B64000487AAFE9B2E0EAE3F6EF0E940A790E9495
:10B65000A5780E949051E3E7F3E0AAE9B2E00E94E6
:10B66000487AAFE9B2E0E2E9F5EF0E940A790E9478
:10B67000A5780E949051EDE7F3E0AAE9B2E00E94BC
:10B68000487AAFE9B2E0E6E7FCE00E9404790E9464
:10B69000A5780E949051E7E8F3E0AAE9B2E00E94A1
:10B6A000487A00919802023011F00C94615BAFE986
:10B6B000B2E0E6E7FCE00E9404790E94A5780C94D1
:10B6C000795B00912703003011F00C94715BAFE9B6
:10B6D000B2E0ECE7FCE00E9404790E94A5780C94AB
:10B6E000795BAFE9B2E0E2E8FCE00E9404790E94F5
:10B6F000A5780E949051E1E9F3E0AAE9B2E00E9446
:10B70000487AAFE9B2E0E6E7FCE00E9404790E94E3
:10B71000A5780E949051E2E2F4E0AAE9B2E00E942A
:10B72000487AAFE9B2E0E4E1F9E00E9404790E94CE
:10B73000A5780E94905100919802023011F00C946B
:10B74000B15BE6E9F3E0AAE9B2E00E94487AAFE92A
:10B75000B2E0E8E8FCE00E9404790E94A5780E942B
:10B760009051EBE9F3E0AAE9B2E00E94487AAFE930
:10B77000B2E0E4E1F9E00E9404790E94A5780E9419
:10B780009051E0EAF3E0AAE9B2E00E94487AAFE91A
:10B79000B2E0E4E1F9E00E9404790E94A5780E94F9
:10B7A0009051EFEFF3E0AAE9B2E00E94487AAFE9E6
:10B7B000B2E0E2E5F6EF0E940A790E94A5780E94C5
:10B7C0009051E4EBF3E0AAE9B2E00E94487AAFE9D5
:10B7D000B2E0E6ECF0E00E9404790E94A5780E94B5
:10B7E0009051EEEBF3E0AAE9B2E00E94487AAFE9AB
:10B7F000B2E0EEE8FCE00E9404790E94A5780E9485
:10B800009051E3ECF3E0AAE9B2E00E94487AAFE994
:10B81000B2E0EEE8FCE00E9404790E94A5780E9464
:10B820009051E8ECF3E0AAE9B2E00E94487AAFE96F
:10B83000B2E0EEE8FCE00E9404790E94A5780E9444
:10B840009051EDECF3E0AAE9B2E00E94487AAFE94A
:10B85000B2E0EEE8FCE00E9404790E94A5780E9424
:10B860009051E5EAF3E0AAE9B2E00E94487AAFE934
:10B87000B2E0ECEEF5EF0E940A790E94A5780E94F2
:10B88000905100919802033011F00C94595CAFE98B
:10B89000B2E0E4E9FCE00E9404790E94A578AAE9FC
:10B8A000B2E0EAE9FCE00E9404790E94A5780E94D7
:10B8B0009051EFEAF3E0AAE9B2E00E94487AAFE9DA
:10B8C000B2E0E8E5F6EF0E940A790E94A5780E94AE
:10B8D0009051E2EDF3E0AAE9B2E00E94487A0091CB
:10B8E0009802023011F00C947F5CAFE9B2E0E0EA1C
:10B8F000FCE00E9404790E94A5780C94875CAFE973
:10B90000B2E0E2EFF5EF0E940A790E94A5780E946A
:10B910009051E7EDF3E0AAE9B2E00E94487AAFE97E
:10B92000B2E0E6EAFCE00E9404790E94A5780E9459
:10B930009051ECEDF3E0AAE9B2E00E94487A009160
:10B940009802023011F00C94AF5CAFE9B2E0E2EF84
:10B95000F5EF0E940A790E94A5780C94B75CAFE9D4
:10B96000B2E0E0EAFCE00E9404790E94A5780E941F
:10B9700090510E94A27700919802033011F00C942C
:10B98000D15CE6EEF3E0AAE9B2E00E94487AAFE9C2
:10B99000B2E0EAE3F6EF0E940A790E94A5780E94DD
:10B9A00090510E94A277EBEEF3E0AAE9B2E00E9488
:10B9B000487AAFE9B2E0EAE3F6EF0E940A790E9422
:10B9C000A5780E949051E0EFF3E0AAE9B2E00E946E
:10B9D000487AAFE9B2E0E4E1F9E00E9404790E941C
:10B9E000A5780E949051E5EFF3E0AAE9B2E00E9449
:10B9F000487AAFE9B2E0E8E8FCE00E9404790E94EE
:10BA0000A5780E949051EAEFF3E0AAE9B2E00E9423
:10BA1000487AAFE9B2E0ECEAFCE00E9404790E94C7
:10BA2000A5780E9490510E94A27784E080936F05D0
:10BA300081E080937005882780937105E4E6FCE03F
:10BA40000E9404790E94BF7684E190E00E943377DF
:10BA5000E6E4F3E0AAE9B2E00E94487AAFE9B2E096
:10BA6000E8E8FCE00E9404790E94A5780E949051C9
:10BA7000EBE4F3E0AAE9B2E00E94487AAFE9B2E071
:10BA8000E8E8FCE00E9404790E94A5780E949051A9
:10BA9000E3E1F4E0AAE9B2E00E94487AAFE9B2E05B
:10BAA000EAE3F6EF0E940A790E94A5780E9490517D
:10BAB000EAEAF3E0AAE9B2E00E94487AAFE9B2E02C
:10BAC000EEE8FCE00E9404790E94A5780E94905163
:10BAD00080E08093CA050E94A27781E080936F0581
:10BAE00081E080937005882780937105E2EBFCE08C
:10BAF0000E9404790E94BF7682E080936F0581E006
:10BB000080937005882780937105E2ECFCE00E9429
:10BB100004790E94BF7683E080936F0581E0809373
:10BB20007005882780937105E2EDFCE00E9404799E
:10BB30000E94BF7686E080936F0581E08093700558
:10BB4000882780937105E0EEFCE00E9404790E9452
:10BB5000BF7687E080936F0581E08093700588272A
:10BB600080937105EEEEFCE00E9404790E94BF769E
:10BB700088E080936F0581E080937005882780932B
:10BB80007105E0E0FDE00E9404790E94BF7600911B
:10BB9000CA05003011F00C94DE5D85E080936F05DE
:10BBA00081E080937005882780937105E2E1FDE0D4
:10BBB0000E9404790E94BF760C94ED5D85E080932D
:10BBC0006F0581E080937005882780937105E2E21C
:10BBD000FDE00E9404790E94BF760091EF010130E0
:10BBE00011F00C94245E82E08093EF010091CA056D
:10BBF000003011F00C94115EE3E1F4E0AAE9B2E048
:10BC00000E94487AAFE9B2E0E4E1F9E00E940479E9
:10BC10000E94A5780E94905181E08093CA050C94FF
:10BC2000245E80E08093CA05E3E1F4E0AAE9B2E093
:10BC30000E94487AAFE9B2E0EAE3F6EF0E940A799F
:10BC40000E94A5780E9490510091F001013011F0FE
:10BC50000C942F5E82E08093F0010C94595E009169
:10BC6000EC01013011F00C943A5E82E08093EC011B
:10BC70000C94D65A0091EB01013011F00C94575EF0
:10BC800082E08093EB01F894119A84EF91E0A9E2AD
:10BC9000B1E08D939C9380ED97E00E9433771198EB
:10BCA00080E090E0A9E2B1E08D939C9378940C94AD
:10BCB0006D5D0E94A277E1E0F0E00E94C676AEE4FE
:10BCC000B2E00D9111274EE650E00E947878A4E58D
:10BCD000B2E00D931C93A4E5B2E00D911C9144E6F3
:10BCE00050E00E942F76A4E5B2E04D935C938091E2
:10BCF000540280934E02EEE4F2E0ADE6B1E00E9421
:10BD0000157AEDE6F1E0ACE8B1E01127222704E076
:10BD100033270E94C678EAE5F3E0AAE9B2E00E9480
:10BD2000487AECE8F1E0AFE9B2E00E94487A0E947C
:10BD30009051E8E1F0E0AEE4B2E091E07BE70E94F0
:10BD4000667A0091E901023081E009F080E08F938A
:10BD50000091E901043081E009F080E09F91892B96
:10BD6000882311F40C94BC5E82E390E0A7E3B2E078
:10BD70008D939C930C94C25E82E390E0A7E3B2E0C3
:10BD80008D939C93E6E4F3E0AAE9B2E00E94487A3E
:10BD9000E7E3F2E0AFE9B2E00E94177A0E94905127
:10BDA000EFE0F0E0A7E3B2E092E07BE70E94667A82
:10BDB0000091E901023081E009F080E08F93009169
:10BDC000E901043081E009F080E09F91892B88230C
:10BDD00011F40C94F35E82E390E0A9E3B2E08D935A
:10BDE0009C930C94F95E86E990E0A9E3B2E08D9310
:10BDF0009C93EBE4F3E0AAE9B2E00E94487AE9E31D
:10BE0000F2E0AFE9B2E00E94177A0E949051E1E1BE
:10BE1000F0E0A9E3B2E092E07BE70E94667AE8E115
:10BE2000F4E0AAE9B2E00E94487A00919802023058
:10BE300011F00C94255FAFE9B2E0E4E1F9E00E9473
:10BE400004790E94A5780C942D5FAFE9B2E0E2E39B
:10BE5000FDE00E9404790E94A5780E949051A3E21F
:10BE6000B1E00C9104FB16F40C947F5F0E94A27762
:10BE700082E080936F0585E080937005882780932A
:10BE80007105E8E3FDE00E9404790E94BF7683E03B
:10BE900080936F0585E080937005882780937105F6
:10BEA000E8E4FDE00E9404790E94BF7685E080937B
:10BEB0006F0581E080937005882780937105E6E522
:10BEC000FDE00E9404790E94BF7687E080936F05B1
:10BED00085E080937005882780937105E6EBF8E094
:10BEE0000E9404790E94BF76E2E0F0E00E94C676EC
:10BEF000A3E2B1E00C9104FB16F00C94745FA3E292
:10BF0000B1E00C9101FB16F40C94DE5F0E94A27765
:10BF100081E080936F0581E080937005882780938E
:10BF20007105E2E6FDE00E9404790E94BF7682E09E
:10BF300080936F0585E08093700588278093710555
:10BF4000E2E7FDE00E9404790E94BF7684E08093DE
:10BF50006F0585E080937005882780937105EEE773
:10BF6000FDE00E9404790E94BF7686E080936F0511
:10BF700081E080937005882780937105EEE8FDE0ED
:10BF80000E9404790E94BF7687E080936F0585E068
:10BF900080937005882780937105EEE9FDE00E948B
:10BFA00004790E94BF76E2E0F0E00E94C676A3E248
:10BFB000B1E00C9101FB16F00C94D35F88E893E19B
:10BFC000ABECB5E08D939C930E94A27781E08093C7
:10BFD0006F0585E080937005882780937105EAEAF4
:10BFE000FDE00E9404790E94BF7682E080936F0595
:10BFF00085E080937005882780937105EAEBFDE06A
:10C000000E9404790E94BF7683E080936F0585E0EB
:10C0100080937005882780937105EAECFDE00E940B
:10C0200004790E94BF7684E080936F0581E080935D
:10C030007005882780937105EAEDFDE00E94047980
:10C040000E94BF7686E080936F0581E08093700543
:10C05000882780937105EAEEFDE00E9404790E9432
:10C06000BF7688E080936F0585E080937005882710
:10C0700080937105EAEFFDE00E9404790E94BF768B
:10C080000091F001013011F00C944B6082E080933C
:10C09000F0010C945C600091EC01013011F00C9403
:10C0A000566082E08093EC010C94285D84E690E079
:10C0B0000E9433770C94406080E590E0A7E3B2E003
:10C0C0008D939C93E6E4F3E0AAE9B2E00E94487AFB
:10C0D000E7E3F2E0AFE9B2E00E94177A0E949051E4
:10C0E000EFE0F0E0A7E3B2E092E07BE70E94667A3F
:10C0F0000E94A27782E080936F0585E080937005AF
:10C10000882780937105EAE0FEE00E9404790E948E
:10C11000BF7683E080936F0581E080937005882768
:10C1200080937105EAE1FEE00E9404790E94BF76E7
:10C1300084E080936F0581E0809370058827809369
:10C140007105EAE2FEE00E9404790E94BF7685E074
:10C1500080936F0581E08093700588278093710537
:10C16000EAE3FEE00E9404790E94BF7687E08093B4
:10C170006F0585E080937005882780937105EAEF4D
:10C18000FDE00E9404790E94BF7682E08093EA017C
:10C1900082E08093ED010091F001013011F00C94E8
:10C1A000D66082E08093F0010C9402610091EC0172
:10C1B000013011F00C94E16082E08093EC010C946A
:10C1C000285D0091EA01013081E009F080E08F9361
:10C1D0000091ED01013081E009F080E09F91892319
:10C1E000882311F40C94FC6082E08093EA0182E0E1
:10C1F0008093ED010C94926684E690E00E94337780
:10C200000C94CB600E94A27782E080936F0585E05A
:10C2100080937005882780937105EAE4FEE00E9410
:10C2200004790E94BF7683E080936F0581E080935C
:10C230007005882780937105EAE5FEE00E94047985
:10C240000E94BF7684E080936F0581E08093700543
:10C25000882780937105EAECFDE00E9404790E9432
:10C26000BF7685E080936F0581E080937005882715
:10C2700080937105EAEDFDE00E9404790E94BF768B
:10C2800087E080936F0585E0809370058827809311
:10C290007105ECE6FEE00E9404790E94BF768AE018
:10C2A0008093D402119A81E08093C40270910C02B1
:10C2B000706270930C0280E08093CD0580E090E086
:10C2C000AEECB5E08D939C93E9E1F0E00E94C67678
:10C2D0000E94250AEDE2F3E0AAE9B2E00E94487A62
:10C2E0000E943651A9E4B1E088278C9380E090E069
:10C2F000A7E6B1E08D939C930E94330AA7E6B1E0D4
:10C300000D911C91093150E015071CF011F00C94AF
:10C310008B610C948D610C94686181E00E9472784D
:10C320008AE0A881B9818D9388278C93E881F9816F
:10C33000A5E6B1E00E94A27A0FB681E0481A80E03B
:10C34000580A22960FBE11F00C947C61A9E4B1E06A
:10C350000E949A7A082F0F3011F00C94D46188E073
:10C36000E9E4F1E004E00A93ADE6B1E00E944D7A21
:10C37000ADE6B1E00E942E7A44E853E060E070E060
:10C380000E947D790CF402C00C94D261ADE6B1E05C
:10C390000E94E679A0E5B2E00D931D932D933D93A5
:10C3A0000C94D4610C94686140E050E060E070E06F
:10C3B000A0E5B2E00D911D912D913C910E947D79F7
:10C3C0001CF011F00C94E6610C946861ADECB5E0E2
:10C3D0008C918F5F8C93ACE8B2E04D915C91AEECA8
:10C3E000B5E00D911C910417150710F00C94006234
:10C3F000ACE8B2E08D919C91AEECB5E08D939C934E
:10C400000091CD050E3110F40C9408620C940A6270
:10C410000C94E661119880E08093C40270910C0244
:10C420007F7D70930C02EFE0F0E00E94C676A6EDEF
:10C43000B2E00D911C9148E750E00E947878A0EDA1
:10C44000B5E00D931C93A0EDB5E00D911C9144E671
:10C4500050E00E942F76A0EDB5E04D935C93A6EDE1
:10C46000B2E00D911C9148E050E00E947878A2ED76
:10C47000B5E00D931C93A2EDB5E00D911C914AE03F
:10C4800050E00E942F76A2EDB5E04D935C93A2EDB3
:10C49000B5E04D915C9166277727A0E5B2E00D915C
:10C4A0001D912D913C910E947D791CF011F00C940E
:10C4B0005B620C94DE63A2EDB5E04D915C91662762
:10C4C0007727A0E5B2E00D911D912D913C910E943E
:10C4D0007D7980E014F009F081E08F93A0EDB5E064
:10C4E0004D915C9166277727A0E5B2E00D911D91F3
:10C4F0002D913C910E947D7981E014F009F080E05B
:10C500009F918923882311F40C94E6620E94A277FC
:10C51000A0E5B2E00D911D912D913C914CE050E0D1
:10C5200060E070E00E948278A0E5B2E00D931D9378
:10C530002D933D93A0E5B2E00D911D912D913C917D
:10C540004AE050E060E070E00E94D176A0E5B2E001
:10C550004D935D936D937D93009150024AE00E944C
:10C560008A7AAEE4B2E00C93E8E1F0E0AEE4B2E047
:10C5700091E07BE70E94667AE0E5F2E0ACE8B1E0AA
:10C580000E94197AACE8B1E00E949A7A082F08302C
:10C5900011F00C94D46285E0ECE8F1E004E00A9339
:10C5A000ACE8B1E00E944D7AEAE5F3E0AAE9B2E036
:10C5B0000E94487AECE8F1E0AFE9B2E00E94487AE4
:10C5C0000E9490510C94DE630C94DE63A0EDB5E004
:10C5D0004D915C9166277727A0E5B2E00D911D9102
:10C5E0002D913C910E947D791CF011F00C94FA621F
:10C5F0000C94DE630E94A277A6EDB2E00D911C912F
:10C6000040E950E00E947878A0EDB5E00D931C93CE
:10C61000A0EDB5E00D911C9144E650E00E942F760C
:10C62000A0EDB5E04D935C93E0EDF5E0ACE8B1E052
:10C630000E94177A0091D0054AE00E948A7AAEE4FF
:10C64000B2E00C93E8E1F0E0AEE4B2E091E07BE729
:10C650000E94667AACE8B1E00E949A7A082F08300E
:10C6600011F00C943C6385E0ECE8F1E004E00A93FF
:10C67000ACE8B1E00E944D7AEAE5F3E0AAE9B2E065
:10C680000E94487AECE8F1E0AFE9B2E00E94487A13
:10C690000E949051ABECB5E00D911C9104561040F6
:10C6A000ABECB5E00D931C93EBECF5E0ACE8B1E03E
:10C6B0000E94177AACE8B1E00E949A7A082F0830FD
:10C6C00011F00C946C6385E0ECE8F1E004E00A936F
:10C6D000ACE8B1E00E944D7AE0E5F3E0AAE9B2E00F
:10C6E0000E94487AECE8F1E0AFE9B2E00E94487AB3
:10C6F0000E949051ABECB5E00D911C91043951E1D1
:10C7000015071CF011F00C94DC630091F00101306E
:10C7100011F00C94906382E08093F0010C94966386
:10C72000E1E0F0E00E94C6760C9485630E94A27757
:10C7300082E080936F0585E0809370058827809361
:10C740007105EAE7FEE00E9404790E94BF7683E06B
:10C7500080936F0581E08093700588278093710531
:10C76000EAE8FEE00E9404790E94BF7685E08093AB
:10C770006F0581E080937005882780937105EAE951
:10C78000FEE00E9404790E94BF7686E080936F05E8
:10C7900085E080937005882780937105EAEAFEE0C2
:10C7A0000E9404790E94BF7684E690E00E9433776D
:10C7B0000C9498630C94DE630C94E45FEEECF5E06B
:10C7C000AEECB2E00E94907900911E03003011F0AF
:10C7D0000C94FC63EEECF2E0A3E0BEE30E94487A26
:10C7E000E3E0FEE3AEECB2E01127222703E032E003
:10C7F0000E94C6780C940C64EEECF2E0A3E0BEE379
:10C800000E94487AE3E0FEE3AEECB2E01127222773
:10C8100002E031E00E94C6780E94A27781E0809316
:10C820006F0585E080937005882780937105EAEB9A
:10C83000FEE00E9404790E94BF7682E080936F053B
:10C8400085E080937005882780937105E8ECFEE011
:10C850000E9404790E94BF7684E080936F0589E08E
:10C8600080937005882780937105E4EAF8EF0E94B1
:10C870000A790E94BF76AEECB2E00E94B976E8E495
:10C88000F7EF0E940A790E94BF76A3E2B3E00E940C
:10C89000B97687E080936F0585E0809370058827DF
:10C8A00080937105E0E0F0E00E9404790E94BF7679
:10C8B00088E080936F0585E08093700588278093DA
:10C8C0007105E6EBF8E00E9404790E94BF7682E0F1
:10C8D0008093F00184E690E00E9433770091F001AC
:10C8E000013011F00C94796482E08093F0010C9493
:10C8F0007B640C946A640E94A27782E08093EC01CE
:10C9000082E08093F0010E94A27781E080936F051E
:10C9100085E080937005882780937105EAEAFDE041
:10C920000E9404790E94BF7682E080936F0585E0C3
:10C9300080937005882780937105EAEBFDE00E94E3
:10C9400004790E94BF7683E080936F0585E0809331
:10C950007005882780937105EAEBFEE00E94047958
:10C960000E94BF7684E080936F0585E08093700518
:10C97000882780937105E8EDFEE00E9404790E940B
:10C98000BF7686E080936F0581E0809370058827ED
:10C9900080937105EAEEFDE00E9404790E94BF7663
:10C9A00088E080936F0585E08093700588278093E9
:10C9B0007105EAEFFDE00E9404790E94BF760091C4
:10C9C000F001013011F00C94EA6482E08093F001F0
:10C9D0000C94FB640091EC01013011F00C94F564AF
:10C9E00082E08093EC010C94E45F84E690E00E9486
:10C9F00033770C94DF640E94A27782E080936F0506
:10CA000085E080937005882780937105EAE0FEE059
:10CA10000E9404790E94BF7683E080936F0581E0D5
:10CA200080937005882780937105EAE1FEE00E94FB
:10CA300004790E94BF7684E080936F0585E080933F
:10CA40007005882780937105E8EDFEE00E94047967
:10CA50000E94BF7685E080936F0581E0809370052A
:10CA6000882780937105E8EEFEE00E9404790E9419
:10CA7000BF7687E080936F0585E0809370058827F7
:10CA800080937105EAEFFDE00E9404790E94BF7671
:10CA90000091F001013011F00C94536582E0809315
:10CAA000F0010C9464650091EC01013011F00C94DC
:10CAB0005E6582E08093EC010C94E45F84E690E094
:10CAC0000E9433770C9448650E94A27782E080939D
:10CAD0006F0585E080937005882780937105EAE4EF
:10CAE000FEE00E9404790E94BF7683E080936F0588
:10CAF00081E080937005882780937105EAE5FEE068
:10CB00000E9404790E94BF7684E080936F0585E0DF
:10CB100080937005882780937105EAEBFEE00E9400
:10CB200004790E94BF7685E080936F0585E080934D
:10CB30007005882780937105E8EDFEE00E94047976
:10CB40000E94BF7687E080936F0585E08093700533
:10CB5000882780937105ECE6FEE00E9404790E942C
:10CB6000BF7682E08093C4028AE08093D402709101
:10CB70000C02706270930C0280E08093CD0580E01F
:10CB800090E0AEECB5E08D939C93E9E1F0E00E947B
:10CB9000C676ADECB5E08C918F5F8C93ACE8B2E0DB
:10CBA0004D915C91AEECB5E00D911C910417150709
:10CBB00010F00C94E365ACE8B2E08D919C91AEEC82
:10CBC000B5E08D939C930091CD050E3110F40C943B
:10CBD000EB650C94ED650C94C96580E08093C4020C
:10CBE0001198EFE0F0E00E94C676EEECF5E0AEECD6
:10CBF000B2E00E94907900911E03003011F00C9475
:10CC00001366EEECF2E0A3E0BEE30E94487AE3E0B4
:10CC1000FEE3AEECB2E01127222703E032E00E94EF
:10CC2000C6780C942366EEECF2E0A3E0BEE30E942B
:10CC3000487AE3E0FEE3AEECB2E01127222702E0FF
:10CC400031E00E94C6780E94A27781E080936F0550
:10CC500085E080937005882780937105EAEBFEE0FC
:10CC60000E9404790E94BF7682E080936F0585E080
:10CC700080937005882780937105E8EDFEE00E949F
:10CC800004790E94BF7684E080936F0589E08093E9
:10CC90007005882780937105E4EAF8EF0E940A790D
:10CCA0000E94BF76AEECB2E00E94B976E8E4F7EFFE
:10CCB0000E940A790E94BF76A3E2B3E00E94B9768F
:10CCC00087E080936F0585E08093700588278093C7
:10CCD0007105E0E0F0E00E9404790E94BF7688E0F0
:10CCE00080936F0585E08093700588278093710598
:10CCF000E6EBF8E00E9404790E94BF7682E0809320
:10CD0000F00184E690E00E9433770091F001013059
:10CD100011F00C94906682E08093F0010C9492667E
:10CD20000C9481660E94A27700911E03003011F0DE
:10CD30000C94A2668CE492E0AEECB5E08D939C93EB
:10CD40000C94A86682E593E0AEECB5E08D939C93DD
:10CD5000AEECB5E00D911C914AE050E00E942F76B8
:10CD6000AEECB5E04D935C93AEECB5E00D911C914B
:10CD70004AE050E00E947878AEECB5E00D931C9349
:10CD80000E94A27700911E03003011F00C94D4662B
:10CD9000AEECB5E00D911C91085C1040AAEAB2E03F
:10CDA0000D931C930C94DE66AEECB5E00D911C91D6
:10CDB0000C521140AAEAB2E00D931C93EAEAF2E0A9
:10CDC000ACE8B1E00E949079AEE9B1E0E0E7FDEFB8
:10CDD0000E940A790E94A57800911E03003011F08C
:10CDE0000C94FC66AFEAB1E0E0E8FDEF0E940A793E
:10CDF0000E94A5780C940467AFEAB1E0E0E9FDEF8A
:10CE00000E940A790E94A5788AE08093E7010E9437
:10CE1000EF530091D902013011F00C94146780E0B7
:10CE20008093D9020C94DE6300911E03003011F050
:10CE30000C942667AAEAB2E00D911C9104561040AA
:10CE4000ACEAB2E00D931C930C943067AAEAB2E00E
:10CE50000D911C9106591040ACEAB2E00D931C9361
:10CE6000E9E2F0E0ACEAB2E092E07BE70E94667AA9
:10CE70008CE291E0A7E3B2E08D939C93E6E4F3E0CB
:10CE8000AAE9B2E00E94487AE7E3F2E0AFE9B2E053
:10CE90000E94177A0E949051EFE0F0E0A7E3B2E021
:10CEA00092E07BE70E94667A86E490E0A9E3B2E034
:10CEB0008D939C93EBE4F3E0AAE9B2E00E94487AF8
:10CEC000E9E3F2E0AFE9B2E00E94177A0E949051E4
:10CED000E1E1F0E0A9E3B2E092E07BE70E94667A4C
:10CEE0000E94A27783E080936F0585E080937005B0
:10CEF000882780937105EAEFFEE00E9404790E9482
:10CF0000BF7685E080936F0585E080937005882764
:10CF100080937105EAE0FFE00E9404790E94BF76E9
:10CF200081E090E0A7E6B1E08D939C93A7E6B1E0A5
:10CF30000D911C91083750E015071CF011F00C946E
:10CF4000C56787E080936F058091670180937005C6
:10CF5000882780937105EEE0F0E00E9404790E943A
:10CF6000BF7684E690E00E943377A7E6B1E00D91AA
:10CF70001C91095F1F4FA7E6B1E00D931C93A7E634
:10CF8000B1E00E94FB750C9496670E94A27783E043
:10CF900080936F0581E080937005882780937105E9
:10CFA000E6E1FFE00E9404790E94BF7685E080936D
:10CFB0006F0585E080937005882780937105E4E212
:10CFC000FFE00E9404790E94BF7681E090E0A7E62E
:10CFD000B1E08D939C93A7E6B1E00D911C910837C9
:10CFE00050E015071CF011F00C941A6887E080934C
:10CFF0006F05809167018093700588278093710584
:10D00000EEE0F0E00E9404790E94BF7684E690E0B2
:10D010000E943377A7E6B1E00D911C91095F1F4F85
:10D02000A7E6B1E00D931C93A7E6B1E00E94FB7563
:10D030000C94EB670E94A27781E08093E70184E182
:10D040008093E90180E080934A0285E080938A0220
:10D0500080E0809397028AE08093C30282E080930D
:10D06000B20284E18093BF0281E08093C00280E03D
:10D0700080934F0200911E03003011F00C9454680D
:10D0800084E690E0A1ECB2E08D939C9385E090E083
:10D09000AEEAB2E08D939C9382E390E0A0EBB2E025
:10D0A0008D939C930C94666881E990E0A1ECB2E0CA
:10D0B0008D939C9387E090E0AEEAB2E08D939C93D1
:10D0C00086E490E0A0EBB2E08D939C93E1E2F0E087
:10D0D000AFE4B2E091E07BE70E94667AE0E0F0E046
:10D0E000A9EEB1E091E07BE70E94667AE6E1F0E02C
:10D0F000AAE4B2E091E07BE70E94667AE4E2F0E025
:10D10000AAE8B2E091E07BE70E94667AE5E2F0E00F
:10D11000A7E9B2E091E07BE70E94667AE7E2F0E0FF
:10D12000AAEAB2E092E07BE70E94667AE9E2F0E0E8
:10D13000ACEAB2E092E07BE70E94667AEBE2F0E0D4
:10D14000AEEAB2E092E07BE70E94667AEDE2F0E0C0
:10D15000A0EBB2E092E07BE70E94667AEFE2F0E0BB
:10D16000A2EBB2E091E07BE70E94667AE0E2F0E0B9
:10D17000AFEBB2E091E07BE70E94667AE2E2F0E09A
:10D18000A0ECB2E091E07BE70E94667AE5E3F0E094
:10D19000A1ECB2E092E07BE70E94667AEDE1F0E07C
:10D1A000A3ECB2E091E07BE70E94667A84E690E02F
:10D1B0000E94337782E080936F0581E08093700551
:10D1C000882780937105E0E3FFE00E9404790E94C4
:10D1D000BF7683E080936F0581E080937005882798
:10D1E00080937105E2E4FFE00E9404790E94BF761B
:10D1F00086E080936F0581E0809370058827809397
:10D200007105E4E5FFE00E9404790E94BF7687E0A3
:10D2100080936F0581E08093700588278093710566
:10D22000E6E6FFE00E9404790E94BF76E1E0F0E0CC
:10D230000E94C6760C94166982E08093EF0182E02A
:10D240008093F00182E08093EB0182E08093EE0115
:10D2500082E08093EA0182E08093ED0108950895D1
:10D260002C9A279A26982F9A98E0A3E2B1E011967B
:10D27000983018F4392F992702C038E098502F9829
:10D28000EF93FF93ECE8F1E00E942A77FF91EF9192
:10D2900088941E990894881F2F9AEF93FF93ECE8C7
:10D2A000F1E00E942A77FF91EF913A9541F78E9332
:10D2B0009923F1F6279A26982F9A98E0A4E2B1E0F4
:10D2C0001196983018F4392F992702C038E09850F9
:10D2D0002F98EF93FF93ECE8F1E00E942A77FF91FB
:10D2E000EF9188941E990894881F2F9AEF93FF93CB
:10D2F000ECE8F1E00E942A77FF91EF913A9541F72F
:10D300008E939923F1F62C98A3E2B1E08C918C9343
:10D310009FEF89278C93A3E2B1E08C918F7D8C9352
:10D32000A4E2B1E08C918C939FEF89278C93A3E2C8
:10D33000B1E00C9106FB81E00EF080E08F9300914C
:10D34000EA01003081E009F080E09F918923882381
:10D3500011F40C94B16981E08093EA0186E0809336
:10D360000101A3E2B1E00C9106FB81E00EF480E044
:10D370008F930091EA01013080E010F009F081E024
:10D380009F918923882311F40C94C96980E08093CC
:10D39000EA01A3E2B1E00C9107FB81E00EF080E02E
:10D3A0008F930091EB01003081E009F080E09F91C4
:10D3B0008923882311F40C94E36981E08093EB01C5
:10D3C00086E080930101A3E2B1E00C9107FB81E0CC
:10D3D0000EF480E08F930091EB01013080E010F0BB
:10D3E00009F081E09F918923882311F40C94FB6953
:10D3F00080E08093EB01A4E2B1E00C9100FB81E0BE
:10D400000EF080E08F930091EC01003081E009F094
:10D4100080E09F918923882311F40C94156A81E0A0
:10D420008093EC0186E080930101A4E2B1E00C91CD
:10D4300000FB81E00EF480E08F930091EC0101305D
:10D4400080E010F009F081E09F918923882311F496
:10D450000C942D6A80E08093EC01A4E2B1E00C9181
:10D4600001FB16F00C94476AADE1B3E08C918F5F3D
:10D470008C9300911D03083C18F011F00C94426A43
:10D480000C94456A88EC80931D030C944A6A80E0F2
:10D4900080931D0300911D030E3181E008F480E0AC
:10D4A0008F930091ED01003081E009F080E09F91C1
:10D4B0008923882311F40C946C6A81E08093ED0138
:10D4C00086E0809301010091A402013011F00C94D8
:10D4D0006C6A82E08093ED0100911D03003081E0D1
:10D4E00009F080E08F930091ED01013080E010F0B1
:10D4F00009F081E09F918923882311F40C94836AB9
:10D5000080E08093ED01A4E2B1E00C9102FB81E0A8
:10D510000EF080E08F930091EE01003081E009F081
:10D5200080E09F918923882311F40C949D6A81E007
:10D530008093EE0186E080930101A4E2B1E00C91BA
:10D5400002FB81E00EF480E08F930091EE01013048
:10D5500080E010F009F081E09F918923882311F485
:10D560000C94B56A80E08093EE01A4E2B1E00C91E6
:10D5700003FB81E00EF080E08F930091EF0100301B
:10D5800081E009F080E09F918923882311F40C94B5
:10D59000D26A81E08093EF0180E08093D50286E03B
:10D5A00080930101A4E2B1E00C9103FB81E00EF451
:10D5B00080E08F930091EF01013080E010F009F0DE
:10D5C00081E09F918923882311F40C94EA6A80E01A
:10D5D0008093EF01A4E2B1E00C9104FB81E00EF036
:10D5E00080E08F930091F001003081E009F080E04D
:10D5F0009F918923882311F40C94046B81E080931C
:10D60000F00186E080930101A4E2B1E00C9104FBFB
:10D6100081E00EF480E08F930091F001013080E012
:10D6200010F009F081E09F918923882311F40C9474
:10D630001C6B80E08093F001089508950F921F9273
:10D640002F923F924F925F927F92AF92BF920F9331
:10D650001F932F933F934F935F936F937F938F937A
:10D660009F93AF93BF93CF93DF93EF93FF938FB7C6
:10D670008F938BB78F9388278BBF789470E076BD9C
:10D6800000910101003018F011F00C94496B0C94DA
:10D69000506B809101018150809301010C94506B7B
:10D6A00000910001003018F011F00C94596B0C94AB
:10D6B000606B809100018150809300010C94986B05
:10D6C0008DE38093000188E089B981E08093D405DF
:10D6D0000091D405003118F011F00C94986BA4ED72
:10D6E000B5E0AD90BB24A0E0B1E0AA0CBB1CAA0D34
:10D6F000BB1D0D911C91003050E0150718F011F082
:10D700000C94846B0C94906BA4EDB5E0AD90BB24AD
:10D71000A0E0B1E0AA0CBB1CAA0DBB1D0E940276C2
:10D72000A4EDB5E08C918F5F8C9310F40C94686B32
:10D730000E9430690E94F009ACE0B2E08C9185FB58
:10D7400016F00C94E2730091ED01013011F00C948D
:10D75000C56B82E08093ED010091DC02003011F096
:10D760000C94B46B0C94C56B0091B802003011F0AE
:10D770000C94BF6B81E08093B8020C94C56B80E081
:10D780008093B80281E08093DA02A3E2B1E00C91C9
:10D7900004FB16F00C94E16B0091DB020A3010F0F0
:10D7A0000C94D96BABEDB2E08C918F5F8C930C94A1
:10D7B000DF6B8AE08093DB0281E08093DC020C94D3
:10D7C000F76B0091DB02003018F011F00C94EA6B5B
:10D7D0000C94F16BABEDB2E08C9181508C930C9476
:10D7E000F76B80E08093DB0280E08093DC02ACE0AA
:10D7F000B2E08C9186FB16F40C94516C0091D4022B
:10D80000003011F00C941C6C0091B802003081E0E3
:10D8100009F080E08F930091DC02013081E009F093
:10D8200080E09F918923882311F40C941C6C7091E3
:10D830000C02706470930C027091BA027F7B70933B
:10D84000BA02AFEBB2E08C91A6E0B1E08D938827ED
:10D850008C93AAE8B2E08C91A8E0B1E08D93882780
:10D860008C93A0ECB2E08C91AEE0B1E08D93882770
:10D870008C937091BA027F7D7093BA027091BA0254
:10D880007F7E7093BA028CE390E0AAE0B1E08D93C2
:10D890009C9380E08093B30280E08093B4020C9468
:10D8A000526EAAEBB2E08C9183FB16F40C94646C7C
:10D8B000A3ECB2E00D9111274CE350E00E94787880
:10D8C000A6E1B1E00D931C93A6E1B1E00D911C918E
:10D8D000003050E0150718F011F00C947D6C0091A9
:10D8E000D502033010F00C947D6C81E08093EF0141
:10D8F000A5EDB2E08C918F5F8C93A3E2B1E00C9127
:10D9000001FB16F40C949C6C0091B902043610F0E3
:10D910000C94916CA9EBB2E08C918F5F8C930C947A
:10D920009A6C84E68093B90270910C027F7B7093AD
:10D930000C0211980C949F6C80E08093B9020091C6
:10D94000D402003081E009F080E08F93A2E2B0E0E1
:10D950000C9101FB81E00EF080E09F9189238F9371
:10D96000A1ECB2E00D911C91003050E0150780E071
:10D9700010F009F081E09F9189238F93A1ECB2E030
:10D980004D915C91ACE8B2E00D911C910417150724
:10D9900081E008F080E09F9189238F93ACE0B2E0B2
:10D9A0008C9184FB81E00EF480E09F918923882391
:10D9B00011F40C94046DA2E1B1E00D911C910030C2
:10D9C00050E0150718F011F00C94026D80E090E023
:10D9D000A2E1B1E08D939C930091C7020E3F10F03D
:10D9E0000C94F96CA7ECB2E08C918F5F8C930C9443
:10D9F000026D8EEF8093C70270910C027F7B709353
:10DA00000C0211980C94136DA7E3B2E00D911C91D8
:10DA10004AE050E00E942F76A2E1B1E04D935C9382
:10DA200080E08093C702A3E2B1E00C9102FB16F004
:10DA30000C94226DAAE8B2E08C91A8E0B1E08D933D
:10DA400088278C9300919702003081E009F080E0F4
:10DA50008F93A4E2B1E00C9103FB81E00EF080E033
:10DA60009F91892B882311F40C943E6DAAE8B2E0B3
:10DA70008C91A8E0B1E08D9388278C9311990C9438
:10DA8000496DAAE8B2E08C91A8E0B1E08D938827B7
:10DA90008C93A8E0B1E00D911C91003050E0150787
:10DAA00018F011F00C94636D80E090E0A8E0B1E014
:10DAB0008D939C9370910C02706170930C0211987D
:10DAC00081E08093A402AAE0B1E00D911C910030A6
:10DAD00050E0150711F00C94786D8CE390E0AAE00B
:10DAE000B1E08D939C93A3EBB2E08C918F5F8C930C
:10DAF0000091B3020C3310F40C94916D80E080938C
:10DB0000B302A4EBB2E08C918F5F8C930091B402CE
:10DB10000E3F10F40C948F6D80E08093B4020C944F
:10DB2000916DAAEBB2E08C9186FB16F00C94A46D7B
:10DB30008CE390E0AAE0B1E08D939C9380E0809329
:10DB4000B30280E08093B4020091D402003011F05F
:10DB50000C94526EAAEBB2E08C9186FB16F00C94FA
:10DB6000DB6DA6E8B2E04D915D916D917C91A5E2EF
:10DB7000B1E00D911D912D913C91041715072607D9
:10DB8000370718F011F00C94D46DA0ECB2E08C9132
:10DB9000AEE0B1E08D9388278C937091BA027F7EBE
:10DBA0007093BA020C94D96D7091BA02706170933F
:10DBB000BA020C94E86DA0ECB2E08C91AEE0B1E05A
:10DBC0008D9388278C937091BA027F7E7093BA02EE
:10DBD000AEE0B1E00D911C91003050E0150718F057
:10DBE00011F00C94FF6D80E090E0AEE0B1E08D9319
:10DBF0009C93119A7091BA027F7B7093BA02A2E84B
:10DC0000B2E04D915D916D917C91A5E2B1E00D91F5
:10DC10001D912D913C91041715072607370710F425
:10DC20000C94216EAFEBB2E08C91A6E0B1E08D9345
:10DC300088278C937091BA027F7D7093BA020C94FE
:10DC4000266E7091BA0270627093BA020091DA0285
:10DC5000013011F00C94356E80E090E0A6E0B1E068
:10DC60008D939C9380E08093DA02A6E0B1E00D9161
:10DC70001C91003050E0150718F011F00C94526E12
:10DC800080E090E0A6E0B1E08D939C937091BA02A1
:10DC900070647093BA0280E08093B40280E0809355
:10DCA000B3021198ACE0B2E08C9186FB81E00EF4F7
:10DCB00080E08F93AAEBB2E08C9186FB81E00EF0BE
:10DCC00080E09F91892B882311F40C94736EA7E355
:10DCD000B2E00D911C914AE050E00E942F76A4E141
:10DCE000B1E04D935C9311990C94796E10980C945B
:10DCF000A36EA4E1B1E00D911C91003050E0150736
:10DD000081E010F009F080E08F93A8E6B2E04D9139
:10DD10005D9157FB1EF46FEF7FEF02C066277727F8
:10DD2000A5E2B1E00D911D912D913C910E947D796C
:10DD300081E014F009F080E09F91892B882311F491
:10DD40000C94A36E109AA3E2B1E00C9103FB16F0C1
:10DD50000C94B76EACEAB2E08D919C91A6EAB2E069
:10DD60008D939D9388278D938C930C94C26EAAEA11
:10DD7000B2E08D919C91A6EAB2E08D939D938827A5
:10DD80008D938C93A6EAB2E00D911C91AEEAB2E0BD
:10DD90004D915C91040F151FABEBB2E00D931C93FA
:10DDA000A6EAB2E00D911C91A0EBB2E04D915C911E
:10DDB000041B150BADEBB2E00D931C93A6EAB2E089
:10DDC0000D911D912D913C91A5E9B2E04D915C9191
:10DDD000662777270E948278AEE7B2E00D931D9305
:10DDE0002D933D93AEE7B2E00D911D912D913C91A5
:10DDF000A3E9B2E04D915C91662777270E94D8761F
:10DE0000AEE7B2E04D935D936D937D93A5E9B2E0EB
:10DE10000D911C9122273327AEE7B2E04D915D9121
:10DE20006D917C910E947879AEE7B2E00D931D93DD
:10DE30002D933D93ABEBB2E00D911C91222733273C
:10DE4000A5E9B2E04D915C91662777270E94827820
:10DE5000A2E8B2E00D931D932D933D93A2E8B2E0AA
:10DE60000D911D912D913C91A3E9B2E04D915C91F2
:10DE7000662777270E94D876A2E8B2E04D935D939B
:10DE80006D937D93A5E9B2E00D911C912227332774
:10DE9000A2E8B2E04D915D916D917C910E947879FC
:10DEA000A2E8B2E00D931D932D933D93ADEBB2E04C
:10DEB0000D911C9122273327A5E9B2E04D915C9189
:10DEC000662777270E948278A6E8B2E00D931D931B
:10DED0002D933D93A6E8B2E00D911D912D913C91BB
:10DEE000A3E9B2E04D915C91662777270E94D8762E
:10DEF000A6E8B2E04D935D936D937D93A5E9B2E002
:10DF00000D911C9122273327A6E8B2E04D915D9137
:10DF10006D917C910E947879A6E8B2E00D931D93F3
:10DF20002D933D9300918B02083710F40C94A46F4D
:10DF300088E780938B0283E680939D0170910C02A9
:10DF40007F7B70930C021198ACE0B2E08C9185FB62
:10DF500081E00EF080E08F9340E050E060E070E000
:10DF6000A5E2B1E00D911D912D913C910E947D792A
:10DF700081E009F080E09F9189238F930091D40282
:10DF8000003081E009F080E09F9189238F93009118
:10DF9000D802003081E009F080E09F918923882336
:10DFA00011F40C94DA6FABE8B2E08C918F5F8C9334
:10DFB0000C94DD6F80E080938B02AEE7B2E04D9170
:10DFC0005D916D917C91A8E6B2E00D911D9117FBDA
:10DFD0001EF42FEF3FEF02C0222733270417150747
:10DFE0002607370711F40C94FD6FAEE7B2E08D9170
:10DFF0009C91A8E6B2E08D939C93A5E9B2E04D9187
:10E000005C9166277727A5E2B1E00D911D912D91D6
:10E010003C910E947D791CF011F00C9411700C94CD
:10E020001C70A5E9B2E08D919C91A5E2B1E08D93C1
:10E030009D9388278D938C93A5E9B2E00D911C9157
:10E0400022273327A5E2B1E04D915D916D917C913E
:10E050000E947879ACE5B2E00D931D932D933D932A
:10E06000ACE5B2E00D911D912D913C91A3E9B2E098
:10E070004D915C91662777270E948278ACE5B2E0EB
:10E080000D931D932D933D93ACE5B2E00D911D9141
:10E090002D913C91A5E9B2E04D915C9166277727DF
:10E0A0000E94D876ACE5B2E04D935D936D937D937D
:10E0B000A5E2B1E00D911C91A8E6B2E04D915C9112
:10E0C000041B150BAAE6B2E00D931C93ACE5B2E07D
:10E0D0008D919C91ACE8B2E08D939C930091B80235
:10E0E000013081E009F080E08F930091DB02003085
:10E0F00081E010F009F080E09F91892B8F930091CF
:10E100008B02083781E008F480E09F91892B8823F7
:10E1100011F40C94917070910C027F7B70930C023F
:10E120001198A5E9B2E04D915C91A6E6B2E00D919F
:10E130001C91041715070CF402C00C945C71AAE63C
:10E14000B2E00D911C91063950E015070CF002C0A9
:10E150000C94B870AEE6B2E00D911C91ACE7B2E061
:10E160004D915C91040F151FAEE6B2E00D931C9328
:10E17000AAE6B2E00D911C91043650E0150780E04C
:10E180000CF081E08F93AAE6B2E00D911C91063964
:10E1900050E0150780E00CF481E09F9189238823EB
:10E1A00011F40C94E170AEE6B2E00D911C91AAE777
:10E1B000B2E04D915C91040F151FAEE6B2E00D93F5
:10E1C0001C93AAE6B2E00D911C91023350E01507B2
:10E1D00080E00CF081E08F93AAE6B2E00D911C91F3
:10E1E000043650E0150780E00CF481E09F9189230C
:10E1F000882311F40C940A71AEE6B2E00D911C91E3
:10E20000A8E7B2E04D915C91040F151FAEE6B2E0B5
:10E210000D931C93AAE6B2E00D911C910A3050E0D8
:10E22000150780E00CF081E08F93AAE6B2E00D9133
:10E230001C91023350E0150780E00CF481E09F91BF
:10E240008923882311F40C943371AEE6B2E00D916A
:10E250001C91A4E7B2E04D915C91040F151FAEE64E
:10E26000B2E00D931C93AAE6B2E00D911C9102302E
:10E2700050E0150780E00CF081E08F93AAE6B2E051
:10E280000D911C910A3050E0150780E00CF481E0FC
:10E290009F918923882311F40C945C71AEE6B2E05F
:10E2A0000D911C91A2E7B2E04D915C91040F151FF6
:10E2B000AEE6B2E00D931C93A6E6B2E00D911C9180
:10E2C000003050E015071CF011F00C9469710C94AB
:10E2D0002E72AAE6B2E00D911C910E3F5FEF15077A
:10E2E00081E014F009F080E08F93AAE6B2E00D918E
:10E2F0001C91063F5FEF150780E014F009F081E004
:10E300009F918923882311F40C949471AEE6B2E0B6
:10E310000D911C91A2E7B2E04D915C91041B150B8D
:10E32000AEE6B2E00D931C93AAE6B2E00D911C910B
:10E33000063F5FEF150781E014F009F080E08F934E
:10E34000AAE6B2E00D911C910E3C5FEF150780E04C
:10E3500014F009F081E09F918923882311F40C9433
:10E36000BF71AEE6B2E00D911C91A6E7B2E04D910F
:10E370005C91041B150BAEE6B2E00D931C93AAE66C
:10E38000B2E00D911C910E3C5FEF150781E014F097
:10E3900009F080E08F93AAE6B2E00D911C910C3950
:10E3A0005FEF150780E014F009F081E09F91892369
:10E3B000882311F40C94EA71AEE6B2E00D911C9141
:10E3C000A8E7B2E04D915C91041B150BAEE6B2E0FC
:10E3D0000D931C93AAE6B2E00D911C910C395FEFEE
:10E3E000150781E014F009F080E08F93AAE6B2E00F
:10E3F0000D911C910A365FEF150780E014F009F0CB
:10E4000081E09F918923882311F40C941572AEE664
:10E41000B2E00D911C91AAE7B2E04D915C91041B12
:10E42000150BAEE6B2E00D931C93AAE6B2E00D9197
:10E430001C910A365FEF15071CF011F00C942E7238
:10E44000AEE6B2E00D911C91ACE7B2E04D915C916B
:10E45000041B150BAEE6B2E00D931C93AEE6B2E0E2
:10E460000D911C910A3558ED15071CF011F00C9414
:10E470003F728AE598EDAEE6B2E08D939C93AEE6EE
:10E48000B2E00D911C91063A57E215070CF002C05C
:10E490000C94507286EA97E2AEE6B2E08D939C93BC
:10E4A000AEE6B2E00D911C914AE050E00E940F767A
:10E4B000ACE6B2E04D935C93ACE6B2E00D911C91FA
:10E4C000073F53E015071CF011F00C9469720C948F
:10E4D0006F7287EF93E0ACE6B2E08D939C93ACE66D
:10E4E000B2E00D911C9109305CEF15070CF402C0ED
:10E4F0000C94807289E09CEFACE6B2E08D939C9323
:10E50000AAE6B2E00D911C91A0E7B2E04D915C91BA
:10E510000E947878AAE6B2E00D931C93AAE6B2E0D6
:10E520008D919C91A6E6B2E08D939C93A6E6B2E015
:10E530000D911C91ACE6B2E04D915C91040F151F5A
:10E54000A6E6B2E00D931C93A6E6B2E00D911C91F5
:10E55000073F53E015071CF011F00C94B1720C94B6
:10E56000B77287EF93E0A6E6B2E08D939C93A6E6A0
:10E57000B2E00D911C91003050E015070CF402C080
:10E580000C94C87280E090E0A6E6B2E08D939C9374
:10E590000091D402013011F00C9424730091DC023C
:10E5A000013081E009F080E08F930091B8020030E3
:10E5B00081E009F080E09F918923882311F40C9475
:10E5C0002473A3E2B1E00C9100FB16F00C942073CD
:10E5D0000091B5020E3110F00C94F572A5EBB2E08B
:10E5E0008C918F5F8C930C941E738FEF93E0A6E653
:10E5F000B2E08D939C93119A7091BA027F7B7093D5
:10E60000BA027091BA027F7D7093BA027091BA0219
:10E610007F7E7093BA02AFEBB2E08C91A6E0B1E0DE
:10E620008D9388278C93A0ECB2E08C91AEE0B1E0A2
:10E630008D9388278C9380E080938B020C942473B5
:10E64000119880E08093B5020091D402023011F05D
:10E650000C943E730091B802003011F00C943873A2
:10E6600070910C02706470930C02119A0C943E73BA
:10E6700070910C027F7B70930C021198A7E3B2E0BB
:10E680000D911C914AE050E00E942F76A2E0B1E08B
:10E690004D935C93ACE0B2E08C9180FB16F40C944B
:10E6A00097730091B802003081E009F080E08F9309
:10E6B0000091DB020E3181E008F480E09F91892314
:10E6C0008F93ACE0B2E08C9184FB81E00EF480E0AB
:10E6D0009F918923882311F40C94957370910C02F7
:10E6E000706470930C0280E090E0A9E2B1E08D9339
:10E6F0009C93A2E8B2E04D915D916D917C91A5E271
:10E70000B1E00D911D912D913C910417150726073D
:10E71000370710F00C949573119A81E08093DA0218
:10E720007091BA0270647093BA020C949A7382E08A
:10E730008093ED010091D402023011F00C94A77384
:10E74000109A8FEF93E0A6E6B2E08D939C93009130
:10E75000D4020A3011F00C94C7730091C402013046
:10E7600011F00C94BA738FEF93E0A6E6B2E08D93AC
:10E770009C93119A0091C402023011F00C94C7735B
:10E7800080E090E0A6E6B2E08D939C93119A009110
:10E790006102013011F00C94D77380E08093610224
:10E7A00082E090E0ACE0B1E08D939C93299AACE0DC
:10E7B000B1E00D911C91003050E0150711F00C9460
:10E7C000E2732998A6E6B2E011968C9180938900B5
:10E7D000A6E6B2E08C9180938800119B0C94FE73A6
:10E7E000AAEBB2E08C9182FB16F40C94FC7370914E
:10E7F000BA0274607093BA020C942C74AAEBB2E063
:10E800008C9182FB16F00C942C747091BA027B7F71
:10E810007093BA02AEEDB2E00D911C910F5F1F4FE5
:10E82000AEEDB2E00D931C93AEEDB2E00D911C91F4
:10E83000083E5DEF150710F40C94247488EE9DEFEC
:10E84000AEEDB2E08D939C93AEEDB2E08D919C91D4
:10E85000A5EEB2E08D939C93A0E1B1E00D911C91E7
:10E86000003050E0150718F011F00C94747480E13A
:10E870009EE0A0E1B1E08D939C9388E18093E40257
:10E880004091E40202E0041718F011F00C9468744F
:10E89000A4EEB2E0AD90BB24A1EEB2E0AA0CBB1C8A
:10E8A000AA0DBB1D8D919C91A4EEB2E0AD90BB244E
:10E8B000A3EEB2E0AA0CBB1CAA0DBB1D8D939C93CA
:10E8C0008091E40281508093E40210F00C94407433
:10E8D00080E090E0A5EEB2E08D939C9380E090E024
:10E8E000AEEDB2E08D939C93A5EEB2E08D919C913C
:10E8F000A0EEB2E08D939D9388278D938C9382E058
:10E900008093E4020091E402083118F011F00C94B5
:10E91000AD74A0EEB2E00D911D912D913C91A4EE4D
:10E92000B2E0AD90BB24A3EEB2E0AA0CBB1CAA0DD2
:10E93000BB1D4D915C91662777270E947379A0EEED
:10E94000B2E00D931D932D933D93A4EEB2E08C9114
:10E950008F5F8C9310F40C9482748F918BBF8F9186
:10E960008FBFFF91EF91DF91CF91BF91AF919F91B9
:10E970008F917F916F915F914F913F912F911F9157
:10E980000F91BF90AF907F905F904F903F902F90EE
:10E990001F900F9018954080FF01AA0201F111AA63
:10E9A0007511F101AA0201FFAA01FF00AA0200FFEE
:10E9B00000AA040040C0AA01C08000AA040080C0D0
:10E9C000AA03C000AA050080C0AA01C04000AA0D89
:10E9D0000080AA028000AA2500C0AA09C000AA01DE
:10E9E00000E0AA02E000AA1200FF00AA0200FFAAAB
:10E9F00001FF00AA0200FF00AA050007FFAA01FF0D
:10EA0000F88000AA0100F0FF7F077FFFFEF000AA58
:10EA1000010080F8FF7F0700AA010038AA01389C96
:10EA2000AA049CFCF8F0001CAA011CFFAA02FF1C0F
:10EA3000AA021C00AA0100C0F0F8381CAA031C3C62
:10EA4000F8F0E000AA0200FCAA02FC381CAA031C91
:10EA50000080AA068000AA0100FFAA02FFE1AA0620
:10EA6000E100AA0100FFAA02FF00AA0200C0F0F81C
:10EA7000381CAA041C3CF8F0E000AA0200FF00AA1F
:10EA80000200FFAA01FF00AA0200FF00AA07000F70
:10EA90007FAA017F707FAA017F0F00AA0200033FB7
:10EAA0007FAA017F707FAA017F0700AA02001E3F94
:10EAB0007F73AA017371AA0171397FAA027F00AA2C
:10EAC00002001F7FAA017F70AA027000AA01000F36
:10EAD0001F3F7B73AA04733BAA013B0300AA0200F9
:10EAE0007FAA027F00AA050003AA060300AA01006C
:10EAF0007FAA027F00AA08007FAA027F00AA020064
:10EB00000F1F3F7870AA0470383F1F0700AA020049
:10EB1000FF00AA0200FFAA01FF00AA0200FF00AA4C
:10EB200003000CAA6F0C00AA0100FF00AA0200FF5C
:10EB3000AA01FF00AA0200FF00AA1F004000AA06C7
:10EB40000040C000AA080040C000AA130040C00056
:10EB5000AA2A00FF00AA0200FFAA01FF00AA0200E1
:10EB6000FF00AA0500020E300A0E300E020E300A17
:10EB70000E300E020E300A0E300E02002080827E11
:10EB8000001C22AA02221C00203F22023E20223E1C
:10EB900022023E201F22AA01221C00223E24021C27
:10EBA00022AA02221C001C22AA02221C00203F08CA
:10EBB000362200242A1A00AA010020001C22AA01E1
:10EBC0002226001C22AA02221C00AA0100200022E8
:10EBD0003E24023E2026322A263200AA0600FF00EA
:10EBE000AA0200FFAA01FF80AA02808F88AA758866
:10EBF0008F80AA0280FFED91FC91EF5FFF4FFC93A5
:10EC0000EE930895ED91FC91E150F040FC93EE936A
:10EC1000089509D00E94787800FC10D0089503D0A0
:10EC20001ED001F8F9CF0024E89457FF02C009D0A4
:10EC3000689400F80BD010F80124089502D009D090
:10EC40000895509540954F5F5F4F0895E89417FFE2
:10EC50000895009510950F5F1F4F68940895352F04
:10EC6000242FE894452B11F468940895512F402FD8
:10EC70000027112780E1440F551F001F111F021BA1
:10EC8000130B416018F4020F131F4E7F8A9599F7FA
:10EC900008958F938D918823E9F711978F910895A7
:10ECA0008091C705882309F408950F929F93AF932D
:10ECB000BF937F938091C7058823E1F3F8948091F7
:10ECC000C7058A958093C7059091C505ADE9B5E064
:10ECD000A90F0024B01D8C919395983209F49927BF
:10ECE0009093C50578947F91BF91AF919F910F90BC
:10ECF0000895A3E0BEE38D91882311F00CD0FBCFE3
:10ED000008950E94B678802D11F005D0FACF0895AD
:10ED10008DE001D08AE09F939FB79F93AF93BF93FD
:10ED20000F937F9390919C059832E1F3F894909122
:10ED30009C05939590939C05992700919B05A2E7CC
:10ED4000B5E0A00FB91F8C930395083209F4002792
:10ED500000939B057091C10070627093C1007F9118
:10ED60000F91BF91AF919F919FBF9F910895A3E095
:10ED7000BEE38D91882311F00FD0FBCF08950E9440
:10ED8000B678802D11F008D0FACF089588EE93E080
:10ED90006AD03197D9F708950C94B67700FC05D066
:10EDA000089530D005D001F8F9CF37D03FD008957D
:10EDB000842F952FA62FB72FE894452B462B472B52
:10EDC00011F468940895402F512F622F732F00275C
:10EDD000112722273327F0E2440F551F661F771FA4
:10EDE000001F111F221F331F081B190B2A0B3B0B7F
:10EDF000416028F4080F191F2A1F3B1F4E7FFA9508
:10EE000059F708950024E89477FF02C006D068946B
:10EE100000F809D010F80124089512D04F5F5F4F19
:10EE20006F4F7F4F0895E89437FF08950095109530
:10EE3000209530950F5F1F4F2F4F3F4F68940895D7
:10EE400040955095609570950895042B152B262BB1
:10EE5000372B08953197F1F70895689462F8089573
:10EE6000E89462F80895EF93FF93EE27E82BE92BDF
:10EE700031F0E0EAFFE03197F1F70197D1F7FF9128
:10EE8000EF91089544271FD01498169A179884E696
:10EE900099270E9433779FEF97B9149A31D015982C
:10EEA00038D017FCFBCF07D04FEF0DD029D01598E5
:10EEB00030D017FCFBCF8FE30FD080EC0DD080E477
:10EEC0000BD088EB09C0403420F0139A14984054BA
:10EED0000895149A1398089513D0159802C010D06D
:10EEE000159A88B91698EF93E8E0EA95F1F7EF9153
:10EEF000179AEF93E8E0EA95F1F7EF9117980895E4
:10EF00001F92159806D017FCFCCF1F900895F8DFCC
:10EF1000159A992797B99FEF98B9169AEF93E8E059
:10EF2000EA95F1F7EF91179AEF93E8E0EA95F1F798
:10EF3000EF9116B01798EF93E8E0EA95F1F7EF91AB
:10EF400097B908954427BFDF02D04FEFBCDF00E040
:10EF500080E4C2DF88EB800FBFDF10E48827BFDFCB
:10EF60001A95E1F70395083099F70895EF93FF9309
:10EF70001BB61F9250916F055F9370907005E091E2
:10EF80006C05F0916D0500906E050BBE0E94B67881
:10EF9000202D0E94B678302D0E94B678002D0E9458
:10EFA000B6788052482F0E947E7AE40FF51F27D052
:10EFB00070927005B32E4091700550916F0529D065
:10EFC0000E94B678802D50917105552309F08095E7
:10EFD00086DF50917005539550937005BA9459F798
:10EFE00050916F05539550936F052A9509F75F91DE
:10EFF00050936F051F901BBEFF91EF91089518F479
:10F000002BB623942BBE089518F42BB62A942BBE4E
:10F0100008954A955A9557DF88EB850F5DDF80E4A8
:10F02000840F5ACFBB2021F0AA27BB270C94747AF7
:10F030000C94B678112422243324B9900E941278BB
:10F04000002D48E00E948A7A0A930E9412780A9260
:10F050000A920B8148E00E948A7A0B834C81F42E3D
:10F060005B81D9DF131489F40E941278202C802D43
:10F070008A3A41F00E941278802D8A3A49F03197FD
:10F08000C3DF0FC03196BBDF0CC01A9459F309C01F
:10F090000E941278802D882319F43297B5DF01C0C1
:10F0A000102C822D90917105992309F080958F93F2
:10F0B0004F2D5B81B0DF8F91F39411DF89818A95A9
:10F0C000898381F68B8183958B83888189838A816B
:10F0D0008A958A8319F625960895019111912191B7
:10F0E0003081089599275A924A92480E591E0895E0
:10F0F0000F92B801469F8001479F100D569F100D3B
:10F100000F9008950F921F922F92C801D901489F26
:10F1100080014A9F90014B9F202C499F100D211D7B
:10F12000321D5A9F202C589F100D211D321D599FB2
:10F13000200D311D689F200D311D699F300D789F76
:10F14000300D2F901F900F9008950E94B6780D9269
:10F150000020D9F70895903041F00D911C91000FD7
:10F16000111F9A95E1F71C930E930895D895319647
:10F1700028F48F938BB783958BBF8F9100200895D0
:10F18000813618F08B3708F48F7D08952E2E3F2E90
:10F19000992781918D3209F093958823D1F79A951B
:10F1A000E22DF32D112361F0091718F011F0101B57
:10F1B00001C0191B28F021F080E28D931A95E9F720
:10F1C00080818D3219F48D93319604C0222311F081
:10F1D0008BE28D93091738F031F0091B21F080E3A1
:10F1E0008D930A95E9F781918D938823E1F7332375
:10F1F00051F0EA2FFB2F319633958E9182933A95F9
:10F20000E1F78EE28C9308950F9301E00BBF0F910D
:10F21000889408950F930027F9CF0F9302E0F6CF5B
:10F220007F930F93AF93BF938F939F938FB78F93DA
:10F230008091C70508E2081B29F49091C6000E943E
:10F240002D7713C00091C605ADE9B5E07727909101
:10F25000C600A00FB71F9C9383958093C7050395A5
:10F26000083209F400270093C6058F918FBF9F9144
:10F270008F91BF91AF910F917F9118957F93AF932D
:10F28000BF938F939F938FB78F9390919C059923F2
:10F29000A1F09A9590939C059927A2E7B5E08091FB
:10F2A0009A05A80FB91F9C918395883209F4882785
:10F2B00080939A059093C60005C07091C1007F7D30
:10F2C0007093C1008F918FBF9F918F91BF91AF912C
:10F2D0007F9118956FB7F894882793E08D939A954E
:10F2E000E9F76FBF0895040F151F261F371F0895F4
:10F2F000041B150B260B370B08950417150726075B
:10F3000037070895000F111F221F331F089500951E
:10F310001095209530950F5F1F4F2F4F3F4F089549
:10F32000019110810FC00E946D780EC00E946D780F
:10F3300010C00191108117FF05C03FEF2FEF04C0EF
:10F34000008111272227332737FF03C0E0DF8DE23A
:10F350008D93CF92DF92EF92AA24BB24CC24DD249C
:10F36000EE2440E2EAE0FF2755E093E38081890F35
:10F3700087FD9F7083FD907F891B81935A95A9F724
:10F38000C1DFAA1CBB1CCC1CDD1CEE1C4A9551F72E
:10F39000E894EFE0FF2782910CD0EB30E0F71EF00D
:10F3A00068948A2D0AD088278D93EF90DF90CF90B4
:10F3B0000895982F829501D0892F8F70805D26F057
:10F3C000803309F4089568948D93089500271127D8
:10F3D000222733271DD08A3328F4803318F005D034
:10F3E00015D0F9CF0EF493CF089580538F93402F0B
:10F3F000512F622F732F86DF85DF75DF83DF8F91BB
:10F400009927080F191F291F391F08958D910895F5
:10F41000E894FCDF8032E9F38B32D9F38930C9F309
:10F420008D3211F46894F2CF089541E003C042E0B8
:10F4300001C044E0E40F8827F81F8291982F82953D
:10F4400006D0892F04D04A95C1F70C94457A8F7065
:10F450008A3008F0895F805D8D9308950027112719
:10F46000222733278D91882379F04CDF4BDF4ADF49
:10F4700049DF86DE815408F4895F865F080F88279C
:10F48000181F281F381FEECF089588278D930895E1
:10F4900081918D938823E1F70895099191919923A2
:10F4A00059F08A95D9F73197002331F081918D93E6
:10F4B0000A958823C9F70895E8CFF999FECFE1BDF1
:10F4C000F2BD3196089591E001C092E07B3751F48E
:10F4D0007FB7F894F2DF8D9180BDFA9AF99A9A95E8
:10F4E000C9F77FBF7727089591E001C092E0E5DF7B
:10F4F000F89A80B58D939A95D1F70895FF93552783
:10F50000F8E0469508F4500F57954795FA95D1F7CE
:10F51000FF910895FF93881BF9E0001FFA9511F4FD
:10F52000FF910895881F841B18F4840F8894F5CFE9
:10F530000894F3CF8FEF83959D919923E1F7089578
:10F54000689401C0E894AF93BF938D9116F09191A8
:10F5500003C00E94B678902D891718F011F4882303
:10F56000A1F7BF91AF9108953235323400003235A2
:10F570003237000030343033000030343034000093
:10F580003235323000003235323100003030304513
:10F590000000303030460000303030430000303260
:10F5A000303400003032303100003032303500006D
:10F5B00030323033000030323036000030323037F5
:10F5C0000000303830300000304330380000303830
:10F5D0003031000030383032000030383033000035
:10F5E00030343032000030383037000030303032C4
:10F5F000000030303035000030333031000030331F
:10F6000030320000304230310000304230320000F1
:10F610003042303400003042303500003042303665
:10F6200000003042303700003037303700003037CC
:10F6300030360000303730380000303030300000D5
:10F64000304233370000303730340000304430353A
:10F6500000003030313000003030313100003033C4
:10F6600030330000303130300000303130410000A4
:10F670003033303000003038303500003032303038
:10F680000000303730330000304430380000304460
:10F690003034000030443033000030313039000065
:10F6A0003031303700003235324600002020200053
:10F6B00062617200707369002020202020202020C9
:10F6C000202020202020202000002A2A464C4F57AE
:10F6D000205357495443482A2A0020202020202024
:10F6E0002020202020202020000020202020205228
:10F6F000454144592020202000002020204C4F4329
:10F70000414C2053544F50202020000020205245CF
:10F710004D4F54452053544F50202000202020208E
:10F7200052554E4E494E4720202000004D414E5527
:10F73000414C204F5645525249444500544152478E
:10F7400045543A202020200020005441524745547F
:10F750003A20202000005441524745543A202000CE
:10F760005441524745543A200000544152474554B1
:10F770003A0020202020202020202020202020208F
:10F780002020200041435455414C3A2020202000A5
:10F7900041435455414C3A202020000041435455E8
:10F7A000414C3A20200041435455414C3A2000003E
:10F7B00041435455414C3A0020202044454D414E90
:10F7C00044204C4F57202000205354414E4442596E
:10F7D00020494E200000730020202052554E4E49F3
:10F7E0004E4720464F5200002020202020200000BD
:10F7F000482000004D00202044454D414E44204803
:10F800004947480020524553554D494E4720494EDF
:10F8100020005354414E44425920285245414459F6
:10F8200029002020204C4F43414C2053544F50205E
:10F83000200020204D41582052554E2054494D451E
:10F8400020200000202020204558434545444544C1
:10F85000202020200000434845434B20464F5220A3
:10F860004C45414B53002050524553532052455371
:10F87000455420544F0020202020434F4E54494EE1
:10F880005545202020200000202020202023232E4A
:10F890002341202020202000202020202000204163
:10F8A0006D707300202020200000202020202323C2
:10F8B00023232052504D20202020000020202020F3
:10F8C00020302052504D2020202020002052504D2A
:10F8D00020002052756E20486F75727300005275BB
:10F8E0006E20486F75727300204379636C657300F6
:10F8F0002056657273696F6E3A20312E302E322099
:10F9000000004D4F4445204F5054494F4E204C4924
:10F9100053540000205E2F7620546F204368616EA0
:10F92000676500002020507265737320456E746512
:10F9300072200000202020546F2053656C65637492
:10F94000202000002020205472616E73647563656E
:10F950006420202000002020466C6F7720537769B8
:10F960007463682020004D616E75616C204F766570
:10F97000727269646500205F5F5F5F5F5F5F5F5FFA
:10F980005F5F5F5F5F2000007C2020202020202020
:10F99000202020202020207C00007C202043545266
:10F9A0004C20524553455420207C00007C202020D0
:10F9B00047454E4552414C202020207C00007C20B1
:10F9C000204F5045524154494F4E2020207C00008A
:10F9D0007C202050524F54454354494F4E20207CA8
:10F9E00000007C2020414343454C2054494D452094
:10F9F000207C00007C2020444543454C2054494D48
:10FA00004520207C00007C20204D494E2E20535064
:10FA100045454420207C00007C20204D41582E206C
:10FA2000535045454420207C00007C204D4F544FCE
:10FA3000522043555252454E547C00007C202053A6
:10FA40004554504F494E54203120207C00007C20EA
:10FA500020534554504F494E54203220207C000002
:10FA60007C5354414E444259204F46465345547CA2
:10FA700000007C524553554D45204F464653455452
:10FA8000207C00007C204D41582052554E20544986
:10FA90004D45207C00007C5354414E444259205433
:10FAA000494D4552207C00007C20524553554D4520
:10FAB0002054494D4552207C00007C20204C20538E
:10FAC0002043555252454E54207C00007C204C204F
:10FAD00053205052455353555245207C00007C52D0
:10FAE000554E204452592053454E534F527C0000EE
:10FAF0007C4E4F2057415445522054494D45527C2D
:10FB000000007C20202020205354415445202020F8
:10FB1000207C00007C204452592052554E205449EC
:10FB20004D45207C00007C20204D4F4E49544F52C3
:10FB3000494E4720207C00007C4359434C455320CC
:10FB4000494E20323448527C00007C52554E4E497A
:10FB50004E4720484F555253207C00007C202055B2
:10FB600053455220554E49545320207C00007C20A0
:10FB7000204641554C5420484953542E207C0000C7
:10FB80007C20202050415353574F52442020207C4A
:10FB900000007C5F5F5F5F5F5F5F5F5F5F5F5F5F16
:10FBA0005F7C0000205E2F7620546F204368616EDA
:10FBB000676520200000202020507265737320525A
:10FBC0006561642020200000546F74616C204E75C4
:10FBD0006D626572204F6600204379636C65732007
:10FBE000496E2050617374200000202020203234A0
:10FBF00020486F75727320202020000020546F2051
:10FC0000436C656172205072657373002020202060
:10FC10002052657365742020202020002020546825
:10FC2000697320436F756E746572000057696C6C60
:10FC300020426520436C6561726564002020205479
:10FC40006F20436F6E6669726D2020002020507215
:10FC500065737320456E7465722020002020204F4C
:10FC60007468657277697365202020002050726582
:10FC70007373204453502F46554E200020546F7408
:10FC8000616C2052756E6E696E6720002020202006
:10FC900054696D65204F6620202020002044726941
:10FCA00076652028486F7572732920002020202057
:10FCB000546F204578697420202020002052656907
:10FCC0006E697469616C69736500446F20596F7562
:10FCD0002057616E7420546F000052652D53657477
:10FCE000757020546869730020436F6E74726F6C76
:10FCF0006C65723F00002020416363656C65726132
:10FD000074696F6E202000002020202054696D65EA
:10FD10002028732900002020446563656C657261AA
:10FD200074696F6E2020000020204D696E696D752A
:10FD30006D205370656564002020202020285250DB
:10FD40004D29000020204D6178696D756D2053703C
:10FD5000656564004D6F746F722043757272656ED5
:10FD6000740020202020202841292020202020004D
:10FD7000202020536574706F696E7420312020003C
:10FD800020202020202028626172292020202000AD
:10FD90002020202020202870736929202020200086
:10FDA000202020536574706F696E7420322020000B
:10FDB000205374616E646279204F666673657400C7
:10FDC0002020526573756D65204F666673657400FB
:10FDD000204D617820436F6E74696E756F75730086
:10FDE0002020202052756E2054696D65202020004F
:10FDF0002020202028486F757273292020202000A1
:10FE000020205374616E6462792054696D6520000E
:10FE1000202020202020287329202020202020009E
:10FE20002020526573756D652054696D6520200032
:10FE300020204C6F772053756374696F6E2020000B
:10FE4000202043757272656E74202841292020009D
:10FE50002050726573737572652028626172290083
:10FE6000205072657373757265202870736929005C
:10FE700020204E6F2F4C6F772057617465722020C1
:10FE800000002020526573746172742054696D659E
:10FE9000722000002020202020286D696E2920205B
:10FEA0002020202000002020202052756E20447247
:10FEB000792020202020000020202053656E736FC1
:10FEC000722055736520202000002050756D702031
:10FED00057696C6C2052756E2020000020576974A1
:10FEE000686F7574205072696D65202000002020B5
:10FEF0002020466F72202028732920202020000017
:10FF000050726573737572652057696C6C20426519
:10FF1000000020204D6561737572656420496E2074
:10FF200020002020202020202020202020202020F1
:10FF3000200020202053657474696E6773002020B0
:10FF400050726F74656374696F6E000020202050DA
:10FF5000617373776F7264003000303000003030AE
:10FF600030002020202020205965730020202020F0
:10FF700020204E6F200020202020454E41424C453D
:10FF80002020202000002020202044495341424CC2
:10FF900045202020000020202020202062617220A7
:10FFA0002020202020002020202020207073692085
:10FFB00020202020200020626172000020707369E0
:10FFC0000000202020202020202020202D00202084
:10FFD0002020202020202D20200020202020202034
:10FFE0002D2020202000202020202D202020202017
:10FFF000200020205E2F76204368616E6765200018
:020000021000EC
:100000002020507265737320456E746572002E0057
:100010002020205741524E494E47210054686973B1
:100020002057696C6C20436C65617200416C6C20D8
:1000300053657475702056616C75657300002020DF
:1000400041524520594F5520535552453F002020DD
:100050004379636C6520506F776572202000202003
:10006000546F20436F6D706C6574652020003031D3
:10007000303200002043616E6E6F74204368616E01
:100080006765202000002020546869732056616C49
:100090007565202020200000205768696C6520527B
:1000A000756E6E696E67202000002020506C6561BF
:1000B00073652057616974202000303030340000AF
:1000C00030303036000030303038000020202046FC
:1000D00061756C74204C6F670000204E6F3A2000F1
:1000E000202020204E6F204661756C742000202057
:1000F0002020204C6F676765640044726976652034
:100100004F7665726865617465640000204F76659E
:100110007263757272656E74204174002020202015
:10012000202053746F7000002020204C6F772053E4
:100130007570706C790020202020566F6C74616798
:10014000650020204F76657220537570706C7900C1
:100150002020202045787465726E616C000020209C
:10016000204261736520426C6F636B004472697654
:10017000652043544552204572726F720000202062
:1001800020447269766520504944000020202020D8
:10019000204572726F7200002020447269766520DB
:1001A000454550524F4D0000202020204175746F6E
:1001B00074756E652020200020202020204572725A
:1001C0006F722020202000002020202020204F7649
:1001D000657200002020202020546F727175650028
:1001E00020202020496E7665727465720000202000
:1001F000204F7665726C6F6164656400202020205A
:10020000204D6F746F720000202020436F6D6D735E
:100210002845464F290020456D657267656E6379F4
:100220002053746F7000202020506172616D6574DE
:100230006572000020204C6F636B656420284C4F72
:100240004329000020204F76657220437572726545
:100250006E7400002020417420436F6E7374616ED1
:100260007400202020202053706565642020200029
:100270002020416363656C65726174696F6E000074
:100280002020446563656C65726174696F6E00005F
:1002900020204F76657263757272656E742000005F
:1002A00020202020417420537461727400002020AB
:1002B0004C6F7720566F6C746167650020576869D2
:1002C0006C652052756E6E696E67000020204F7657
:1002D000657220566F6C7461676500002044726916
:1002E0007665204865617473696E6B002020204F2D
:1002F000766572686561746564002020205A6572B5
:100300006F2053706565640020202053746F702047
:10031000535450300000204661696C20746F2053A4
:10032000746172740000204469726563746C792092
:1003300053545031000020202020204B65797061FB
:10034000640020446973616C6C6F77656420557339
:1003500065004F66204472697665204B657970614F
:1003600064002053657474696E67204572726F7201
:100370000000496C6C6567616C20496E746572752C
:100380007074000020204F66204472697665204317
:100390005055000020436F6D6D756E69636174691F
:1003A0006F6E7300202020202020457272380000DC
:1003B00020202020204550523120202020200000E5
:1003C00020202020204550523220202020200000D4
:1003D0002020202020447269766520002020204FB4
:1003E000766572205370656564002020496E7075D3
:1003F00074205068617365002020202020204C6FFD
:100400007373000020556E646572204375727265C7
:100410006E740000202020446574656374696F6EFB
:10042000000020204F7574707574207068617365CA
:100430000000202020202047726F756E642020204D
:1004400020002020202020204661756C7420202070
:1004500000002020506F7765722052656C61790032
:100460002020202020204F66660020202046697230
:1004700065204D6F646500002020202020416374BA
:10048000697665002020204C6F772053756374696E
:100490006F6E20002020202850726573737572657E
:1004A000292020002020436865636B205761746514
:1004B00072200000436865636B2050756D702049A1
:1004C0006E6C657400002020202843757272656E82
:1004D000742920202000202020537570706C792012
:1004E000546F2000202020205468652050756D70C6
:1004F00020002045787420496E7465726C6F636BC0
:100500002000202020205472697070656420202013
:100510002000436865636B2054616E6B204C6576E8
:10052000656C00002020436865636B205769726921
:100530006E6720002020202052756E2044727920A2
:100540002020000020202050726F74656374696F52
:100550006E202000312E20436865636B2050726945
:100560006D696E670000322E20436865636B20570B
:100570006972696E672000002020205472616E73DA
:1005800064756365722020002020205369676E61C6
:100590006C204C6F737420002020546F20547261C3
:1005A0006E736475636572004E6F204661756C747E
:1005B000204C6F67676564004572726F72204E75DC
:1005C0006D626572000020202020204E6F20466161
:1005D000756C74002020202020204C6F67676564B4
:1005E0000000202044432042757320556E646572DC
:1005F00000002020566F6C746167652028555629CD
:1006000000002020444320427573204F766572001D
:100610002020566F6C7461676520284F56290000B2
:100620004472697665204865617473696E6B000079
:10063000204F766572686561746564002020202013
:10064000204F7665720020202020546F72717565EE
:100650000000202020202053686F727400002020AA
:100660002020436972637569740020202020204790
:10067000726F756E64002020202020496E707574A2
:10068000000020205068617365204C6F7373000078
:1006900020202020204F75747075740020466565F9
:1006A000646261636B204572726F720020202020AB
:1006B00052656D6F7665640020204572726F7220FE
:1006C00028434529202000002020202020205354AA
:1006D0004F31202020202000204D6F746F72204366
:1006E0006F6E74726F6C000020204661756C742010
:1006F00028434630372900004D6F746F72204F76C3
:100700006572686561746564000028505443205424
:100710006865726D6973746F7229000020204D74D2
:10072000725377202872756E29202000204F76653D
:100730007263757272656E74206174002041636328
:10074000656C65726174696F6E0020446563656CE9
:1007500065726174696F6E00204F766572637572A1
:1007600072656E74200020617420436F6E73746133
:100770006E74000020202053706565640000202006
:100780004661756C742028434630382900002020CB
:100790002020202053544F322020202020002020D1
:1007A0002020202053544F33202020202000205090
:1007B0006F77657220566F6C74616765200020202A
:1007C00020204F66662028504F292020200050729C
:1007D0006F74656374696F6E204572726F7200008A
:1007E00020202020202028504629202020202000C2
:1007F000546F20436C65617220546865202020206E
:1008000000004661756C74204C6F67005072657310
:1008100073205245534554204F7200005072657347
:1008200073204453502F46554E20546F000052659C
:100830007475726E20546F20546865200000466104
:10084000756C7420446973706C617900202050725B
:100850006573732052455345542020002020546F67
:1008600020436F6E74696E75652020004175746F4A
:10087000205265747279200020204C6F77205072CE
:1008800065737375726500002033204175746F20A5
:100890005265736574730000202020417474656D87
:1008A00070746564202000002020507265737320EE
:1008B0005245534554002020546F20436F6E746995
:1008C0006E75650030303030300020202050726569
:1008D000737320524553455420200000202020549B
:1008E0006F20436F6E74696E7565202000002A2AA0
:1008F0002A2A20204641554C54202A2A2A2A000020
:10090000524553455454494E472E2E2E2E00303119
:10091000303300003030303100003A0030313130B7
:1009200000003030303130320000726567203A20EC
:10093000000076616C203A200000202020653531CF
:100940003020000020202065353130532000202049
:100950004452495645203B2000007C20496E697472
:1009600069616C6973696E67207C0000202020201B
:100970002076312E302E3220202020200000204EE4
:10098000657720436F6E74726F6C6C657200205FC8
:100990005F5F5F5F5F5F5F5F5F5F5F5F5F00202044
:1009A00020507265737320456E746572200020209C
:1009B000546F20436F6E66696775726520005468D6
:1009C00065204C6173742054696D650054686174CE
:1009D000205468697320536574757000526F757484
:1009E000696E65205761732052756E004155544FF2
:1009F00054554E45204661696C656400506C6561D4
:100A0000736520456E74657220416C6C0000446112
:100A10007461204361726566756C6C792E0050526A
:100A200045535320454E5445520020436865636B3F
:100A3000696E6720434F4D4D53002020546F205462
:100A400068652044726976652000202053657475BE
:100A5000702063616E6E6F740000636F6E74696EF8
:100A60007565206265636175736500002020434FE2
:100A70004D4D5320746F2074686500002020204481
:100A80007269766520686176650020202062656560
:100A90006E206C6F737421002020436F6E6E65634F
:100AA00074656420546F2000202020202044726947
:100AB000766520202020200020436865636B696EE6
:100AC00067204D6F64656C00202020204F66204415
:100AD00072697665202020003035303000002043D8
:100AE0006F6E6E656374696E6720546F202000001E
:100AF0002020202020205445434F2020202020204B
:100B00000000202020202045353130532020202097
:100B1000200020202020202045353130202020209A
:100B20002020000020202020556E6B6E6F776E20F5
:100B3000202020200000202020202044726976659B
:100B400020202020202000003030303300003034BE
:100B50004532000053656C656374205072656665AC
:100B6000727265640000205573657220556E697459
:100B70007320466F72200000202020205072657381
:100B80007375726520202020000020204D6F746F47
:100B900072205261746564200000323330300000EE
:100BA000202031373056202D203236345600343054
:100BB00030300000202033323356202D203532389B
:100BC0005600202043757272656E742028412920DA
:100BD00000003135300020204D6F746F722052615B
:100BE00074656400202020506F776572286B572948
:100BF000200037353000202053706565642028526E
:100C0000504D2920000032393030000020467265F6
:100C10007175656E63792028487A2900202020208C
:100C20002020202020202020000035300000204DF2
:100C300061782E204F7065726174696E67002020A4
:100C4000205370656564202852504D290000204DC6
:100C5000696E2E204F7065726174696E6700323460
:100C6000303000002020506C656173652057616949
:100C7000742E2E20000030304338000030333334DF
:100C8000000030313941000030303634000030305F
:100C90003041000030303132000030333035000058
:100CA00030303332000030303139000030313243DF
:100CB0000000526F746F7220446972656374696FCB
:100CC0006E005072657373205550204172726F77B9
:100CD0000000546F2042756D7020526F746F720067
:100CE0005075736820526573657420546F005265A7
:100CF00076657273652049662057726F6E670000D3
:100D0000456C736520507265737320456E7465720F
:100D10000000446972656374696F6E203D20465718
:100D20004400446972656374696F6E203D205245CA
:100D300056003030303700002053776974636820E4
:100D400052656D6F746500002020205369676E61E5
:100D50006C20746F2000202020202020204F4E2067
:100D60002000204578742E20496E7465726C6F6384
:100D70006B00202020205472697070656400436805
:100D800065636B20496E7465726C6F636B00202025
:100D90004F7220576972696E6720546F00002020DF
:100DA0002020496E70757420410053797374656D0D
:100DB000204E6565647320546F004D6561737572D4
:100DC00065204D6178696D756D00202050726573E6
:100DD0007375726520416E64000020204375727245
:100DE000656E742044726177000020436C6F7365F8
:100DF00020416C6C20546170730020205072657328
:100E00007320454E544552202000205468652050E0
:100E1000756D702057696C6C0000202020202052D6
:100E2000756E20417420202020002046756C6C20B7
:100E3000537065656420466F720020202033302097
:100E40005365636F6E6473202000204D6561737578
:100E500072696E672054686500004D6178696D7530
:100E60006D20506F737369626C6500002020506CB8
:100E70006561736520576169740020202020204D32
:100E80006F746F722020202020002020204F766574
:100E9000726C6F6164656420200020506C65617322
:100EA0006520436F6E746163740020204A4F484E82
:100EB0002042524F4F4B5320200020205072657328
:100EC0007375726520417400204D6178696D756D90
:100ED0002053706565640000204D696E696D756D05
:100EE000205370656564000020466F722033302007
:100EF0005365636F6E64732000002020436F6E663D
:100F000069677572696E67202000202020202044C8
:100F100072697665000020202046696E616C697AEE
:100F2000696E670020202020496E7374616C6C002C
:100F3000506172616D6574657220536574757020BF
:100F4000000020202020436F6D706C6574652E209A
:100F500020200000204379636C6520506F77657214
:100F600020546F20000046696E616C6973652049EA
:080F70006E7374616C6C0000EB
:00000001FF
